:100000000C9462000C948A000C948A000C948A0070
:100010000C948A000C948A000C948A000C948A0038
:100020000C948A000C948A000C948A000C948A0028
:100030000C948A000C94C7050C948A000C948A00D6
:100040000C945E040C948A000C948A000C948A0030
:100050000C948A000C948A000C948A000C948A00F8
:100060000C94A8040C948A000000000024002700CF
:100070002A0000000000250028002B0000000000DE
:1000800023002600290004040404040404040202DA
:100090000202020203030303030301020408102007
:1000A0004080010204081020010204081020000012
:1000B0000008000201000003040700000000000027
:1000C00000008A0611241FBECFEFD8E0DEBFCDBFEF
:1000D00011E0A0E0B1E0EEECF5E102C005900D9278
:1000E000AC33B107D9F722E0ACE3B1E001C01D9217
:1000F000AE31B207E1F710E0C2E6D0E004C02197CC
:10010000FE010E94DF0AC136D107C9F70E94AB0683
:100110000C94E50A0C940000833081F028F48130BF
:1001200099F08230A9F008958730A9F08830C9F09D
:100130008430B1F4809180008F7D03C08091800075
:100140008F7780938000089584B58F7784BD08955C
:1001500084B58F7DFBCF8091B0008F778093B00006
:1001600008958091B0008F7DF9CFCF93DF93282F32
:1001700030E0F901E255FF4F8491F901E656FF4F57
:10018000D491F901EA57FF4FC491CC23A1F081111A
:100190000E948C00EC2FF0E0EE0FFF1FE458FF4FA1
:1001A000A591B491EC91ED2381E090E009F480E019
:1001B000DF91CF91089580E090E0FACF1F93CF9325
:1001C000DF93282F30E0F901E255FF4F8491F901C8
:1001D000E656FF4FD491F901EA57FF4FC491CC2363
:1001E000A9F0162F81110E948C00EC2FF0E0EE0F89
:1001F000FF1FEE58FF4FA591B4918FB7F894EC9183
:10020000111108C0D095DE23DC938FBFDF91CF9111
:100210001F910895DE2BF8CFCF93DF9390E0FC0180
:10022000E656FF4F24918A579F4FFC018491882303
:10023000C9F090E0880F991FFC01E859FF4FA59184
:10024000B491FC01EE58FF4FC591D49161110DC0DE
:100250009FB7F8948C91209582238C9388812823D2
:1002600028839FBFDF91CF910895623051F49FB7EB
:10027000F8943C91822F809583238C93E8812E2BD8
:10028000EFCF8FB7F894EC912E2B2C938FBFEACF42
:100290003FB7F8948091010290910202A09103026D
:1002A000B091040226B5A89B05C02F3F19F0019616
:1002B000A11DB11D3FBFBA2FA92F982F8827BC01C0
:1002C000CD01620F711D811D911D42E0660F771FE8
:1002D000881F991F4A95D1F708958F929F92AF92E8
:1002E000BF92CF92DF92EF92FF924B015C010E948E
:1002F00048016B017C010E9448016C197D098E093F
:100300009F09683E734081059105A8F321E0821A98
:100310009108A108B10888EEC80E83E0D81EE11C40
:10032000F11C81149104A104B10429F7FF90EF900E
:10033000DF90CF90BF90AF909F908F9008950895D9
:100340000895AF92BF92CF92DF92EF92FF920F93F8
:100350001F93CF93DF936C017B018B01040F151F5B
:10036000EB015E01AE18BF08C017D10759F06991C3
:10037000D601ED91FC910190F081E02DC601099527
:10038000892B79F7C501DF91CF911F910F91FF90D4
:10039000EF90DF90CF90BF90AF9008952091A5018E
:1003A000260F3327331F21323105ECF42091C90188
:1003B000FC0190E080E0243069F082E00895A09193
:1003C000A5012191AC014B575E4FA40FB52FB11D74
:1003D0002C930196861798F38091A501680F60937E
:1003E000A50180E0089581E008951092C90181E09F
:1003F0008093CB011092CA0161E082E10E94DE008D
:1004000061E083E10E94DE00E9EBF0E080818E7F15
:10041000808380818D7F808388E48093B80085E429
:100420008093BC000895CF93DF9391E09093840173
:100430008823B9F0C091B800D091BA008091BC0077
:100440008A7B8093BC0060E082E10E94DE0060E075
:1004500083E10E94DE000E94F501D093BA00C093B0
:10046000B800DF91CF9108950895E091F601809151
:10047000F501E81730F4F0E0E15AFE4F808190E09A
:1004800008958FEF9FEF08959091F6018091F50107
:100490002FEF3FEF981748F4E92FF0E0E15AFE4FB5
:1004A000208130E09F5F9093F601C901089580910B
:1004B000F5019091F601891B990B0895CF92DF9277
:1004C000EF92FF920F931F93CF93DF937C01CB01A9
:1004D0008A0120915E01222389F0EB016B01C40E99
:1004E000D51ECC15DD0569F06991D701ED91FC9120
:1004F0000190F081E02DC7010995F3CF642F0E9490
:10050000CE01C801DF91CF911F910F91FF90EF9025
:10051000DF90CF900895CF93DF931F92CDB7DEB7D2
:10052000698320915E012223F9F02091F3012032AA
:1005300058F021E030E0FC013383228390E080E03A
:100540000F90DF91CF9108958091F401E82FF0E0B2
:10055000E25CFE4F998190838F5F8093F4018093DA
:10056000F30181E090E0ECCF61E0CE0101960E94C2
:10057000CE01F7CFCF92DF92EF92FF920F931F93AE
:10058000CF93DF93FC01C48121E020935E01C093EF
:100590003D011092F4011092F3018485682B85E0EF
:1005A00092E00E948B02D091F301D13208F092C008
:1005B0000E9448016B017C018091C901811165C0D5
:1005C00082E08093C90181E08093CB018FEF80931B
:1005D000C8011092ED01D093EC01AEE3B1E0ECEC78
:1005E000F1E080E0D81385C01092EE018091EE0119
:1005F000CC0FC82BC093EE018091CA01813009F065
:100600007CC01092CA010E9448016B017C0180915C
:10061000EE018093BB008091800190918101A091B7
:100620008201B0918301892B8A2B8B2B99F00E9438
:100630004801009180011091810120918201309147
:1006400083016C197D098E099F0906171707280772
:100650003907E0F18091BC0083FDD9CF85EC809310
:10066000BC000E9448016B017C018091C90182306D
:1006700009F445C08091C8018F3F61F18091C801A4
:10068000803241F18091C80125C080918001909114
:100690008101A0918201B0918301892B8A2B8B2B40
:1006A00009F48ACF0E9448010091800110918101D4
:1006B00020918201309183016C197D098E099F0977
:1006C000061717072807390708F076CF80917F01B2
:1006D0000E9413021092F4011092F30110925E0135
:1006E000DF91CF911F910F91FF90EF90DF90CF900E
:1006F00008959D9191938F5F75CF85EEB0CF8091D6
:10070000800190918101A0918201B0918301892B98
:100710008A2B8B2B09F4A9CF0E94480100918001FC
:100720001091810120918201309183016C197D0922
:100730008E099F09061717072807390708F095CF74
:10074000C5CF089590E080E008950F931F93CF9355
:100750008C01C62F0E94BA026C2F6460C8010E94EF
:10076000BA026C2F6B7FC8010E94BA0283EC90E042
:100770000197F1F7CF911F910F9108950F931F9358
:10078000CF93DF938C01D62FC42F607F642B0E9400
:10079000A50380E1D89FB00111246C2BC801DF9123
:1007A000CF911F910F910C94A503CF93DF93CDB7F9
:1007B000DEB728970FB6F894DEBF0FBECDBF98E026
:1007C000E4E0F1E0DE01119601900D929A95E1F7D7
:1007D00090911902961708F46FEF262F30E0220F40
:1007E000331F41E050E04C0F5D1F240F351FF9010E
:1007F0006081680F606840E081E192E028960FB662
:10080000F894DEBF0FBECDBFDF91CF910C94BE0335
:1008100041E00E94BE0381E090E0089560E086E040
:100820000E94DE0060E085E00E94DE0060E08DE274
:100830000E94DE0060E087E00E94DE0060E082E06F
:100840000E94DE0060E08EE20C94DE0085ED809375
:10085000BC008091800190918101A0918201B091B2
:1008600083010796A11DB11D23E0B695A795979525
:1008700087952A95D1F72091BC0024FD03C01092E2
:10088000C9010895409180015091810160918201D8
:1008900070918301452B462B472B69F30097A105E7
:1008A000B10541F02AE22A95F1F700C00197A109AC
:1008B000B109E1CF80917F010C9413021F920F9236
:1008C0000FB60F9211242F933F938F939F93AF9363
:1008D000BF938091FD019091FE01A091FF01B09125
:1008E00000023091FC0123E0230F2D3758F50196CB
:1008F000A11DB11D2093FC018093FD019093FE0189
:10090000A093FF01B0930002809101029091020236
:10091000A0910302B09104020196A11DB11D809324
:10092000010290930202A0930302B0930402BF91CC
:10093000AF919F918F913F912F910F900FBE0F908C
:100940001F90189526E8230F0296A11DB11DD2CF46
:100950001F920F920FB60F9211242F933F934F9334
:100960005F936F937F938F939F93AF93BF93EF9317
:10097000FF938091B900887F803609F44AC0F0F572
:10098000883209F4A7C018F5803109F49BC0B8F487
:10099000882309F4F9C0883009F494C0FF91EF91DD
:1009A000BF91AF919F918F917F916F915F914F9187
:1009B0003F912F910F900FBE0F901F901895883187
:1009C00009F488C0803251F78093C80114C0803484
:1009D00009F49DC040F48033B9F38833F9F680936D
:1009E000C80185ECB0C0803509F485C0883509F4AC
:1009F00096C0883499F60E942604D0CF883909F42D
:100A00008CC038F5883729F050F4883611F08037DB
:100A100029F683E08093C9011092C70157C0883836
:100A200009F47BC0803919F0803809F0B7CF809184
:100A3000C701803208F071C0E091C70181E08E0FDC
:100A40008093C7018091BB00F0E0E955FE4F8083A1
:100A50003DC0803B39F0E0F4803A09F479C0883A2F
:100A600009F09CCF84E08093C9011092A6011092F6
:100A7000A501E091F101F091F20109958091A501A4
:100A800081110FC081E08093A5011092850109C0FA
:100A9000803C09F4A6CF883C09F4A3CF883B09F039
:100AA0007DCFE091A60181E08E0F8093A601F0E05A
:100AB000EB57FE4F80818093BB009091A6018091FF
:100AC000A50129C08091EE018093BB0085EC809345
:100AD000BC0064CF9091ED018091EC01981758F51E
:100AE000E091ED0181E08E0F8093ED01F0E0E453A1
:100AF000FE4F8081E9CFE091ED0181E08E0F809380
:100B0000ED018091BB00F0E0E453FE4F80839091B3
:100B1000ED018091EC019817C8F285E8D8CFE091FB
:100B2000ED0181E08E0F8093ED018091BB00F0E03C
:100B3000E453FE4F80838091CB0181115CCF81E033
:100B40008093CA0184EA8093BC001092C90126CF29
:100B500085EC8093BC001092C9018091C70180325E
:100B600030F4E091C701F0E0E955FE4F108260914A
:100B7000C70170E0E091EF01F091F00187EA91E0A8
:100B800009951092C7010ACF1092C80134CF1F9265
:100B90000F920FB60F9211242F933F934F935F93B1
:100BA0006F937F938F939F93AF93BF93CF93EF9365
:100BB000FF930E940E04C0913C01C11121C080919D
:100BC000F701813051F48091F8019091F9019093EF
:100BD0008700809386001092F70160E087E00E9412
:100BE000DE0060E085E00E94DE0060E089E00E94B7
:100BF000DE0061E086E00E94DE0061E082E082C00B
:100C0000C33009F45EC0E8F4C13079F1C23009F4B0
:100C100045C0CF5FC63008F07AC0C0933C01FF9159
:100C2000EF91CF91BF91AF919F918F917F916F91F4
:100C30005F914F913F912F910F900FBE0F901F909A
:100C40001895C43009F44CC0C53019F760E086E04F
:100C50000E94DE0060E085E00E94DE0060E089E046
:100C60000E94DE0061E087E0C6CF60E087E00E947E
:100C7000DE0060E085E00E94DE0060E08AE00E9425
:100C8000DE0061E086E00E94DE0061E082E00E941A
:100C9000DE0061E089E00E94DE00BBCF60E087E01B
:100CA0000E94DE0060E082E00E94DE0060E08AE0F8
:100CB0000E94DE0061E086E00E94DE0061E085E0E7
:100CC000E6CF60E086E00E94DE0060E082E00E9405
:100CD000DE0060E08AE00E94DE0061E087E0ECCFA9
:100CE00060E086E00E94DE0060E082E00E94DE00BC
:100CF00060E089E00E94DE0061E087E00E94DE00A3
:100D000061E085E00E94DE0061E08AE0C4CF1092DD
:100D10003C0185CFE5E0F2E01382128288EE93E099
:100D2000A0E0B0E084839583A683B78380E191E05F
:100D300091838083E1E1F2E01382128282E291E00A
:100D400091838083118687E2848380E1828782E0B9
:100D5000838714860895CF93DF93CDB7DEB7A1972D
:100D60000FB6F894DEBF0FBECDBF789484B5826015
:100D700084BD84B5816084BD85B5826085BD85B53F
:100D8000816085BD80916E00816080936E001092BD
:100D90008100809181008260809381008091810038
:100DA00081608093810080918000816080938000C9
:100DB0008091B10084608093B1008091B000816027
:100DC0008093B00080917A00846080937A00809153
:100DD0007A00826080937A0080917A0081608093AB
:100DE0007A0080917A00806880937A001092C10026
:100DF00061E088E00E940C0161E085E00E940C0146
:100E000061E086E00E940C0161E087E00E940C0135
:100E100061E082E00E940C0161E089E00E940C0127
:100E200061E08AE00E940C0162E083E00E940C0114
:100E300062E084E00E940C0160E08EE00E940C0100
:100E400060E087E00E94DE0060E085E00E94DE0056
:100E500060E08DE20E94DE0060E086E00E94DE003D
:100E600060E082E00E94DE0060E089E00E94DE0037
:100E700060E08AE00E94DE0081E493E0A0E0B0E060
:100E80008093F8019093F901A093FA01B093FB01CC
:100E900082E0809380001092810010926F008BE1BD
:100EA0008093810010926F008091F8019091F90178
:100EB000909387008093860078941092F6011092A8
:100EC000F5011092F4011092F3010E94F5018FE9EF
:100ED00091E09093F2018093F10180EA91E0909388
:100EE000F0018093EF011092160280911C02823073
:100EF00018F098E0909316028093190262E370E074
:100F000080E090E00E946D0160911D0281E192E01D
:100F10000E94BA0268EE73E080E090E00E946D01EA
:100F200060E381E192E00E94A5030BE416E4C801AE
:100F30000197F1F760E381E192E00E94A503C80107
:100F40000197F1F760E381E192E00E94A50383E558
:100F500092E00197F1F760E281E192E00E94A5033F
:100F600060911602606240E081E192E00E94BE035F
:100F700084E08093170240E06CE081E192E00E94FF
:100F8000BE0340E061E081E192E00E94BE038BE39A
:100F90009FE10197F1F780911A02882321F060E028
:100FA00080E00E94D50382E08093180240E066E072
:100FB00081E192E00E94BE0340E062E081E192E0C4
:100FC0000E94BE038BE39FE10197F1F788E08093D5
:100FD0001D0260E081E192E00E94BA0260E082E0DE
:100FE0000E94D5034EE050E06AE271E081E192E0B8
:100FF0000E94A10161E085E00E94D50342E050E03B
:1010000069E371E081E192E00E94A10188248A9461
:1010100083E0982EA12CB12C9AE0492E512C612C02
:10102000712C20E0222E20E0322E33E2C32ED12C70
:1010300083E00E94B500892B19F481E080936F0052
:1010400084E00E94B500892B41F410926F000E9449
:101050000E04D0920301C0920201E0E4E0937C0010
:1010600080917A00806480937A0080917A0086FD76
:10107000FCCF2091780030917900A8E2B0E00E9486
:101080003409A50194010E94F308DA01C9014E96C2
:10109000A11DB11D8332910508F471C09093010127
:1010A0008093000100910001109101016091020103
:1010B000709103016017710708F066C06F5F7F4F82
:1010C000709303016093020190E080E00E94E409C4
:1010D0009B01AC0160E074E284E79BE40E94430959
:1010E00020E030E040EC50E40E94430920E030E092
:1010F00040E85CE30E94720A0E94B5096093F8011F
:101100007093F9018093FA019093FB01F1E0F09361
:10111000F70161E081E00E94D503980150E040E0D2
:1011200019A27E01E1E2EE0EF11CCA01B901A30190
:1011300092010E941209605DF70162937F012115FF
:1011400031054105510589F7309761F00190002084
:10115000E9F73197AF014E195F09B70181E192E0DC
:101160000E94A10168EC70E080E090E00E946D01B7
:101170002114310409F45CCF0E94000059CFD092B1
:101180000101C09200018ECF0617170710F66150BB
:101190007109709303016093020190E080E00E9466
:1011A000E4099B01AC0160E074E284E79BE40E94E7
:1011B000430920E030E040EC50E40E94430920E085
:1011C00030E040E85CE30E94720A0E94B509609337
:1011D000F8017093F9018093FA019093FB0181E08B
:1011E0008093F70196CF052E97FB1EF400940E9482
:1011F0000A0957FD07D00E94120907FC03D04EF4DC
:101200000C940A0950954095309521953F4F4F4FCA
:101210005F4F089590958095709561957F4F8F4FA2
:101220009F4F0895A1E21A2EAA1BBB1BFD010DC002
:10123000AA1FBB1FEE1FFF1FA217B307E407F50786
:1012400020F0A21BB30BE40BF50B661F771F881F62
:10125000991F1A9469F760957095809590959B01F8
:10126000AC01BD01CF010895A29FB001B39FC001A1
:10127000A39F700D811D1124911DB29F700D811DC2
:101280001124911D08950E9457090C94380A0E9458
:10129000310A58F00E942A0A40F029F45F3F29F0F1
:1012A0000C94210A51110C946C0A0C94270A0E9488
:1012B000490A68F39923B1F3552391F3951B550B14
:1012C000BB27AA2762177307840738F09F5F5F4F19
:1012D000220F331F441FAA1FA9F335D00E2E3AF058
:1012E000E0E832D091505040E695001CCAF72BD070
:1012F000FE2F29D0660F771F881FBB1F26173707C1
:101300004807AB07B0E809F0BB0B802DBF01FF27F2
:1013100093585F4F3AF09E3F510578F00C94210AA4
:101320000C946C0A5F3FE4F3983ED4F3869577956E
:101330006795B795F7959F5FC9F7880F911D9695AB
:10134000879597F90895E1E0660F771F881FBB1F07
:10135000621773078407BA0720F0621B730B840BB4
:10136000BA0BEE1F88F7E09508950E94510A88F0A5
:101370009F5798F0B92F9927B751B0F0E1F0660F59
:10138000771F881F991F1AF0BA95C9F714C0B1309A
:1013900091F00E946B0AB1E008950C946B0A672FDC
:1013A000782F8827B85F39F0B93FCCF386957795C9
:1013B0006795B395D9F73EF49095809570956195B2
:1013C0007F4F8F4F9F4F0895E89409C097FB3EF4DD
:1013D00090958095709561957F4F8F4F9F4F992382
:1013E000A9F0F92F96E9BB279395F6958795779500
:1013F0006795B795F111F8CFFAF4BB0F11F460FFC0
:101400001BC06F5F7F4F8F4F9F4F16C0882311F017
:1014100096E911C0772321F09EE8872F762F05C02B
:10142000662371F096E8862F70E060E02AF09A95C6
:10143000660F771F881FDAF7880F9695879597F9BB
:10144000089597F99F6780E870E060E008959FEF46
:1014500080EC089500240A9416161706180609064B
:10146000089500240A94121613061406050608951A
:10147000092E0394000C11F4882352F0BB0F40F4A2
:10148000BF2B11F460FF04C06F5F7F4F8F4F9F4FE2
:10149000089557FD9058440F551F59F05F3F71F064
:1014A0004795880F97FB991F61F09F3F79F08795CB
:1014B0000895121613061406551FF2CF4695F1DF54
:1014C00008C0161617061806991FF1CF86957105E4
:1014D000610508940895E894BB2766277727CB0118
:1014E00097F908950E94850A0C94380A0E942A0AE6
:1014F00038F00E94310A20F0952311F00C94210A53
:101500000C94270A11240C946C0A0E94490A70F367
:10151000959FC1F3950F50E0551F629FF001729F98
:10152000BB27F00DB11D639FAA27F00DB11DAA1FA7
:10153000649F6627B00DA11D661F829F2227B00DF4
:10154000A11D621F739FB00DA11D621F839FA00D7F
:10155000611D221F749F3327A00D611D231F849FCF
:10156000600D211D822F762F6A2F11249F57504026
:101570009AF0F1F088234AF0EE0FFF1FBB1F661FA1
:10158000771F881F91505040A9F79E3F510580F06A
:101590000C94210A0C946C0A5F3FE4F3983ED4F358
:1015A000869577956795B795F795E7959F5FC1F70E
:1015B000FE2B880F911D9695879597F90895EE0F4C
:0E15C000FF1F0590F491E02D0994F894FFCFE1
:1015CE003200230000004000140054000000000010
:1015DE008B025E02A203340257024402350200005F
:1015EE0000000804A101A203A10354414E20534F51
:0C15FE00204341492044415400487A0039
:00000001FF
