:020000040000FA
:100000000C9495000C94B2000C94B2000C94B200C5
:100010000C94B2000C94B2000C94B2000C94B20098
:100020000C94B2000C942D010C94B2000C94B2000C
:100030000C94B2000C94B2000C94B2000C94B20078
:100040000C94EB010C94B2000C94B2000C94B2002E
:100050000C94B2000C94B2000C94B2000C94B20058
:100060000C94B2000C94B2000C94B2000C94B20048
:100070000C94B2000C94B2000C94B2000C94B20038
:100080000C94B2000C94B2000C94B2000C94B20028
:100090000C94B2000C94B2000C94B2000C94B20018
:1000A0000C94B2000C94B2000C94B2000C94B20008
:1000B0000C94B2000A0D0E090003020000040508AA
:1000C000000000000000000000000000000000012F
:1000D00002040810204080010204081020010204DC
:1000E00008102040804001020408040404040404B1
:1000F00004040202020202020303030303030202D6
:100100000305050505000000002300260029002C3A
:100110000000000000250028002B002E0000000039
:1001200000240027002A002D000011241FBECFEF5D
:10013000D8E0DEBFCDBF11E0A0E0B1E0E6E0F7E03F
:1001400002C005900D92A630B107D9F721E0A6E0D4
:10015000B1E001C01D92A831B207E1F70E94DC01B5
:100160000C9481030C9400000F931F930E9435029E
:100170000091090110910A0120910B0130910C01AD
:10018000601B710B820B930B653671058105910520
:1001900008F10E9435026093090170930A0180936F
:1001A0000B0190930C018EE00E947D0290930E0152
:1001B00080930D018091060190910701892BF9F43C
:1001C00061E08DE00E94240381E090E090930701BC
:1001D00080930601809102010E945203892BC1F491
:1001E00080910801813041F080917000816080939E
:1001F000700081E0809308011F910F91089560E0E5
:100200008DE00E9424031092070110920601E2CFB4
:10021000809100010E94520320910801892B49F42A
:10022000223051F38091700081608093700082E0F1
:10023000E1CF222309F3809170008E7F80937000BC
:10024000109289001092880010928B0010928A0000
:100250001092B3001092B400CFCF1F920F920FB63E
:100260000F9211248F939F93809108018130A1F404
:1002700080910D0190910E019093890080938800E8
:1002800080910D0190910E0190938B0080938A00D4
:100290001092B3001092B40080910801823081F472
:1002A000109289001092880010928B0010928A00A0
:1002B00080910D018093B30080910D018093B40073
:1002C0009F918F910F900FBE0F901F901895A1E8EE
:1002D000B0E08C9181608C938C918D7F8C938C910C
:1002E0008B7F8C93E0E8F0E080818F7B808380813E
:1002F0008068808380818F7E80838081806280831C
:1003000080818160808380818D7F80838C91877FD5
:100310008C938C918F7E8C930895A1EBB0E08C919F
:1003200081608C938C918D7F8C938C918B7F8C933F
:10033000E0EBF0E080818F7B808380818068808328
:1003400080818F7E808380818062808380818160D4
:10035000808380818D7F80838C91877F8C930895AB
:1003600062E0809102010E94E80262E08091000157
:100370000E94E80261E08BE00E94E80261E083E015
:100380000E94E80261E085E00E94E80261E086E008
:100390000E94E8020E948D010E9467011092B30042
:1003A0001092B400109289001092880010928B0075
:1003B00010928A00089508950E9441020E94DB0174
:1003C0000E94B001C0E0D0E00E94B4002097E1F3A9
:1003D0000E940000F9CF1F920F920FB60F921124C6
:1003E0002F933F938F939F93AF93BF93809114016B
:1003F00090911501A0911601B09117013091130150
:1004000026E0230F2D3768F129E8230F0396A11D5D
:10041000B11D209313018093140190931501A093B3
:100420001601B093170180910F0190911001A091D6
:100430001101B09112010196A11DB11D80930F0110
:1004400090931001A0931101B0931201BF91AF914D
:100450009F918F913F912F910F900FBE0F901F9002
:1004600018950296A11DB11DD4CF2FB7F8946091B5
:1004700014017091150180911601909117012FBF01
:100480000895789484B5836084BD85B5836085BD07
:10049000EEE6F0E0808181608083E1E8F0E082E0D8
:1004A0008083808181608083E0E8F0E080818160EA
:1004B0008083E1EBF0E0808184608083E0EBF0E01A
:1004C000808181608083E1E9F0E0808183608083C6
:1004D000E0E9F0E0808181608083E1EAF0E0808102
:1004E00083608083E0EAF0E080818160808386E839
:1004F00080937A001092C1000895883038F092EF0E
:10050000980F9B30D8F08931D8F0835120910401A5
:1005100090E4299F900111248770822B80937C00A6
:1005200080917A00806480937A0080917A0086FDC1
:10053000FCCF80917800909179000895892FE6CFC3
:100540008FEFE4CF82508D3008F03EC0E82FF0E00E
:10055000E455FD4F0C947B03E102E502B902BF02B2
:10056000E402E402C302C902CD02D302E402D702CC
:10057000DD02809180008F778093800008958091C4
:1005800080008F7DF9CF8091B0008F778093B0008D
:1005900008958091B0008F7DF9CF809190008F7782
:1005A000809390000895809190008F7DF9CF809185
:1005B000A0008F778093A00008958091A0008F7D88
:1005C000F9CF84B58F7784BD089584B58F7DFBCF37
:1005D000CF93DF9390E0FC01E153FF4F24918651CC
:1005E0009F4FFC0184918823C9F090E0880F991FE8
:1005F000FC01E35EFE4FA591B491FC01EF5EFE4F5E
:10060000C591D49161110DC09FB7F8948C9120953C
:1006100082238C938881282328839FBFDF91CF91E9
:100620000895623051F49FB7F8943C91822F8095E1
:1006300083238C93E8812E2BEFCF8FB7F894EC9126
:100640002E2B2C938FBFEACF1F93CF93DF93282FAE
:1006500030E0F901EC54FF4F8491F901E153FF4F71
:10066000D491F901E651FF4FC491CC23A9F0162F84
:1006700081110E94A202EC2FF0E0EE0FFF1FEF5E4F
:10068000FE4FA591B4918FB7F894EC91111108C069
:10069000D095DE23DC938FBFDF91CF911F9108951A
:1006A000DE2BF8CFCF93DF93282F30E0F901EC5405
:1006B000FF4F8491F901E153FF4FD491F901E651C5
:1006C000FF4FC491CC23A1F081110E94A202EC2F14
:1006D000F0E0EE0FFF1FEB5FFE4FA591B491EC91A0
:1006E000ED2381E090E009F480E0DF91CF9108955F
:1006F00080E090E0FACFEE0FFF1F0590F491E02D1F
:0C0700000994F894FFCF050004000100EC
:107E000001C0B7C0112484B790E89093610010922C
:107E10006100882361F0982F9A70923041F081FFC1
:107E200002C097EF94BF282E80E0C6D0E9C085E05D
:107E30008093810082E08093C80088E18093C9002C
:107E400080E18093CC0086E08093CA008EE0B4D0BD
:107E5000259A84E028E13EEF91E03093850020935D
:107E6000840096BBB09BFECF1D9AA8954091C80098
:107E700047FD02C0815089F793D0813479F490D0C6
:107E8000182FA0D0123811F480E004C088E0113817
:107E900009F083E07ED080E17CD0EECF823419F40B
:107EA00084E198D0F8CF853411F485E0FACF853598
:107EB00041F476D0C82F74D0D82FCC0FDD1F82D0DC
:107EC000EACF863519F484E085D0DECF843691F58B
:107ED00067D066D0F82E64D0D82E00E011E05801AB
:107EE0008FEFA81AB80A5CD0F80180838501FA10D8
:107EF000F6CF68D0F5E4DF1201C0FFCF50E040E0DC
:107F000063E0CE0136D08E01E0E0F1E06F0182E067
:107F1000C80ED11C4081518161E0C8012AD00E5F9A
:107F20001F4FF601FC10F2CF50E040E065E0CE01BB
:107F300020D0B1CF843771F433D032D0F82E30D086
:107F400041D08E01F80185918F0123D0FA94F11070
:107F5000F9CFA1CF853739F435D08EE11AD085E934
:107F600018D086E197CF813509F0A9CF88E024D0D9
:107F7000A6CFFC010A0167BFE895112407B600FCF3
:107F8000FDCF667029F0452B19F481E187BFE89594
:107F900008959091C80095FFFCCF8093CE0008957E
:107FA0008091C80087FFFCCF8091C80084FD01C08C
:107FB000A8958091CE000895E0E6F0E098E19083E6
:107FC00080830895EDDF803219F088E0F5DFFFCF80
:107FD00084E1DFCFCF93C82FE3DFC150E9F7CF9122
:027FE000F1CFDF
:027FFE00000879
:00000001FF
