:100000000C94E2000C940A010C940A010C940A016D
:100010000C940A010C940A010C940A010C940A0134
:100020000C940A010C94B9070C940A010C940A016F
:100030000C940A010C940A010C940A010C940A0114
:100040000C94F8050C940A010C9468060C94420672
:100050000C940A010C940A010C940A010C940A01F4
:100060000C949A060C940A0100060C13191F252BF8
:1000700032383E444A50565B61676D72787D8388A2
:100080008D92979CA1A6ABAFB4B8BCC0C4C8CCD06D
:10009000D3D7DADDE0E3E6E8EBEDEFF1F3F5F6F8E0
:1000A000F9FAFBFCFDFDFEFEFEFEFEFDFDFCFBFA8B
:1000B000F9F8F6F5F3F1EFEDEBE8E6E3E0DDDAD79A
:1000C000D3D0CCC8C4C0BCB8B4AFABA6A19C9792E7
:1000D0008D88837D78726D67615B56504A443E38E7
:1000E000322B251F19130C0600060C13191F252B84
:1000F00032383E444A50565B61676D72787D838822
:100100008D92979CA1A6ABAFB4B8BCC0C4C8CCD0EC
:10011000D3D7DADDE0E3E6E8EBEDEFF1F3F5F6F85F
:10012000F9FAFBFCFDFDFEFEFEFEFEFDFDFCFBFA0A
:10013000F9F8F6F5F3F1EFEDEBE8E6E3E0DDDAD719
:10014000D3D0CCC8C4C0BCB8B4AFABA6A19C979266
:100150008D88837D78726D67615B56504A443E3866
:10016000322B251F19130C06000000002400270065
:100170002A0000000000250028002B0000000000DD
:1001800023002600290004040404040404040202D9
:100190000202020203030303030301020408102006
:1001A0004080010204081020010204081020000011
:1001B0000008000201000003040700000000000026
:1001C0000000610811241FBECFEFD8E0DEBFCDBF15
:1001D00011E0A0E0B1E0E2EFFAE102C005900D927B
:1001E000AE34B107D9F722E0AEE4B1E001C01D9210
:1001F000AE3DB207E1F710E0C2EED0E004C02197B7
:10020000FE010E94710DC13ED107C9F70E94AA08E4
:100210000C94770D0C94000080E480937C00809116
:100220007A00806480937A0080917A0086FDFCCF0A
:1002300080917800909179000895833081F028F4BE
:10024000813099F08230A9F008958730A9F0883084
:10025000C9F08430B1F4809180008F7D03C080911B
:1002600080008F7780938000089584B58F7784BD58
:10027000089584B58F7DFBCF8091B0008F778093F8
:10028000B00008958091B0008F7DF9CFCF93DF93B8
:10029000282F30E0F901E255FE4F8491F901E6562E
:1002A000FE4FD491F901EA57FE4FC491CC23A1F03F
:1002B00081110E941D01EC2FF0E0EE0FFF1FE458AA
:1002C000FE4FA591B491EC91ED2381E090E009F40B
:1002D00080E0DF91CF91089580E090E0FACF1F9306
:1002E000CF93DF93282F30E0F901E255FE4F849140
:1002F000F901E656FE4FD491F901EA57FE4FC49139
:10030000CC23A9F0162F81110E941D01EC2FF0E0E3
:10031000EE0FFF1FEE58FE4FA591B4918FB7F894E2
:10032000EC91111108C0D095DE23DC938FBFDF91D3
:10033000CF911F910895DE2BF8CFCF93DF9390E0FC
:10034000FC01E656FE4F24918A579E4FFC01849192
:100350008823D1F090E0880F991FFC01E859FE4FE7
:10036000A591B491FC01EE58FE4FC591D491623035
:1003700071F49FB7F8943C91822F809583238C93DE
:10038000E8812E2B28839FBFDF91CF9108958FB7EF
:10039000F894EC912E2B2C938FBFF6CF3FB7F894A7
:1003A0008091240290912502A0912602B09127020B
:1003B00026B5A89B05C02F3F19F00196A11DB11DC0
:1003C0003FBFBA2FA92F982F8827BC01CD01620FFC
:1003D000711D811D911D42E0660F771F881F991FB7
:1003E0004A95D1F708958F929F92AF92BF92CF9284
:1003F000DF92EF92FF924B015C010E94CE016B01F4
:100400007C010E94CE016C197D098E099F09683E0E
:10041000734081059105A8F321E0821A9108A10893
:10042000B10888EEC80E83E0D81EE11CF11C8114CF
:100430009104A104B10429F7FF90EF90DF90CF90D1
:10044000BF90AF909F908F9008952FB7F8946091D0
:1004500020027091210280912202909123022FBFED
:10046000089508950895AF92BF92CF92DF92EF92D0
:10047000FF920F931F93CF93DF936C017B018B014E
:10048000040F151FEB015E01AE18BF08C017D1079E
:1004900059F06991D601ED91FC910190F081E02D28
:1004A000C6010995892B79F7C501DF91CF911F917D
:1004B0000F91FF90EF90DF90CF90BF90AF90089595
:1004C000FC01538D448D252F30E0842F90E0821B5A
:1004D000930B541710F0CF96089501970895FC01DF
:1004E000918D828D981761F0A28DAE0FBF2FB11D37
:1004F0005D968C91928D9F5F9F73928F90E008958F
:100500008FEF9FEF0895FC01918D828D981731F048
:10051000828DE80FF11D858D90E008958FEF9FEF9C
:100520000895FC01918D228D892F90E0805C9F4F72
:10053000821B91098F739927089588E292E00E94A7
:10054000910221E0892B09F420E0822F089580E0B8
:1005500090E0892B29F00E949D0281110C940000EB
:100560000895FC01A48DA80FB92FB11DA35ABF4F48
:100570002C91848D90E001968F739927848FA689A2
:10058000B7892C93A089B1898C91837080648C93F6
:10059000938D848D981306C00288F389E02D8081A5
:1005A0008F7D80830895EF92FF920F931F93CF93D7
:1005B000DF93EC0181E0888F9B8D8C8D98131AC09E
:1005C000E889F989808185FF15C09FB7F894EE8985
:1005D000FF896083E889F9898081837080648083E2
:1005E0009FBF81E090E0DF91CF911F910F91FF902D
:1005F000EF900895F62E0B8D10E00F5F1F4F0F73D5
:100600001127E02E8C8D8E110CC00FB607FCFACF8F
:10061000E889F989808185FFF5CFCE010E94B1027A
:10062000F1CFEB8DEC0FFD2FF11DE35AFF4FF08260
:100630009FB7F8940B8FEA89FB8980818062CFCFC6
:10064000CF93DF93EC01888D8823B9F0AA89BB8909
:10065000E889F9898C9185FD03C0808186FD0DC0F4
:100660000FB607FCF7CF8C9185FFF2CF808185FF15
:10067000EDCFCE010E94B102E9CFDF91CF91089575
:100680002091BC01260F3327331F21323105ECF4B2
:100690002091E001FC0190E080E0243069F082E0EC
:1006A0000895A091BC012191AC0144565E4FA40F66
:1006B000B52FB11D2C930196861798F38091BC013C
:1006C000680F6093BC0180E0089581E00895109266
:1006D000E00181E08093E2011092E10161E082E1BA
:1006E0000E946F0161E083E10E946F01E9EBF0E09D
:1006F00080818E7F808380818D7F808388E480935A
:10070000B80085E48093BC000895CF93DF9391E017
:1007100090939B018823B9F0C091B800D091BA00A2
:100720008091BC008A7B8093BC0060E082E10E94E3
:100730006F0160E083E10E946F010E946703D09324
:10074000BA00C093B800DF91CF9108950895E09169
:100750000D0280910C02E81730F4F0E0EA58FE4FE9
:10076000808190E008958FEF9FEF089590910D02A2
:1007700080910C022FEF3FEF981748F4E92FF0E03B
:10078000EA58FE4F208130E09F5F90930D02C9012F
:10079000089580910C0290910D02891B990B089588
:1007A000CF92DF92EF92FF920F931F93CF93DF933D
:1007B0007C01CB018A0120917501222389F0EB0194
:1007C0006B01C40ED51ECC15DD0569F06991D7010A
:1007D000ED91FC910190F081E02DC7010995F3CFD7
:1007E000642F0E944003C801DF91CF911F910F91A8
:1007F000FF90EF90DF90CF900895CF93DF931F92FB
:10080000CDB7DEB76983209175012223F9F02091DD
:100810000A02203258F021E030E0FC0133832283C9
:1008200090E080E00F90DF91CF91089580910B02CE
:10083000E82FF0E0EB5AFE4F998190838F5F809311
:100840000B0280930A0281E090E0ECCF61E0CE01E0
:1008500001960E944003F7CFCF92DF92EF92FF9272
:100860000F931F93CF93DF93FC01C48121E020936A
:100870007501C093540110920B0210920A028485F4
:10088000682B85EC92E00E94FD03D0910A02D132E0
:1008900008F092C00E94CE016B017C018091E001C2
:1008A000811165C082E08093E00181E08093E201E4
:1008B0008FEF8093DF0110920402D0930302A5E52D
:1008C000B1E0E3EEF1E080E0D81385C010920502BC
:1008D00080910502CC0FC82BC09305028091E101E5
:1008E000813009F07CC01092E1010E94CE016B01C1
:1008F0007C01809105028093BB00809197019091CB
:100900009801A0919901B0919A01892B8A2B8B2B88
:1009100099F00E94CE0100919701109198012091C9
:10092000990130919A016C197D098E099F0906176A
:10093000170728073907E0F18091BC0083FDD9CF64
:1009400085EC8093BC000E94CE016B017C018091FC
:10095000E001823009F445C08091DF018F3F61F1F1
:100960008091DF01803241F18091DF0125C08091CB
:10097000970190919801A0919901B0919A01892BCA
:100980008A2B8B2B09F48ACF0E94CE01009197010C
:10099000109198012091990130919A016C197D096B
:1009A0008E099F09061717072807390708F076CF21
:1009B000809196010E94850310920B0210920A0208
:1009C00010927501DF91CF911F910F91FF90EF90E1
:1009D000DF90CF9008959D9191938F5F75CF85EEB5
:1009E000B0CF8091970190919801A0919901B09119
:1009F0009A01892B8A2B8B2B09F4A9CF0E94CE0157
:100A000000919701109198012091990130919A01DC
:100A10006C197D098E099F090617170728073907E2
:100A200008F095CFC5CF089590E080E00895CF936A
:100A3000DF93C0E7D0E028812E7F288360930001F8
:100A40007093010180930201909303016091000172
:100A500070910101809102019091030120E030E04A
:100A600040E85BE40E94040D27E139E145EF52E4E0
:100A70000E94D50B0E94470C60930E0270930F02E8
:100A80008093100290931102888181608883DF91A6
:100A9000CF910895FC0101900020E9F73197AF0153
:100AA000481B590BBC0181ED92E00C9433020F936B
:100AB0001F93CF938C01C62F0E942C046C2F64606F
:100AC000C8010E942C046C2F6B7FC8010E942C046B
:100AD00083EC90E00197F1F7CF911F910F9108956A
:100AE0000F931F93CF93DF938C01D62FC42F607F7A
:100AF000642B0E94570580E1D89FB00111246C2B14
:100B0000C801DF91CF911F910F910C945705CF939E
:100B1000DF93CDB7DEB728970FB6F894DEBF0FBED0
:100B2000CDBF98E0E4E0F1E0DE01119601900D9276
:100B30009A95E1F79091D902961708F46FEF262F56
:100B400030E0220F331F41E050E04C0F5D1F240FB7
:100B5000351FF9016081680F606840E081ED92E027
:100B600028960FB6F894DEBF0FBECDBFDF91CF91B0
:100B70000C94700541E00E94700581E090E00895BA
:100B800085ED8093BC008091970190919801A09190
:100B90009901B0919A010796A11DB11D23E0B69568
:100BA000A795979587952A95D1F72091BC0024FDAC
:100BB00003C01092E001089540919701509198016F
:100BC0006091990170919A01452B462B472B69F34F
:100BD0000097A105B10541F02AE22A95F1F700C07E
:100BE0000197A109B109E1CF809196010C94850389
:100BF0001F920F920FB60F9211242F933F938F9352
:100C00009F93AF93BF938091200290912102A09176
:100C10002202B091230230911F0223E0230F2D37CF
:100C200058F50196A11DB11D20931F02809320024B
:100C300090932102A0932202B09323028091240278
:100C400090912502A0912602B09127020196A11D44
:100C5000B11D8093240290932502A0932602B093A5
:100C60002702BF91AF919F918F913F912F910F904C
:100C70000FBE0F901F90189526E8230F0296A11D16
:100C8000B11DD2CF1F920F920FB60F9211242F9346
:100C90003F934F935F936F937F938F939F93AF9304
:100CA000BF93EF93FF9388E292E00E94B102FF911D
:100CB000EF91BF91AF919F918F917F916F915F91D4
:100CC0004F913F912F910F900FBE0F901F9018954D
:100CD0001F920F920FB60F9211242F938F939F9311
:100CE000EF93FF93E0913802F09139028081E09117
:100CF0003E02F0913F0282FD1BC090818091410233
:100D00008F5F8F7320914202821741F0E091410280
:100D1000F0E0E85DFD4F958F80934102FF91EF91E8
:100D20009F918F912F910F900FBE0F901F9018954C
:100D30008081F4CF1F920F920FB60F9211242F9340
:100D40003F934F935F936F937F938F939F93AF9353
:100D5000BF93EF93FF938091B900887F803609F4A9
:100D60004AC0F0F5883209F4A7C018F5803109F4BB
:100D70009BC0B8F4882309F4F9C0883009F494C002
:100D8000FF91EF91BF91AF919F918F917F916F9163
:100D90005F914F913F912F910F900FBE0F901F9039
:100DA0001895883109F488C0803251F78093DF01AB
:100DB00014C0803409F49DC040F48033B9F3883303
:100DC000F9F68093DF0185ECB0C0803509F485C069
:100DD000883509F496C0883499F60E94C005D0CFB2
:100DE000883909F48CC038F5883729F050F48836F2
:100DF00011F0803729F683E08093E0011092DE0144
:100E000057C0883809F47BC0803919F0803809F060
:100E1000B7CF8091DE01803208F071C0E091DE0131
:100E200081E08E0F8093DE018091BB00F0E0E25400
:100E3000FE4F80833DC0803B39F0E0F4803A09F4F6
:100E400079C0883A09F09CCF84E08093E001109249
:100E5000BD011092BC01E0910802F09109020995D0
:100E60008091BC0181110FC081E08093BC01109280
:100E70009C0109C0803C09F4A6CF883C09F4A3CFAB
:100E8000883B09F07DCFE091BD0181E08E0F80931A
:100E9000BD01F0E0E456FE4F80818093BB0090914D
:100EA000BD018091BC0129C0809105028093BB00E7
:100EB00085EC8093BC0064CF909104028091030282
:100EC000981758F5E091040281E08E0F8093040298
:100ED000F0E0ED51FE4F8081E9CFE091040281E026
:100EE0008E0F809304028091BB00F0E0ED51FE4F25
:100EF000808390910402809103029817C8F285E8DC
:100F0000D8CFE091040281E08E0F8093040280919B
:100F1000BB00F0E0ED51FE4F80838091E201811132
:100F20005CCF81E08093E10184EA8093BC00109261
:100F3000E00126CF85EC8093BC001092E001809107
:100F4000DE01803230F4E091DE01F0E0E254FE4F49
:100F500010826091DE0170E0E0910602F0910702DC
:100F60008EEB91E009951092DE010ACF1092DF011D
:100F700034CF1F920F920FB60F9211244F935F93AD
:100F80006F937F938F939F93AF93BF93EF93FF9351
:100F90008091500190915101A0915201B091530163
:100FA00040910E0250910F02609110027091110257
:100FB000840F951FA61FB71F809350019093510176
:100FC000A0935201B093530180915001909151012F
:100FD000A0915201B09153018B2F9927AA27BB27CB
:100FE000FC01E859FF4F87FD3BC0E491F0E0EB3F87
:100FF000F10578F5F0934F01E0934E0180914E0199
:1010000090914F01049730F484E090E090934F0169
:1010100080934E01109289001092880010928B00EC
:1010200010928A0080914E01825087BD80914E01BE
:101030008E5F88BDFF91EF91BF91AF919F918F918E
:101040007F916F915F914F910F900FBE0F901F9006
:1010500018958AEF90E090934F0180934E01CECF88
:10106000E491F0E0EB3FF10528F5F0934F01E093B8
:101070004E0180914E0190914F01049730F484E02D
:1010800090E090934F0180934E0117BC18BC809163
:101090004E0190914F0102979093890080938800B0
:1010A00080914E0190914F01029690938B00809316
:1010B0008A00C0CF8AEF90E090934F0180934E0159
:1010C000D8CFE8E2F2E01382128288EE93E0A0E04B
:1010D000B0E084839583A683B78320E131E0318338
:1010E000208325EC30E03587248724EC30E03787F7
:1010F000268720EC30E0318B208B21EC30E0338BE5
:10110000228B22EC30E0358B248B26EC30E0378BC1
:10111000268B118E128E138E148EE5ECF2E0138264
:10112000128284839583A683B78382E291E09183C0
:101130008083E1EDF2E01382128284E391E09183F7
:101140008083118687E2848380E1828782E08387BF
:1011500014860895CF93DF93CDB7DEB7A1970FB66E
:10116000F894DEBF0FBECDBF789484B5826084BD95
:1011700084B5816084BD85B5826085BD85B581609B
:1011800085BD80916E00816080936E001092810019
:1011900080918100826080938100809181008160D4
:1011A0008093810080918000816080938000809195
:1011B000B10084608093B1008091B0008160809321
:1011C000B00080917A00846080937A0080917A00E8
:1011D000826080937A0080917A00816080937A00A7
:1011E00080917A00806880937A001092C100E0912B
:1011F0003802F091390282E08083E0913402F0916C
:1012000035021082E0913602F09137028FEC808334
:1012100010924002E0913C02F0913D0286E0808312
:10122000E0913A02F0913B02808180618083E091FD
:101230003A02F0913B02808188608083E0913A021B
:10124000F0913B02808180688083E0913A02F091C6
:101250003B0280818F7D808361E089E00E949D0157
:1012600061E08AE00E949D0161E08BE00E949D01A7
:1012700061E086E00E949D0161E085E00E949D01A1
:1012800062E082E00E949D0162E083E00E949D0195
:101290008091B10081608093B1008091B1008D7F19
:1012A0008093B1008091B1008B7F8093B1008091D9
:1012B000B0008F7B8093B0008091B00080688093F5
:1012C000B0008091B00080618093B0008091B00048
:1012D00080628093B0008091B00081608093B00004
:1012E0008091B0008D7F8093B0008091B100877FA6
:1012F0008093B10080917000816080937000809134
:101300008100816080938100809181008D7F809336
:101310008100809181008B7F80938100809180008B
:101320008F7B809380008091800080688093800014
:101330008091800080618093800080918000806235
:1013400080938000809180008160809380008091F4
:1013500080008D7F8093800080918100877F8093C3
:101360008100809181008F7E8093810085B58160AE
:1013700085BD85B58D7F85BD85B58B7F85BD84B5E4
:101380008F7B84BD84B5806884BD84B5806184BD55
:1013900084B5806284BD84B5816084BD84B58D7F51
:1013A00084BD85B5877F85BD809170008E7F8093D9
:1013B000700010920D0210920C0210920B0210920B
:1013C0000A020E94670381E392E0909309028093EE
:1013D000080282E392E09093070280930602109243
:1013E000D6028091DC02823018F098E09093D60209
:1013F0008093D90262E370E080E090E00E94F30104
:101400006091DD0281ED92E00E942C0468EE73E0B1
:1014100080E090E00E94F30160E381ED92E00E94A1
:1014200057050BE416E4C8010197F1F760E381ED7D
:1014300092E00E945705C8010197F1F760E381ED42
:1014400092E00E94570583E592E00197F1F760E290
:1014500081ED92E00E9457056091D602606240E003
:1014600081ED92E00E94700584E08093D70240E015
:101470006CE081ED92E00E94700540E061E081ED5A
:1014800092E00E9470058BE39FE10197F1F7809154
:10149000DA02882321F060E080E00E94870582E084
:1014A0008093D80240E066E081ED92E00E947005F2
:1014B00040E062E081ED92E00E9470058BE39FE1E5
:1014C0000197F1F788E08093DD0260E081ED92E022
:1014D0000E942C0460E082E00E9487058CE391E08A
:1014E0000E944A0561E085E00E9487058BE491E057
:1014F0000E944A05609100017091010180910201F2
:101500009091030120E030E040E85BE40E94040D8C
:1015100027E139E145EF52E40E94D50B0E94470CC8
:1015200060930E0270930F02809310029093110249
:1015300088248A9483E0982EA12CB12C9AE0492E1D
:10154000512C612C712C20E0222E20E0322E0E94A2
:101550002502693C71058105910508F44CC00E9483
:101560000C010E940C019C01A3E6B0E00E94C60B96
:10157000A50194010E94850B30931E0220931D0249
:1015800060E082E00E9487058CE391E00E944A05BA
:1015900061E085E00E9487058BE491E00E944A05A6
:1015A00061E081E00E94870520911D0230911E02BA
:1015B00050E040E019A28E010F5D1F4FCA01B90132
:1015C000A30192010E94A40B605DF80162938F0158
:1015D000211531054105510589F7309761F00190DA
:1015E0000020E9F73197AF01401B510BB80181EDA5
:1015F00092E00E94330280911C02813009F076C093
:1016000060911D0270911E0280911A0290911B023E
:101610006817790751F070931B0260931A0290E0EB
:1016200080E00E94760C0E94170582E00E9446012D
:10163000892B69F50E9425026B017C01C09216027C
:10164000D0921702E0921802F092190282E00E94F2
:101650004601892BD9F30E9425026C197D098E0958
:101660009F09653671058105910588F081E08093B9
:101670001C0260911D0270911E0270931B02609308
:101680001A0290E080E00E94760C0E94170583E029
:101690000E944601892BF1F40E9425026B017C0116
:1016A000C0921202D0921302E0921402F09215023C
:1016B00083E00E944601892BD9F30E9425026C1910
:1016C0007D098E099F09653671058105910510F028
:1016D00010921C022114310409F439CF0E949D029A
:1016E000882309F434CF0E94000031CF81119DCFAF
:1016F00010927000109289001092880010928B0056
:1017000010928A0017BC18BC90CF052E97FB1EF4D0
:1017100000940E949C0B57FD07D00E94A40B07FC6D
:1017200003D04EF40C949C0B509540953095219528
:101730003F4F4F4F5F4F08959095809570956195FD
:101740007F4F8F4F9F4F0895A1E21A2EAA1BBB1BFC
:10175000FD010DC0AA1FBB1FEE1FFF1FA217B3077D
:10176000E407F50720F0A21BB30BE40BF50B661F93
:10177000771F881F991F1A9469F760957095809557
:1017800090959B01AC01BD01CF010895A29FB001CE
:10179000B39FC001A39F700D811D1124911DB29FA5
:1017A000700D811D1124911D08950E94E90B0C9468
:1017B000CA0C0E94C30C58F00E94BC0C40F029F4E3
:1017C0005F3F29F00C94B30C51110C94FE0C0C9457
:1017D000B90C0E94DB0C68F39923B1F3552391F304
:1017E000951B550BBB27AA2762177307840738F090
:1017F0009F5F5F4F220F331F441FAA1FA9F335D0ED
:101800000E2E3AF0E0E832D091505040E695001CA0
:10181000CAF72BD0FE2F29D0660F771F881FBB1F5A
:10182000261737074807AB07B0E809F0BB0B802D38
:10183000BF01FF2793585F4F3AF09E3F510578F064
:101840000C94B30C0C94FE0C5F3FE4F3983ED4F37D
:10185000869577956795B795F7959F5FC9F7880F38
:10186000911D9695879597F90895E1E0660F771F8A
:10187000881FBB1F621773078407BA0720F0621B1B
:10188000730B840BBA0BEE1F88F7E09508950E9446
:10189000E30C88F09F5798F0B92F9927B751B0F013
:1018A000E1F0660F771F881F991F1AF0BA95C9F7E4
:1018B00014C0B13091F00E94FD0CB1E008950C9479
:1018C000FD0C672F782F8827B85F39F0B93FCCF32C
:1018D000869577956795B395D9F73EF49095809561
:1018E000709561957F4F8F4F9F4F0895E89409C081
:1018F00097FB3EF490958095709561957F4F8F4F43
:101900009F4F9923A9F0F92F96E9BB279395F69558
:10191000879577956795B795F111F8CFFAF4BB0FD6
:1019200011F460FF1BC06F5F7F4F8F4F9F4F16C03A
:10193000882311F096E911C0772321F09EE8872FC4
:10194000762F05C0662371F096E8862F70E060E080
:101950002AF09A95660F771F881FDAF7880F9695F9
:10196000879597F9089597F99F6780E870E060E0A0
:1019700008959FEF80EC089500240A941616170628
:1019800018060906089500240A9412161306140670
:1019900005060895092E0394000C11F4882352F0D3
:1019A000BB0F40F4BF2B11F460FF04C06F5F7F4F8B
:1019B0008F4F9F4F089557FD9058440F551F59F072
:1019C0005F3F71F04795880F97FB991F61F09F3F2C
:1019D00079F087950895121613061406551FF2CF55
:1019E0004695F1DF08C0161617061806991FF1CFA5
:1019F00086957105610508940895E894BB276627CC
:101A00007727CB0197F908950E94170D0C94CA0C03
:101A10000E94BC0C38F00E94C30C20F0952311F0FA
:101A20000C94B30C0C94B90C11240C94FE0C0E9471
:101A3000DB0C70F3959FC1F3950F50E0551F629F2B
:101A4000F001729FBB27F00DB11D639FAA27F00D17
:101A5000B11DAA1F649F6627B00DA11D661F829F3E
:101A60002227B00DA11D621F739FB00DA11D621F23
:101A7000839FA00D611D221F749F3327A00D611D40
:101A8000231F849F600D211D822F762F6A2F112422
:101A90009F5750409AF0F1F088234AF0EE0FFF1F55
:101AA000BB1F661F771F881F91505040A9F79E3FAC
:101AB000510580F00C94B30C0C94FE0C5F3FE4F3E2
:101AC000983ED4F3869577956795B795F795E79502
:101AD0009F5FC1F7FE2B880F911D9695879597F90B
:101AE0000895EE0FFF1F0590F491E02D0994F894EE
:021AF000FFCF26
:101AF2000000803F0000400014005400000000007D
:101B0200D30233026002200391026F0283020000BB
:101B12000000FD03D0031405A603C903B603A703FF
:101B220000000000BA0533021405130554414E208B
:0E1B3200534F204341492044415400487A005B
:00000001FF
