:020000040000FA
:100000000C94E2000C940A010C940A010C940A016D
:100010000C940A010C940A010C940A010C940A0134
:100020000C940A010C94B9070C940A010C940A016F
:100030000C940A010C940A010C940A010C940A0114
:100040000C94F8050C940A010C9468060C94420672
:100050000C940A010C940A010C940A010C940A01F4
:100060000C949A060C940A0100060C13191F252BF8
:1000700032383E444A50565B61676D72787D8388A2
:100080008D92979CA1A6ABAFB4B8BCC0C4C8CCD06D
:10009000D3D7DADDE0E3E6E8EBEDEFF1F3F5F6F8E0
:1000A000F9FAFBFCFDFDFEFEFEFEFEFDFDFCFBFA8B
:1000B000F9F8F6F5F3F1EFEDEBE8E6E3E0DDDAD79A
:1000C000D3D0CCC8C4C0BCB8B4AFABA6A19C9792E7
:1000D0008D88837D78726D67615B56504A443E38E7
:1000E000322B251F19130C0600060C13191F252B84
:1000F00032383E444A50565B61676D72787D838822
:100100008D92979CA1A6ABAFB4B8BCC0C4C8CCD0EC
:10011000D3D7DADDE0E3E6E8EBEDEFF1F3F5F6F85F
:10012000F9FAFBFCFDFDFEFEFEFEFEFDFDFCFBFA0A
:10013000F9F8F6F5F3F1EFEDEBE8E6E3E0DDDAD719
:10014000D3D0CCC8C4C0BCB8B4AFABA6A19C979266
:100150008D88837D78726D67615B56504A443E3866
:10016000322B251F19130C06000000002400270065
:100170002A0000000000250028002B0000000000DD
:1001800023002600290004040404040404040202D9
:100190000202020203030303030301020408102006
:1001A0004080010204081020010204081020000011
:1001B0000008000201000003040700000000000026
:1001C0000000820811241FBECFEFD8E0DEBFCDBFF4
:1001D00011E0A0E0B1E0E4E3FBE102C005900D9284
:1001E000A035B107D9F722E0A0E5B1E001C01D922A
:1001F000A13EB207E1F710E0C2EED0E004C02197C3
:10020000FE010E94920DC13ED107C9F70E94CB08A2
:100210000C94980D0C94000080E480937C008091F5
:100220007A00806480937A0080917A0086FDFCCF0A
:1002300080917800909179000895833081F028F4BE
:10024000813099F08230A9F008958730A9F0883084
:10025000C9F08430B1F4809180008F7D03C080911B
:1002600080008F7780938000089584B58F7784BD58
:10027000089584B58F7DFBCF8091B0008F778093F8
:10028000B00008958091B0008F7DF9CFCF93DF93B8
:10029000282F30E0F901E255FE4F8491F901E6562E
:1002A000FE4FD491F901EA57FE4FC491CC23A1F03F
:1002B00081110E941D01EC2FF0E0EE0FFF1FE458AA
:1002C000FE4FA591B491EC91ED2381E090E009F40B
:1002D00080E0DF91CF91089580E090E0FACF1F9306
:1002E000CF93DF93282F30E0F901E255FE4F849140
:1002F000F901E656FE4FD491F901EA57FE4FC49139
:10030000CC23A9F0162F81110E941D01EC2FF0E0E3
:10031000EE0FFF1FEE58FE4FA591B4918FB7F894E2
:10032000EC91111108C0D095DE23DC938FBFDF91D3
:10033000CF911F910895DE2BF8CFCF93DF9390E0FC
:10034000FC01E656FE4F24918A579E4FFC01849192
:100350008823D1F090E0880F991FFC01E859FE4FE7
:10036000A591B491FC01EE58FE4FC591D491623035
:1003700071F49FB7F8943C91822F809583238C93DE
:10038000E8812E2B28839FBFDF91CF9108958FB7EF
:10039000F894EC912E2B2C938FBFF6CF3FB7F894A7
:1003A0008091270290912802A0912902B0912A02FF
:1003B00026B5A89B05C02F3F19F00196A11DB11DC0
:1003C0003FBFBA2FA92F982F8827BC01CD01620FFC
:1003D000711D811D911D42E0660F771F881F991FB7
:1003E0004A95D1F708958F929F92AF92BF92CF9284
:1003F000DF92EF92FF924B015C010E94CE016B01F4
:100400007C010E94CE016C197D098E099F09683E0E
:10041000734081059105A8F321E0821A9108A10893
:10042000B10888EEC80E83E0D81EE11CF11C8114CF
:100430009104A104B10429F7FF90EF90DF90CF90D1
:10044000BF90AF909F908F9008952FB7F8946091D0
:1004500023027091240280912502909126022FBFE1
:10046000089508950895AF92BF92CF92DF92EF92D0
:10047000FF920F931F93CF93DF936C017B018B014E
:10048000040F151FEB015E01AE18BF08C017D1079E
:1004900059F06991D601ED91FC910190F081E02D28
:1004A000C6010995892B79F7C501DF91CF911F917D
:1004B0000F91FF90EF90DF90CF90BF90AF90089595
:1004C000FC01538D448D252F30E0842F90E0821B5A
:1004D000930B541710F0CF96089501970895FC01DF
:1004E000918D828D981761F0A28DAE0FBF2FB11D37
:1004F0005D968C91928D9F5F9F73928F90E008958F
:100500008FEF9FEF0895FC01918D828D981731F048
:10051000828DE80FF11D858D90E008958FEF9FEF9C
:100520000895FC01918D228D892F90E0805C9F4F72
:10053000821B91098F73992708958BE292E00E94A4
:10054000910221E0892B09F420E0822F089580E0B8
:1005500090E0892B29F00E949D0281110C940000EB
:100560000895FC01A48DA80FB92FB11DA35ABF4F48
:100570002C91848D90E001968F739927848FA689A2
:10058000B7892C93A089B1898C91837080648C93F6
:10059000938D848D981306C00288F389E02D8081A5
:1005A0008F7D80830895EF92FF920F931F93CF93D7
:1005B000DF93EC0181E0888F9B8D8C8D98131AC09E
:1005C000E889F989808185FF15C09FB7F894EE8985
:1005D000FF896083E889F9898081837080648083E2
:1005E0009FBF81E090E0DF91CF911F910F91FF902D
:1005F000EF900895F62E0B8D10E00F5F1F4F0F73D5
:100600001127E02E8C8D8E110CC00FB607FCFACF8F
:10061000E889F989808185FFF5CFCE010E94B1027A
:10062000F1CFEB8DEC0FFD2FF11DE35AFF4FF08260
:100630009FB7F8940B8FEA89FB8980818062CFCFC6
:10064000CF93DF93EC01888D8823B9F0AA89BB8909
:10065000E889F9898C9185FD03C0808186FD0DC0F4
:100660000FB607FCF7CF8C9185FFF2CF808185FF15
:10067000EDCFCE010E94B102E9CFDF91CF91089575
:100680002091BF01260F3327331F21323105ECF4AF
:100690002091E301FC0190E080E0243069F082E0E9
:1006A0000895A091BF012191AC0141565E4FA40F66
:1006B000B52FB11D2C930196861798F38091BF0139
:1006C000680F6093BF0180E0089581E00895109263
:1006D000E30181E08093E5011092E40161E082E1B1
:1006E0000E946F0161E083E10E946F01E9EBF0E09D
:1006F00080818E7F808380818D7F808388E480935A
:10070000B80085E48093BC000895CF93DF9391E017
:1007100090939E018823B9F0C091B800D091BA009F
:100720008091BC008A7B8093BC0060E082E10E94E3
:100730006F0160E083E10E946F010E946703D09324
:10074000BA00C093B800DF91CF9108950895E09169
:10075000100280910F02E81730F4F0E0E758FE4FE6
:10076000808190E008958FEF9FEF0895909110029F
:1007700080910F022FEF3FEF981748F4E92FF0E038
:10078000E758FE4F208130E09F5F90931002C9012F
:10079000089580910F0290911002891B990B089582
:1007A000CF92DF92EF92FF920F931F93CF93DF933D
:1007B0007C01CB018A0120917801222389F0EB0191
:1007C0006B01C40ED51ECC15DD0569F06991D7010A
:1007D000ED91FC910190F081E02DC7010995F3CFD7
:1007E000642F0E944003C801DF91CF911F910F91A8
:1007F000FF90EF90DF90CF900895CF93DF931F92FB
:10080000CDB7DEB76983209178012223F9F02091DA
:100810000D02203258F021E030E0FC0133832283C6
:1008200090E080E00F90DF91CF91089580910E02CB
:10083000E82FF0E0E85AFE4F998190838F5F809314
:100840000E0280930D0281E090E0ECCF61E0CE01DA
:1008500001960E944003F7CFCF92DF92EF92FF9272
:100860000F931F93CF93DF93FC01C48121E020936A
:100870007801C093570110920E0210920D028485E8
:10088000682B88EC92E00E94FD03D0910D02D132DA
:1008900008F092C00E94CE016B017C018091E301BF
:1008A000811165C082E08093E30181E08093E501DE
:1008B0008FEF8093E20110920702D0930602A8E521
:1008C000B1E0E6EEF1E080E0D81385C010920802B6
:1008D00080910802CC0FC82BC09308028091E401DC
:1008E000813009F07CC01092E4010E94CE016B01BE
:1008F0007C01809108028093BB0080919A019091C5
:100900009B01A0919C01B0919D01892B8A2B8B2B7F
:1009100099F00E94CE0100919A0110919B012091C3
:100920009C0130919D016C197D098E099F09061764
:10093000170728073907E0F18091BC0083FDD9CF64
:1009400085EC8093BC000E94CE016B017C018091FC
:10095000E301823009F445C08091E2018F3F61F1EB
:100960008091E201803241F18091E20125C08091C5
:100970009A0190919B01A0919C01B0919D01892BBE
:100980008A2B8B2B09F48ACF0E94CE0100919A0109
:1009900010919B0120919C0130919D016C197D0962
:1009A0008E099F09061717072807390708F076CF21
:1009B000809199010E94850310920E0210920D02FF
:1009C00010927801DF91CF911F910F91FF90EF90DE
:1009D000DF90CF9008959D9191938F5F75CF85EEB5
:1009E000B0CF80919A0190919B01A0919C01B09110
:1009F0009D01892B8A2B8B2B09F4A9CF0E94CE0154
:100A000000919A0110919B0120919C0130919D01D0
:100A10006C197D098E099F090617170728073907E2
:100A200008F095CFC5CF089590E080E00895CF936A
:100A3000DF93C0E7D0E028812E7F288360930101F7
:100A4000709302018093030190930401609101016E
:100A500070910201809103019091040120E030E047
:100A600040E85BE40E94250D2DE33AE045EF51E4B8
:100A70000E94F60B0E94680C6093110270931202A0
:100A80008093130290931402888181608883DF91A0
:100A9000CF910895FC0101900020E9F73197AF0153
:100AA000481B590BBC0184ED92E00C9433020F9368
:100AB0001F93CF938C01C62F0E942C046C2F64606F
:100AC000C8010E942C046C2F6B7FC8010E942C046B
:100AD00083EC90E00197F1F7CF911F910F9108956A
:100AE0000F931F93CF93DF938C01D62FC42F607F7A
:100AF000642B0E94570580E1D89FB00111246C2B14
:100B0000C801DF91CF911F910F910C945705CF939E
:100B1000DF93CDB7DEB728970FB6F894DEBF0FBED0
:100B2000CDBF98E0E5E0F1E0DE01119601900D9275
:100B30009A95E1F79091DC02961708F46FEF262F53
:100B400030E0220F331F41E050E04C0F5D1F240FB7
:100B5000351FF9016081680F606840E084ED92E024
:100B600028960FB6F894DEBF0FBECDBFDF91CF91B0
:100B70000C94700541E00E94700581E090E00895BA
:100B800085ED8093BC0080919A0190919B01A0918A
:100B90009C01B0919D010796A11DB11D23E0B69562
:100BA000A795979587952A95D1F72091BC0024FDAC
:100BB00003C01092E301089540919A0150919B0166
:100BC00060919C0170919D01452B462B472B69F349
:100BD0000097A105B10541F02AE22A95F1F700C07E
:100BE0000197A109B109E1CF809199010C94850386
:100BF0001F920F920FB60F9211242F933F938F9352
:100C00009F93AF93BF938091230290912402A09170
:100C10002502B09126023091220223E0230F2D37C6
:100C200058F50196A11DB11D209322028093230245
:100C300090932402A0932502B0932602809127026C
:100C400090912802A0912902B0912A020196A11D3B
:100C5000B11D8093270290932802A0932902B0939C
:100C60002A02BF91AF919F918F913F912F910F9049
:100C70000FBE0F901F90189526E8230F0296A11D16
:100C8000B11DD2CF1F920F920FB60F9211242F9346
:100C90003F934F935F936F937F938F939F93AF9304
:100CA000BF93EF93FF938BE292E00E94B102FF911A
:100CB000EF91BF91AF919F918F917F916F915F91D4
:100CC0004F913F912F910F900FBE0F901F9018954D
:100CD0001F920F920FB60F9211242F938F939F9311
:100CE000EF93FF93E0913B02F0913C028081E09111
:100CF0004102F091420282FD1BC09081809144022A
:100D00008F5F8F7320914502821741F0E09144027A
:100D1000F0E0E55DFD4F958F80934402FF91EF91E8
:100D20009F918F912F910F900FBE0F901F9018954C
:100D30008081F4CF1F920F920FB60F9211242F9340
:100D40003F934F935F936F937F938F939F93AF9353
:100D5000BF93EF93FF938091B900887F803609F4A9
:100D60004AC0F0F5883209F4A7C018F5803109F4BB
:100D70009BC0B8F4882309F4F9C0883009F494C002
:100D8000FF91EF91BF91AF919F918F917F916F9163
:100D90005F914F913F912F910F900FBE0F901F9039
:100DA0001895883109F488C0803251F78093E201A8
:100DB00014C0803409F49DC040F48033B9F3883303
:100DC000F9F68093E20185ECB0C0803509F485C066
:100DD000883509F496C0883499F60E94C005D0CFB2
:100DE000883909F48CC038F5883729F050F48836F2
:100DF00011F0803729F683E08093E3011092E1013E
:100E000057C0883809F47BC0803919F0803809F060
:100E1000B7CF8091E101803208F071C0E091E1012B
:100E200081E08E0F8093E1018091BB00F0E0EF53F1
:100E3000FE4F80833DC0803B39F0E0F4803A09F4F6
:100E400079C0883A09F09CCF84E08093E301109246
:100E5000C0011092BF01E0910B02F0910C020995C4
:100E60008091BF0181110FC081E08093BF0110927A
:100E70009F0109C0803C09F4A6CF883C09F4A3CFA8
:100E8000883B09F07DCFE091C00181E08E0F809317
:100E9000C001F0E0E156FE4F80818093BB0090914D
:100EA000C0018091BF0129C0809108028093BB00DE
:100EB00085EC8093BC0064CF90910702809106027C
:100EC000981758F5E091070281E08E0F8093070292
:100ED000F0E0EA51FE4F8081E9CFE091070281E026
:100EE0008E0F809307028091BB00F0E0EA51FE4F25
:100EF000808390910702809106029817C8F285E8D6
:100F0000D8CFE091070281E08E0F80930702809195
:100F1000BB00F0E0EA51FE4F80838091E501811132
:100F20005CCF81E08093E40184EA8093BC0010925E
:100F3000E30126CF85EC8093BC001092E301809101
:100F4000E101803230F4E091E101F0E0EF53FE4F37
:100F500010826091E10170E0E0910902F0910A02D3
:100F600081EC91E009951092E1010ACF1092E20123
:100F700034CF1F920F920FB60F9211242F934F93DD
:100F80005F936F937F938F939F93AF93BF93EF93F1
:100F9000FF938091530190915401A0915501B0911C
:100FA000560140911102509112026091130270910A
:100FB0001402840F951FA61FB71F809353019093AF
:100FC0005401A0935501B093560180915301909123
:100FD0005401A0915501B09156018B2F9927AA2752
:100FE000BB27809352012091000187FD4CC0222332
:100FF00051F1109289001092880010928B0010928B
:101000008A0084B58F7B84BD84B5806884BD84B537
:101010008F7E84BD84B5806284BD809180008F7B8B
:1010200080938000809180008F77809380008091F2
:1010300080008F7E80938000809180008F7D8093E0
:10104000800010920001E0915201F0E0E859FF4F5A
:10105000E4918E2F90E09093510180935001E7BD71
:101060008091500188BDFF91EF91BF91AF919F9109
:101070008F917F916F915F914F912F910F900FBE44
:101080000F901F901895211125C017BC18BC84B56E
:101090008F7B84BD84B58F7784BD84B58F7E84BDFE
:1010A00084B58F7D84BD809180008F7B809380008C
:1010B00080918000806880938000809180008F7E86
:1010C000809380008091800080628093800081E026
:1010D00080930001E0915201F0E0E859FF4FE49164
:1010E000F0E0F0935101E0935001F0938900E09318
:1010F0008800809150019091510190938B008093D2
:101100008A00B1CFEBE2F2E01382128288EE93E024
:10111000A0E0B0E084839583A683B78321E131E02A
:101120003183208325EC30E03587248724EC30E0C0
:101130003787268720EC30E0318B208B21EC30E0A4
:10114000338B228B22EC30E0358B248B26EC30E085
:10115000378B268B118E128E138E148EE8ECF2E0F4
:101160001382128284839583A683B78383E291E0FE
:1011700091838083E4EDF2E01382128285E391E0B3
:1011800091838083118687E2848380E1828782E075
:10119000838714860895CF93DF93CDB7DEB7A197E9
:1011A0000FB6F894DEBF0FBECDBF789484B58260D1
:1011B00084BD84B5816084BD85B5826085BD85B5FB
:1011C000816085BD80916E00816080936E00109279
:1011D00081008091810082608093810080918100F4
:1011E0008160809381008091800081608093800085
:1011F0008091B10084608093B1008091B0008160E3
:101200008093B00080917A00846080937A0080910E
:101210007A00826080937A0080917A008160809366
:101220007A0080917A00806880937A001092C100E1
:10123000E0913B02F0913C0282E08083E091370232
:10124000F09138021082E0913902F0913A028FEC6D
:10125000808310924302E0913F02F091400286E0C9
:101260008083E0913D02F0913E0280818061808325
:10127000E0913D02F0913E02808188608083E091A0
:101280003D02F0913E02808180688083E0913D02C2
:10129000F0913E0280818F7D808361E089E00E9431
:1012A0009D0161E08AE00E949D0161E08BE00E9467
:1012B0009D0161E086E00E949D0161E085E00E9461
:1012C0009D0162E082E00E949D0162E083E00E9455
:1012D0009D018091B1008E7F8093B1008091B1001B
:1012E00082608093B1008091B1008B7F8093B100C8
:1012F0008091B0008F7B8093B0008091B0008068B7
:101300008093B0008091B0008F7E8093B000809178
:10131000B00080628093B0008091B00081608093C3
:10132000B0008091B00082608093B0008091B100E5
:10133000877F8093B10080917000816080937000FE
:10134000809181008E7F80938100809181008260F6
:1013500080938100809181008B7F809381008091B8
:1013600080008F7B809380008091800080688093D4
:101370008000809180008F7E80938000809180002B
:1013800080628093800080918000816080938000E3
:10139000809180008D7F8093800080918100877F85
:1013A00080938100809181008F7E8093810085B53C
:1013B0008E7F85BD85B5826085BD85B58B7F85BDFA
:1013C00084B58F7B84BD84B5806884BD84B58F7EF1
:1013D00084BD84B5806284BD84B5816084BD84B5DC
:1013E000826084BD85B5877F85BD809170008E7FCA
:1013F000809370001092100210920F0210920E0251
:1014000010920D020E94670381E392E090930C0218
:1014100080930B0282E392E090930A028093090288
:101420001092D9028091DF02823018F098E09093F8
:10143000D9028093DC0262E370E080E090E00E94D9
:10144000F3016091E00284ED92E00E942C0468EECA
:1014500073E080E090E00E94F30160E384ED92E0AD
:101460000E9457050BE416E4C8010197F1F760E309
:1014700084ED92E00E945705C8010197F1F760E3FF
:1014800084ED92E00E94570583E592E00197F1F721
:1014900060E284ED92E00E9457056091D90260629B
:1014A00040E084ED92E00E94700584E08093DA02CF
:1014B00040E06CE084ED92E00E94700540E061E065
:1014C00084ED92E00E9470058BE39FE10197F1F7B4
:1014D0008091DD02882321F060E080E00E94870592
:1014E00082E08093DB0240E066E084ED92E00E94BF
:1014F000700540E062E084ED92E00E9470058BE3AD
:101500009FE10197F1F788E08093E00260E084EDCD
:1015100092E00E942C0460E082E00E9487058DE347
:1015200091E00E944A0561E085E00E9487058CE415
:1015300091E00E944A056091010170910201809141
:1015400003019091040120E030E040E85BE40E9458
:10155000250D2DE33AE045EF51E40E94F60B0E9481
:10156000680C60931102709312028093130290939F
:10157000140288248A9483E0982EA12CB12C9AE03E
:10158000492E512C612C712C20E0222E20E0322E8D
:101590000E942502693C71058105910508F44CC043
:1015A0000E940C010E940C019C01A3E6B0E00E9485
:1015B000E70BA50194010E94A60B30932102209312
:1015C000200260E082E00E9487058DE391E00E94A6
:1015D0004A0561E085E00E9487058CE491E00E9465
:1015E0004A0561E081E00E94870520912002309148
:1015F000210250E040E019A28E010F5D1F4FCA0189
:10160000B901A30192010E94C50B605DF8016293CC
:101610008F01211531054105510589F7309761F09A
:1016200001900020E9F73197AF01401B510BB80141
:1016300084ED92E00E94330280911F02813009F014
:1016400076C0609120027091210280911D029091DC
:101650001E026817790751F070931E0260931D02F5
:1016600090E080E00E94970C0E94170582E00E94A3
:101670004601892B69F50E9425026B017C01C0920D
:101680001902D0921A02E0921B02F0921C0282E030
:101690000E944601892BD9F30E9425026C197D090D
:1016A0008E099F09653671058105910588F081E0F5
:1016B00080931F02609120027091210270931E029C
:1016C00060931D0290E080E00E94970C0E94170535
:1016D00083E00E944601892BF1F40E9425026B01F0
:1016E0007C01C0921502D0921602E0921702F0928D
:1016F000180283E00E944601892BD9F30E9425023B
:101700006C197D098E099F09653671058105910562
:1017100010F010921F022114310409F439CF0E94F5
:101720009D02882309F434CF0E94000031CF81113B
:101730009DCF109270001092890010928800109234
:101740008B0010928A0017BC18BC90CF052E97FB17
:101750001EF400940E94BD0B57FD07D00E94C50BDC
:1017600007FC03D04EF40C94BD0B5095409530957A
:1017700021953F4F4F4F5F4F0895909580957095FD
:1017800061957F4F8F4F9F4F0895A1E21A2EAA1B9C
:10179000BB1BFD010DC0AA1FBB1FEE1FFF1FA21721
:1017A000B307E407F50720F0A21BB30BE40BF50B1E
:1017B000661F771F881F991F1A9469F760957095A7
:1017C000809590959B01AC01BD01CF010895A29F2A
:1017D000B001B39FC001A39F700D811D1124911D05
:1017E000B29F700D811D1124911D08950E940A0C55
:1017F0000C94EB0C0E94E40C58F00E94DD0C40F0BD
:1018000029F45F3F29F00C94D40C51110C941F0D56
:101810000C94DA0C0E94FC0C68F39923B1F3552365
:1018200091F3951B550BBB27AA27621773078407F3
:1018300038F09F5F5F4F220F331F441FAA1FA9F389
:1018400035D00E2E3AF0E0E832D091505040E69577
:10185000001CCAF72BD0FE2F29D0660F771F881FD8
:10186000BB1F261737074807AB07B0E809F0BB0BCB
:10187000802DBF01FF2793585F4F3AF09E3F5105DF
:1018800078F00C94D40C0C941F0D5F3FE4F3983E59
:10189000D4F3869577956795B795F7959F5FC9F7C8
:1018A000880F911D9695879597F90895E1E0660F49
:1018B000771F881FBB1F621773078407BA0720F0C2
:1018C000621B730B840BBA0BEE1F88F7E09508952B
:1018D0000E94040D88F09F5798F0B92F9927B751AF
:1018E000B0F0E1F0660F771F881F991F1AF0BA95C4
:1018F000C9F714C0B13091F00E941E0DB1E00895F7
:101900000C941E0D672F782F8827B85F39F0B93FE8
:10191000CCF3869577956795B395D9F73EF4909576
:101920008095709561957F4F8F4F9F4F0895E894F4
:1019300009C097FB3EF490958095709561957F4F17
:101940008F4F9F4F9923A9F0F92F96E9BB279395C5
:10195000F695879577956795B795F111F8CFFAF4D5
:10196000BB0F11F460FF1BC06F5F7F4F8F4F9F4F06
:1019700016C0882311F096E911C0772321F09EE864
:10198000872F762F05C0662371F096E8862F70E0CA
:1019900060E02AF09A95660F771F881FDAF7880FA4
:1019A0009695879597F9089597F99F6780E870E075
:1019B00060E008959FEF80EC089500240A941616C5
:1019C000170618060906089500240A94121613062D
:1019D000140605060895092E0394000C11F48823BB
:1019E00052F0BB0F40F4BF2B11F460FF04C06F5FD7
:1019F0007F4F8F4F9F4F089557FD9058440F551FAD
:101A000059F05F3F71F04795880F97FB991F61F080
:101A10009F3F79F087950895121613061406551FF7
:101A2000F2CF4695F1DF08C0161617061806991F63
:101A3000F1CF86957105610508940895E894BB2758
:101A400066277727CB0197F908950E94380D0C94EB
:101A5000EB0C0E94DD0C38F00E94E40C20F0952382
:101A600011F00C94D40C0C94DA0C11240C941F0D6E
:101A70000E94FC0C70F3959FC1F3950F50E0551F29
:101A8000629FF001729FBB27F00DB11D639FAA27D3
:101A9000F00DB11DAA1F649F6627B00DA11D661F22
:101AA000829F2227B00DA11D621F739FB00DA11D43
:101AB000621F839FA00D611D221F749F3327A00DFD
:101AC000611D231F849F600D211D822F762F6A2F99
:101AD00011249F5750409AF0F1F088234AF0EE0FFE
:101AE000FF1FBB1F661F771F881F91505040A9F72B
:101AF0009E3F510580F00C94D40C0C941F0D5F3F59
:101B0000E4F3983ED4F3869577956795B795F79566
:101B1000E7959F5FC1F7FE2B880F911D96958795DE
:101B200097F90895EE0FFF1F0590F491E02D0994A9
:101B3000F894FFCF010000803F00004000140054E3
:101B40000000000000D30233026002200391026F04
:101B500002830200000000FD03D0031405A603C9A0
:101B600003B603A70300000000BA053302140513EF
:101B70000554414E20534F204341492044415400D5
:041B8000487A00009F
:107800000C94343C0C94513C0C94513C0C94513CE1
:107810000C94513C0C94513C0C94513C0C94513CB4
:107820000C94513C0C94513C0C94513C0C94513CA4
:107830000C94513C0C94513C0C94513C0C94513C94
:107840000C94513C0C94513C0C94513C0C94513C84
:107850000C94513C0C94513C0C94513C0C94513C74
:107860000C94513C0C94513C11241FBECFEFD8E036
:10787000DEBFCDBF11E0A0E0B1E0ECE9FFE702C060
:1078800005900D92A230B107D9F712E0A2E0B1E065
:1078900001C01D92AD30B107E1F70E942D3D0C945F
:1078A000CC3F0C94003C982F959595959595959582
:1078B000905D8F708A307CF0282F295A8091C0000B
:1078C00085FFFCCF9093C6008091C00085FFFCCF60
:1078D0002093C6000895282F205DF0CF982F809127
:1078E000C00085FFFCCF9093C6000895EF92FF92F1
:1078F0000F931F93EE24FF2487018091C00087FD22
:1079000017C00894E11CF11C011D111D81E4E8164B
:1079100082E4F8068FE0080780E0180770F3E09132
:107920000401F091050109958091C00087FFE9CF1E
:107930008091C6001F910F91FF90EF9008950E94D3
:10794000763C982F8091C00085FFFCCF9093C600B5
:1079500091362CF490330CF09053892F089597555D
:10796000892F08951F930E949F3C182F0E949F3CCF
:107970001295107F810F1F9108951F93182F882350
:1079800021F00E94763C1150E1F71F9108951F935A
:10799000182F0E94763C803249F0809103018F5F5E
:1079A000809303018530C1F01F9108958091C0003C
:1079B00085FFFCCF84E18093C6008091C00085FFE5
:1079C000FCCF1093C6008091C00085FFFCCF80E102
:1079D0008093C6001F910895E0910401F091050184
:1079E00009951F9108950E94763C803241F0809164
:1079F00003018F5F80930301853081F008958091AA
:107A0000C00085FFFCCF84E18093C6008091C00058
:107A100085FFFCCF80E18093C6000895E0910401CA
:107A2000F09105010995089540E951E08823A1F0FE
:107A30002D9A28EE33E0FA013197F1F721503040CA
:107A4000D1F72D9828EE33E0FA013197F1F7215064
:107A50003040D1F7815061F708953F924F925F9285
:107A60006F927F928F929F92AF92BF92CF92DF924E
:107A7000EF92FF920F931F93CF93DF93000080E16B
:107A80008093C4001092C50088E18093C10086E015
:107A90008093C2005098589A259A81E00E94143D24
:107AA00024E1F22E9EE1E92E85E9D82E0FE0C02ECA
:107AB00010E1B12EAA24A394B1E49B2EA6E58A2E50
:107AC000F2E57F2EE0E26E2E79E4572E63E5462E36
:107AD00050E5352E0E94763C8033B1F18133B9F107
:107AE000803409F46FC0813409F476C0823409F41B
:107AF00085C0853409F488C0803531F1823521F1A3
:107B0000813511F1853509F485C0863509F48DC0BC
:107B1000843609F496C0843709F403C1853709F423
:107B200072C1863709F466C0809103018F5F80932C
:107B30000301853079F6E0910401F0910501099582
:107B40000E94763C803351F60E94F33CC3CF0E94E2
:107B5000763C803249F78091C00085FFFCCFF092DF
:107B6000C6008091C00085FFFCCF9092C600809136
:107B7000C00085FFFCCF8092C6008091C00085FFC9
:107B8000FCCF7092C6008091C00085FFFCCF609250
:107B9000C6008091C00085FFFCCF5092C600809146
:107BA000C00085FFFCCF4092C6008091C00085FFD9
:107BB000FCCF3092C6008091C00085FFFCCFB09210
:107BC000C60088CF0E94763C863808F4BDCF0E945C
:107BD000763C0E94F33C7ECF0E94763C803809F4CC
:107BE0009CC0813809F40BC1823809F43CC1883942
:107BF00009F48FC080E00E94C73C6CCF84E10E94F2
:107C0000BD3C0E94F33C66CF85E00E94BD3C0E94D3
:107C1000F33C60CF0E94763C809306010E94763C44
:107C2000809307010E94F33C55CF0E94763C80333D
:107C300009F41DC183E00E94BD3C80E00E94C73C66
:107C400049CF0E94763C809309020E94763C809343
:107C5000080280910C028E7F80930C020E94763C79
:107C6000853409F415C18091080290910902892B8D
:107C700089F000E010E00E94763CF801E85FFE4FDA
:107C800080830F5F1F4F80910802909109020817AF
:107C9000190788F30E94763C803209F045CF809125
:107CA0000C0280FF01C16091060170910701660F0F
:107CB000771F7093070160930601A0910802B091AD
:107CC00009021097C9F0E8E0F1E09B01AD014E0F09
:107CD0005F1FF999FECF32BD21BD819180BDFA9A17
:107CE000F99A2F5F3F4FE417F50799F76A0F7B1F4B
:107CF00070930701609306018091C00085FFFCCF5F
:107D0000F092C6008091C00085FFFCCFB092C60003
:107D1000E1CE83E00E94C73CDDCE82E00E94C73CFA
:107D2000D9CE0E94763C809309020E94763C8093D3
:107D300008028091060190910701880F991F909386
:107D40000701809306010E94763C853409F4A6C0A1
:107D500080910C028E7F80930C020E94763C8032D0
:107D600009F0B8CE8091C00085FFFCCFF092C6002C
:107D7000609108027091090261157105B9F140E046
:107D800050E080910C02A82FA170B82FB27011C0E2
:107D9000BB2309F45CC0E0910601F0910701319624
:107DA000F0930701E09306014F5F5F4F46175707B7
:107DB000E8F4AA2369F3F999FECF209106013091E6
:107DC000070132BD21BDF89A90B58091C00085FFB2
:107DD000FCCF9093C6002F5F3F4F30930701209355
:107DE00006014F5F5F4F4617570718F38091C00099
:107DF00085FDE5CE8091C00085FFF8CFE0CE81E023
:107E00000E94C73C67CE0E94763C803209F08CCE3F
:107E10008091C00085FFFCCFF092C6008091C00029
:107E200085FFFCCFE092C6008091C00085FFFCCFAB
:107E3000D092C6008091C00085FFFCCFC092C600E2
:107E40008091C00085FFFCCFB092C60043CEE09188
:107E50000601F091070194918091C00085FFFCCF4D
:107E60009093C6009CCF80E10E94C73C33CE0E9415
:107E7000763C0E94763C182F0E94763C112309F430
:107E800083C0113009F484C08FE00E94C73C22CE29
:107E900080910C02816080930C02E5CE80910C02EF
:107EA000816080930C0259CF809107018823880F4D
:107EB000880B8A2180930B02809106019091070123
:107EC000880F991F90930701809306018091080203
:107ED00080FF09C080910802909109020196909359
:107EE000090280930802F894F999FECF1127E091D6
:107EF0000601F0910701C8E0D1E08091080290915D
:107F00000902103091F40091570001700130D9F34B
:107F100003E000935700E89500915700017001308D
:107F2000D9F301E100935700E89509901990009169
:107F3000570001700130D9F301E000935700E89534
:107F40001395103498F011270091570001700130FB
:107F5000D9F305E000935700E895009157000170B0
:107F60000130D9F301E100935700E895329602976A
:107F700009F0C7CF103011F00296E5CF112480919F
:107F8000C00085FFB9CEBCCE8EE10E94C73CA2CD19
:0E7F900085E90E94C73C9ECDF894FFCF80008B
:00000001FF
