:100000000C94E2000C940A010C940A010C940A016D
:100010000C940A010C940A010C940A010C940A0134
:100020000C940A010C94A0050C940A010C940A018A
:100030000C940A010C940A010C940A010C940A0114
:100040000C94E3030C940A010C9453040C942D04B7
:100050000C940A010C940A010C940A010C940A01F4
:100060000C9485040C940A0100060C13191F252B0F
:1000700032383E444A50565B61676D72787D8388A2
:100080008D92979CA1A6ABAFB4B8BCC0C4C8CCD06D
:10009000D3D7DADDE0E3E6E8EBEDEFF1F3F5F6F8E0
:1000A000F9FAFBFCFDFDFEFEFEFEFEFDFDFCFBFA8B
:1000B000F9F8F6F5F3F1EFEDEBE8E6E3E0DDDAD79A
:1000C000D3D0CCC8C4C0BCB8B4AFABA6A19C9792E7
:1000D0008D88837D78726D67615B56504A443E38E7
:1000E000322B251F19130C0600060C13191F252B84
:1000F00032383E444A50565B61676D72787D838822
:100100008D92979CA1A6ABAFB4B8BCC0C4C8CCD0EC
:10011000D3D7DADDE0E3E6E8EBEDEFF1F3F5F6F85F
:10012000F9FAFBFCFDFDFEFEFEFEFEFDFDFCFBFA0A
:10013000F9F8F6F5F3F1EFEDEBE8E6E3E0DDDAD719
:10014000D3D0CCC8C4C0BCB8B4AFABA6A19C979266
:100150008D88837D78726D67615B56504A443E3866
:10016000322B251F19130C06000000002400270065
:100170002A0000000000250028002B0000000000DD
:1001800023002600290004040404040404040202D9
:100190000202020203030303030301020408102006
:1001A0004080010204081020010204081020000011
:1001B0000008000201000003040700000000000026
:1001C0000000180611241FBECFEFD8E0DEBFCDBF60
:1001D00011E0A0E0B1E0EAE4F4E102C005900D9284
:1001E000A631B107D9F722E0A6E1B1E001C01D9226
:1001F000A434B207E1F710E0C2EED0E004C02197CA
:10020000FE010E941D0AC13ED107C9F70E944506A2
:100210000C94230A0C94000080E480937C0080916D
:100220007A00806480937A0080917A0086FDFCCF0A
:1002300080917800909179000895833081F028F4BE
:10024000813099F08230A9F008958730A9F0883084
:10025000C9F08430B1F4809180008F7D03C080911B
:1002600080008F7780938000089584B58F7784BD58
:10027000089584B58F7DFBCF8091B0008F778093F8
:10028000B00008958091B0008F7DF9CFCF93DF93B8
:10029000282F30E0F901E255FE4F8491F901E6562E
:1002A000FE4FD491F901EA57FE4FC491CC23A1F03F
:1002B00081110E941D01EC2FF0E0EE0FFF1FE458AA
:1002C000FE4FA591B491EC91ED2381E090E009F40B
:1002D00080E0DF91CF91089580E090E0FACF1F9306
:1002E000CF93DF93282F30E0F901E255FE4F849140
:1002F000F901E656FE4FD491F901EA57FE4FC49139
:10030000CC23A9F0162F81110E941D01EC2FF0E0E3
:10031000EE0FFF1FEE58FE4FA591B4918FB7F894E2
:10032000EC91111108C0D095DE23DC938FBFDF91D3
:10033000CF911F910895DE2BF8CFCF93DF9390E0FC
:10034000FC01E656FE4F24918A579E4FFC01849192
:100350008823D1F090E0880F991FFC01E859FE4FE7
:10036000A591B491FC01EE58FE4FC591D491623035
:1003700071F49FB7F8943C91822F809583238C93DE
:10038000E8812E2B28839FBFDF91CF9108958FB7EF
:10039000F894EC912E2B2C938FBFF6CF2FB7F894B7
:1003A0006091A3017091A4018091A5019091A60193
:1003B0002FBF0895AF92BF92CF92DF92EF92FF923C
:1003C0000F931F93CF93DF936C017B018B01040F7D
:1003D000151FEB015E01AE18BF08C017D10759F019
:1003E0006991D601ED91FC910190F081E02DC6015B
:1003F0000995892B79F7C501DF91CF911F910F9155
:10040000FF90EF90DF90CF90BF90AF900895FC01E8
:10041000538D448D252F30E0842F90E0821B930B69
:10042000541710F0CF96089501970895FC01918D0F
:10043000828D981761F0A28DAE0FBF2FB11D5D9612
:100440008C91928D9F5F9F73928F90E008958FEFB4
:100450009FEF0895FC01918D828D981731F0828D68
:10046000E80FF11D858D90E008958FEF9FEF0895BF
:10047000FC01918D228D892F90E0805C9F4F821B23
:1004800091098F739927089587EA91E00E943802B5
:1004900021E0892B09F420E0822F089580E090E08C
:1004A000892B29F00E94440281110C9400000895C8
:1004B000FC01A48DA80FB92FB11DA35ABF4F2C91D9
:1004C000848D90E001968F739927848FA689B789D0
:1004D0002C93A089B1898C91837080648C93938DC7
:1004E000848D981306C00288F389E02D80818F7D6A
:1004F00080830895EF92FF920F931F93CF93DF9322
:10050000EC0181E0888F9B8D8C8D98131AC0E8894F
:10051000F989808185FF15C09FB7F894EE89FF891E
:100520006083E889F98980818370806480839FBFBC
:1005300081E090E0DF91CF911F910F91FF90EF90BC
:100540000895F62E0B8D10E00F5F1F4F0F731127CC
:10055000E02E8C8D8E110CC00FB607FCFACFE88907
:10056000F989808185FFF5CFCE010E945802F1CF35
:10057000EB8DEC0FFD2FF11DE35AFF4FF0829FB77B
:10058000F8940B8FEA89FB8980818062CFCFCF936B
:10059000DF93EC01888D8823B9F0AA89BB89E889AB
:1005A000F9898C9185FD03C0808186FD0DC00FB651
:1005B00007FCF7CF8C9185FFF2CF808185FFEDCFCF
:1005C000CE010E945802E9CFDF91CF91089520918A
:1005D0004301260F3327331F21323105ECF42091DC
:1005E0006701FC0190E080E0243069F082E008952A
:1005F000A09143012191AC014D5D5E4FA40FB52F39
:10060000B11D2C930196861798F380914301680FD2
:100610006093430180E0089581E0089508958FEF8D
:100620009FEF08958FEF9FEF089580911C0190E058
:100630009195819591090895CF93DF93CB01EA01BC
:10064000642F0E94E702CE01DF91CF910895CF93EE
:10065000DF931F92CDB7DEB7698361E0CE010196CB
:100660000E94E70281E090E00F90DF91CF91089522
:1006700090E080E00895CF93DF93C0E7D0E0288139
:100680002E7F288360930001709301018093020103
:10069000909303016091000170910101809102012A
:1006A0009091030120E030E040E85BE40E94B00953
:1006B00027E139E145EF52E40E9481080E94F308E6
:1006C00060938D0170938E0180938F0190939001C0
:1006D000888181608883DF91CF9108951F93CF93A4
:1006E000DF9385ED8093BC0080911F0190912001E4
:1006F000A0912101B09122010796A11DB11D23E017
:10070000B695A795979587952A95D1F72091BC0026
:1007100024FD03C01092670152C040911F01509107
:1007200020016091210170912201452B462B472B1E
:1007300069F30097A105B10541F02AE22A95F1F786
:1007400000C00197A109B109E1CF80911E01C1E06C
:10075000C0931D01882399F1D091B8001091BA007F
:100760008091BC008A7B8093BC0060E082E10E94A3
:100770006F0160E083E10E946F0110926701C093F6
:1007800069011092680161E082E10E946F0161E0FD
:1007900083E10E946F018091B9008E7F8093B90040
:1007A0008091B9008D7F8093B90088E48093B80070
:1007B00085E48093BC001093BA00D093B800DF9119
:1007C000CF911F9108951F920F920FB60F9211248F
:1007D0002F933F938F939F93AF93BF938091A301E8
:1007E0009091A401A091A501B091A6013091A20120
:1007F00023E0230F2D3758F50196A11DB11D20933D
:10080000A2018093A3019093A401A093A501B093AA
:10081000A60180919E0190919F01A091A001B091AD
:10082000A1010196A11DB11D80939E0190939F018E
:10083000A093A001B093A101BF91AF919F918F911F
:100840003F912F910F900FBE0F901F90189526E8A3
:10085000230F0296A11DB11DD2CF1F920F920FB68A
:100860000F9211242F933F934F935F936F937F9336
:100870008F939F93AF93BF93EF93FF9387EA91E09A
:100880000E945802FF91EF91BF91AF919F918F917C
:100890007F916F915F914F913F912F910F900FBE7C
:1008A0000F901F9018951F920F920FB60F92112460
:1008B0002F938F939F93EF93FF93E091B701F09164
:1008C000B8018081E091BD01F091BE0182FD1BC0A5
:1008D00090818091C0018F5F8F732091C101821739
:1008E00041F0E091C001F0E0E955FE4F958F809313
:1008F000C001FF91EF919F918F912F910F900FBEAB
:100900000F901F9018958081F4CF1F920F920FB611
:100910000F9211242F933F934F935F936F937F9385
:100920008F939F93AF93BF93EF93FF938091B90001
:10093000887F803609F44AC0F0F5883209F4A5C0F2
:1009400018F5803109F499C0B8F4882309F4F5C08A
:10095000883009F492C0FF91EF91BF91AF919F91C0
:100960008F917F916F915F914F913F912F910F9058
:100970000FBE0F901F901895883109F486C0803201
:1009800051F78093660114C0803409F49BC040F491
:100990008033B9F38833F9F68093660185ECAEC0F5
:1009A000803509F483C0883509F494C0883499F6F9
:1009B0000E946E03D0CF883909F48AC038F5883791
:1009C00029F050F4883611F0803729F683E08093BF
:1009D00067011092650155C0883809F479C08039E3
:1009E00019F0803809F0B7CF80916501803208F0A6
:1009F0006FC0E091650181E08E0F80936501809169
:100A0000BB00F0E0EB5BFE4F80833BC0803B39F0E6
:100A1000D0F4803A09F477C0883A09F09CCF84E09A
:100A2000809367011092440110924301F0E0E0E0EE
:100A300009958091430181110FC081E080934301AA
:100A40001092230109C0803C09F4A8CF883C09F426
:100A5000A5CF883B09F07FCFE091440181E08E0F64
:100A600080934401F0E0ED5DFE4F80818093BB00F8
:100A7000909144018091430129C080918C01809321
:100A8000BB0085EC8093BC0066CF90918B01809178
:100A90008A01981758F5E0918B0181E08E0F8093C1
:100AA0008B01F0E0E659FE4F8081E9CFE0918B01A8
:100AB00081E08E0F80938B018091BB00F0E0E659BE
:100AC000FE4F808390918B0180918A019817C8F224
:100AD00085E8D8CFE0918B0181E08E0F80938B0168
:100AE0008091BB00F0E0E659FE4F80838091690160
:100AF00081115ECF81E08093680184EA8093BC001D
:100B00001092670128CF85EC8093BC00109267019A
:100B100080916501803230F4E0916501F0E0EB5B9B
:100B2000FE4F10826091650170E085E491E0F0E095
:100B3000E0E00995109265010ECF1092660138CF62
:100B40001F920F920FB60F9211244F935F936F93E2
:100B50007F938F939F93AF93BF93EF93FF93809176
:100B6000180190911901A0911A01B0911B014091B7
:100B70008D0150918E0160918F0170919001840FD1
:100B8000951FA61FB71F8093180190931901A0937A
:100B90001A01B0931B018091180190911901A09145
:100BA0001A01B0911B018B2F9927AA27BB27FC01A3
:100BB000E859FF4F87FD23C0E491F0E0F09317015F
:100BC000E0931601109289001092880010928B0019
:100BD00010928A008091160187BD8091160188BD10
:100BE000FF91EF91BF91AF919F918F917F916F9105
:100BF0005F914F910F900FBE0F901F901895E49149
:100C0000F0E0F0931701E093160117BC18BC809137
:100C1000160190911701909389008093880080912C
:100C200016019091170190938B0080938A00D8CF82
:100C3000E7EAF1E01382128288EE93E0A0E0B0E0F0
:100C400084839583A683B78388E091E09183808332
:100C500085EC90E09587848784EC90E09787868781
:100C600080EC90E0918B808B81EC90E0938B828B79
:100C700082EC90E0958B848B86EC90E0978B868B52
:100C8000118E128E138E148E0895789484B582601E
:100C900084BD84B5816084BD85B5826085BD85B520
:100CA000816085BD80916E00816080936E0010929E
:100CB0008100809181008260809381008091810019
:100CC00081608093810080918000816080938000AA
:100CD0008091B10084608093B1008091B000816008
:100CE0008093B00080917A00846080937A00809134
:100CF0007A00826080937A0080917A00816080938C
:100D00007A0080917A00806880937A001092C10006
:100D1000E091B701F091B80182E08083E091B301E6
:100D2000F091B4011082E091B501F091B6018FEC21
:100D300080831092BF01E091BB01F091BC0186E07D
:100D40008083E091B901F091BA0180818061808354
:100D5000E091B901F091BA01808188608083E091CF
:100D6000B901F091BA01808180688083E091B90176
:100D7000F091BA0180818F7D808361E089E00E94DB
:100D80009D0161E08AE00E949D0161E08BE00E948C
:100D90009D0161E086E00E949D0161E085E00E9486
:100DA0009D0162E082E00E949D0162E083E00E947A
:100DB0009D018091B10081608093B1008091B1006C
:100DC0008D7F8093B1008091B1008B7F8093B100C3
:100DD0008091B0008F7B8093B0008091B0008068DC
:100DE0008093B0008091B00080618093B0008091CA
:100DF000B00080628093B0008091B00081608093E9
:100E0000B0008091B0008D7F8093B0008091B100E0
:100E1000877F8093B1008091700081608093700023
:100E200080918100816080938100809181008D7F1D
:100E300080938100809181008B7F809381008091DD
:100E400080008F7B809380008091800080688093F9
:100E50008000809180008F7E809380008091800050
:100E60008062809380008091800081608093800008
:100E7000809180008D7F8093800080918100877FAA
:100E800080938100809181008F7E8093810085B561
:100E9000816085BD85B58D7F85BD85B58B7F85BD21
:100EA00084B58F7B84BD84B5806884BD84B58F7E16
:100EB00084BD84B5806284BD84B5816084BD84B501
:100EC0008D7F84BD85B5877F85BD809170008E7FC5
:100ED0008093700060910001709101018091020186
:100EE0009091030120E030E040E85BE40E94B0090B
:100EF00027E139E145EF52E40E9481080E94F3089E
:100F000060938D0170938E0180938F019093900177
:100F1000CC24CA9483E0D82EE12CF12CC0E0D0E0A0
:100F200011E00E94CE01693C71058105910588F0B0
:100F30000E940C010E940C019C01A3E6B0E00E94FB
:100F40007208A70196010E94310830939D012093F9
:100F50009C0180919B01813009F074C060919C01DB
:100F600070919D018091990190919A01681779077C
:100F700051F070939A016093990190E080E00E9493
:100F800022090E943B0382E00E944601892B61F501
:100F90000E94CE014B015C018092950190929601D6
:100FA000A0929701B092980182E00E944601892B9D
:100FB000D9F30E94CE01681979098A099B0965361F
:100FC00071058105910580F010939B0160919C0152
:100FD00070919D0170939A016093990190E080E077
:100FE0000E9422090E943B0383E00E944601892B54
:100FF000F1F40E94CE014B015C018092910190922C
:101000009201A0929301B092940183E00E94460164
:10101000892BD9F30E94CE01681979098A099B09A5
:10102000653671058105910510F010929B0120979E
:1010300009F477CF0E944402882309F472CF0E94FA
:1010400000006FCF81119FCF109270001092890025
:101050001092880010928B0010928A0017BC18BC66
:1010600092CF052E97FB1EF400940E94480857FD6E
:1010700007D00E94500807FC03D04EF40C94480897
:1010800050954095309521953F4F4F4F5F4F0895B4
:1010900090958095709561957F4F8F4F9F4F0895E4
:1010A000A1E21A2EAA1BBB1BFD010DC0AA1FBB1F6C
:1010B000EE1FFF1FA217B307E407F50720F0A21BDE
:1010C000B30BE40BF50B661F771F881F991F1A944B
:1010D00069F760957095809590959B01AC01BD0175
:1010E000CF010895A29FB001B39FC001A39F700DCF
:1010F000811D1124911DB29F700D811D1124911D20
:1011000008950E9495080C9476090E946F0958F082
:101110000E94680940F029F45F3F29F00C945F09B0
:1011200051110C94AA090C9465090E94870968F36F
:101130009923B1F3552391F3951B550BBB27AA2790
:1011400062177307840738F09F5F5F4F220F331FCA
:10115000441FAA1FA9F335D00E2E3AF0E0E832D092
:1011600091505040E695001CCAF72BD0FE2F29D095
:10117000660F771F881FBB1F261737074807AB0767
:10118000B0E809F0BB0B802DBF01FF2793585F4FDC
:101190003AF09E3F510578F00C945F090C94AA092F
:1011A0005F3FE4F3983ED4F3869577956795B795BE
:1011B000F7959F5FC9F7880F911D9695879597F9C9
:1011C0000895E1E0660F771F881FBB1F6217730742
:1011D0008407BA0720F0621B730B840BBA0BEE1F57
:1011E00088F7E09508950E948F0988F09F5798F03E
:1011F000B92F9927B751B0F0E1F0660F771F881F1C
:10120000991F1AF0BA95C9F714C0B13091F00E9435
:10121000A909B1E008950C94A909672F782F8827B0
:10122000B85F39F0B93FCCF3869577956795B3955C
:10123000D9F73EF490958095709561957F4F8F4FCB
:101240009F4F0895E89409C097FB3EF490958095D0
:10125000709561957F4F8F4F9F4F9923A9F0F92F7C
:1012600096E9BB279395F695879577956795B795FA
:10127000F111F8CFFAF4BB0F11F460FF1BC06F5FE0
:101280007F4F8F4F9F4F16C0882311F096E911C0F2
:10129000772321F09EE8872F762F05C0662371F013
:1012A00096E8862F70E060E02AF09A95660F771F27
:1012B000881FDAF7880F9695879597F9089597F91B
:1012C0009F6780E870E060E008959FEF80EC0895EC
:1012D00000240A9416161706180609060895002415
:1012E0000A9412161306140605060895092E03948F
:1012F000000C11F4882352F0BB0F40F4BF2B11F403
:1013000060FF04C06F5F7F4F8F4F9F4F089557FD61
:101310009058440F551F59F05F3F71F04795880F63
:1013200097FB991F61F09F3F79F0879508951216FA
:1013300013061406551FF2CF4695F1DF08C01616A6
:1013400017061806991FF1CF869571056105089457
:101350000895E894BB2766277727CB0197F908956E
:101360000E94C3090C9476090E94680938F00E9413
:101370006F0920F0952311F00C945F090C94650916
:1013800011240C94AA090E94870970F3959FC1F358
:10139000950F50E0551F629FF001729FBB27F00D23
:1013A000B11D639FAA27F00DB11DAA1F649F662778
:1013B000B00DA11D661F829F2227B00DA11D621FC7
:1013C000739FB00DA11D621F839FA00D611D221F81
:1013D000749F3327A00D611D231F849F600D211D65
:1013E000822F762F6A2F11249F5750409AF0F1F0E8
:1013F00088234AF0EE0FFF1FBB1F661F771F881F51
:1014000091505040A9F79E3F510580F00C945F0920
:101410000C94AA095F3FE4F3983ED4F38695779540
:101420006795B795F795E7959F5FC1F7FE2B880FF6
:10143000911D9695879597F90895EE0FFF1F0590DA
:0A144000F491E02D0994F894FFCF19
:10144A000000803F000000007A02DA010702C702AA
:06145A00380216022A020E
:00000001FF
