:100000000C94E2000C940A010C940A010C940A016D
:100010000C940A010C940A010C940A010C940A0134
:100020000C940A010C942C090C940A010C940A01FA
:100030000C940A010C940A010C940A010C940A0114
:100040000C946B070C940A010C94DB070C94B50715
:100050000C940A010C940A010C940A010C940A01F4
:100060000C940D080C940A017F8285888B8F9295E1
:10007000989B9EA1A4A7AAADB0B2B5B8BBBEC0C3A1
:10008000C6C8CBCDD0D2D4D7D9DBDDDFE1E3E5E7FD
:10009000E9EAECEEEFF0F2F3F4F5F7F8F9F9FAFB30
:1000A000FCFCFDFDFDFEFEFEFEFEFEFEFDFDFDFC7C
:1000B000FCFBFAF9F9F8F7F5F4F3F2F0EFEEECEAFD
:1000C000E9E7E5E3E1DFDDDBD9D7D4D2D0CDCBC89A
:1000D000C6C3C0BEBBB8B5B2B0ADAAA7A4A19E9B13
:1000E0009895928F8B8885827F7C7976736F6C6907
:1000F0006663605D5A5754514E4C494643403E3BFF
:10010000383633312E2C2A272523211F1D1B191782
:10011000151412100F0E0C0B0A090706050504032F
:1001200002020101010000000000000001010102C3
:1001300002030405050607090A0B0C0E0F10121422
:100140001517191B1D1F212325272A2C2E31333665
:10015000383B3E404346494C4E5154575A5D6063CC
:1001600066696C6F7376797C0000000024002700BC
:100170002A0000000000250028002B0000000000DD
:1001800023002600290004040404040404040202D9
:100190000202020203030303030301020408102006
:1001A0004080010204081020010204081020000011
:1001B0000008000201000003040700000000000026
:1001C0000000940911241FBECFEFD8E0DEBFCDBFE1
:1001D00012E0A0E0B1E0E2EAFAE202C005900D927E
:1001E000A437B107D9F724E0A4E7B2E001C01D921B
:1001F000A831B207E1F710E0C2EED0E004C02197C9
:10020000FE010E944915C13ED107C9F70E94DD09D0
:100210000C944F150C940000833081F028F4813049
:1002200099F08230A9F008958730A9F08830C9F09C
:100230008430B1F4809180008F7D03C08091800074
:100240008F7780938000089584B58F7784BD08955B
:1002500084B58F7DFBCF8091B0008F778093B00005
:1002600008958091B0008F7DF9CFCF93DF93282F31
:1002700030E0F901E255FE4F8491F901E656FE4F58
:10028000D491F901EA57FE4FC491CC23A1F081111A
:100290000E940C01EC2FF0E0EE0FFF1FE458FE4F20
:1002A000A591B491EC91ED2381E090E009F480E018
:1002B000DF91CF91089580E090E0FACF1F93CF9324
:1002C000DF93282F30E0F901E255FE4F8491F901C8
:1002D000E656FE4FD491F901EA57FE4FC491CC2364
:1002E000A9F0162F81110E940C01EC2FF0E0EE0F07
:1002F000FF1FEE58FE4FA591B4918FB7F894EC9183
:10030000111108C0D095DE23DC938FBFDF91CF9110
:100310001F910895DE2BF8CFCF93DF9390E0FC017F
:10032000E656FE4F24918A579E4FFC018491882304
:10033000C9F090E0880F991FFC01E859FE4FA59184
:10034000B491FC01EE58FE4FC591D49161110DC0DE
:100350009FB7F8948C91209582238C9388812823D1
:1003600028839FBFDF91CF910895623051F49FB7EA
:10037000F8943C91822F809583238C93E8812E2BD7
:10038000EFCF8FB7F894EC912E2B2C938FBFEACF41
:100390003FB7F89480915E0390915F03A091600352
:1003A000B091610326B5A89B05C02F3F19F00196B7
:1003B000A11DB11D3FBFBA2FA92F982F8827BC01BF
:1003C000CD01620F711D811D911D42E0660F771FE7
:1003D000881F991F4A95D1F708958F929F92AF92E7
:1003E000BF92CF92DF92EF92FF924B015C010E948D
:1003F000C8016B017C010E94C8016C197D098E093E
:100400009F09683E734081059105A8F321E0821A97
:100410009108A108B10888EEC80E83E0D81EE11C3F
:10042000F11C81149104A104B10429F7FF90EF900D
:10043000DF90CF90BF90AF909F908F9008952FB78F
:10044000F89460915A0370915B0380915C039091E2
:100450005D032FBF089508950895AF92BF92CF9284
:10046000DF92EF92FF920F931F93CF93DF936C0174
:100470007B018B01040F151FEB015E01AE18BF0855
:10048000C017D10759F06991D601ED91FC91019007
:10049000F081E02DC6010995892B79F7C501DF911F
:1004A000CF911F910F91FF90EF90DF90CF90BF9071
:1004B000AF900895FC01538D448D252F30E0842F9B
:1004C00090E0821B930B541710F0CF96089501977C
:1004D0000895FC01918D828D981761F0A28DAE0F69
:1004E000BF2FB11D5D968C91928D9F5F9F73928FF0
:1004F00090E008958FEF9FEF0895FC01918D828D1C
:10050000981731F0828DE80FF11D858D90E00895E8
:100510008FEF9FEF0895FC01918D228D892F90E040
:10052000805C9F4F821B91098F739927089582E603
:1005300093E00E948B0221E0892B09F420E0822FB6
:10054000089580E090E0892B29F00E9497028111A4
:100550000C9400000895FC01A48DA80FB92FB11DC3
:10056000A35ABF4F2C91848D90E001968F739927E9
:10057000848FA689B7892C93A089B1898C918370C7
:1005800080648C93938D848D981306C00288F389C0
:10059000E02D80818F7D80830895EF92FF920F93ED
:1005A0001F93CF93DF93EC0181E0888F9B8D8C8D1F
:1005B00098131AC0E889F989808185FF15C09FB713
:1005C000F894EE89FF896083E889F98980818370D6
:1005D000806480839FBF81E090E0DF91CF911F9185
:1005E0000F91FF90EF900895F62E0B8D10E00F5FA6
:1005F0001F4F0F731127E02E8C8D8E110CC00FB67C
:1006000007FCFACFE889F989808185FFF5CFCE0113
:100610000E94AB02F1CFEB8DEC0FFD2FF11DE35AE1
:10062000FF4FF0829FB7F8940B8FEA89FB89808196
:100630008062CFCFCF93DF93EC01888D8823B9F010
:10064000AA89BB89E889F9898C9185FD03C08081DD
:1006500086FD0DC00FB607FCF7CF8C9185FFF2CF5A
:10066000808185FFEDCFCE010E94AB02E9CFDF9103
:10067000CF9108952091E202260F3327331F2132B4
:100680003105ECF420910603FC0190E080E0243079
:1006900069F082E00895A091E2022191AC014E53ED
:1006A0005D4FA40FB52FB11D2C930196861798F3BB
:1006B0008091E202680F6093E20280E0089581E099
:1006C00008951092060381E08093080310920703B7
:1006D00061E082E10E945E0161E083E10E945E01CF
:1006E000E9EBF0E080818E7F808380818D7F808345
:1006F00088E48093B80085E48093BC000895CF938C
:10070000DF9391E09093C1028823B9F0C091B800C3
:10071000D091BA008091BC008A7B8093BC0060E0DD
:1007200082E10E945E0160E083E10E945E010E941E
:100730006103D093BA00C093B800DF91CF910895C0
:100740000895E091330380913203E81730F4F0E02C
:10075000E456FD4F808190E008958FEF9FEF08955C
:1007600090913303809132032FEF3FEF981748F4B5
:10077000E92FF0E0E456FD4F208130E09F5F909339
:100780003303C90108958091320390913303891B8B
:10079000990B0895CF92DF92EF92FF920F931F93E0
:1007A000CF93DF937C01CB018A0120919B0222230E
:1007B00089F0EB016B01C40ED51ECC15DD0569F087
:1007C0006991D701ED91FC910190F081E02DC70175
:1007D0000995F3CF642F0E943A03C801DF91CF91AE
:1007E0001F910F91FF90EF90DF90CF900895CF93DE
:1007F000DF931F92CDB7DEB7698320919B0222233E
:10080000F9F020913003203258F021E030E0FC0173
:100810003383228390E080E00F90DF91CF910895A1
:1008200080913103E82FF0E0E558FD4F99819083E6
:100830008F5F809331038093300381E090E0ECCFB1
:1008400061E0CE0101960E943A03F7CFCF92DF928A
:10085000EF92FF920F931F93CF93DF93FC01C4811C
:1008600021E020939B02C0937A02109231031092F0
:1008700030038485682B8FEF93E00E94F703D091BB
:100880003003D13208F092C00E94C8016B017C0194
:1008900080910603811165C082E08093060381E0A8
:1008A000809308038FEF8093050310922A03D0935F
:1008B0002903ABE7B2E0E9E0F3E080E0D81385C0BC
:1008C00010922B0380912B03CC0FC82BC0932B03CA
:1008D00080910703813009F07CC0109207030E94C9
:1008E000C8016B017C0180912B038093BB00809138
:1008F000BD029091BE02A091BF02B091C002892BAF
:100900008A2B8B2B99F00E94C8010091BD02109197
:10091000BE022091BF023091C0026C197D098E0980
:100920009F090617170728073907E0F18091BC00D7
:1009300083FDD9CF85EC8093BC000E94C8016B0178
:100940007C0180910603823009F445C08091050343
:100950008F3F61F180910503803241F18091050361
:1009600025C08091BD029091BE02A091BF02B091BE
:10097000C002892B8A2B8B2B09F48ACF0E94C801D5
:100980000091BD021091BE022091BF023091C002C1
:100990006C197D098E099F09061717072807390763
:1009A00008F076CF8091BC020E947F031092310341
:1009B0001092300310929B02DF91CF911F910F9103
:1009C000FF90EF90DF90CF9008959D9191938F5F6E
:1009D00075CF85EEB0CF8091BD029091BE02A091FF
:1009E000BF02B091C002892B8A2B8B2B09F4A9CFAF
:1009F0000E94C8010091BD021091BE022091BF0269
:100A00003091C0026C197D098E099F0906171707DE
:100A10002807390708F095CFC5CF089590E080E00A
:100A20000895CF93DF93C0E7D0E028812E7F2883FD
:100A30006093000170930101809302019093030180
:100A40006091000170910101809102019091030178
:100A500020E030E040E85BE40E94A81423E938E19C
:100A600045E752E40E9450130E94C213609334037E
:100A700070933503809336039093370388818160A8
:100A80008883DF91CF910895CF92DF92EF92FF920A
:100A90008DE00E943501892B51F564E670E080E01D
:100AA00090E00E94ED018DE00E943501892BF9F460
:100AB0000E941F026B017C01C0924E03D0924F0333
:100AC000E0925003F09251038DE00E943501892B92
:100AD000D9F30E941F026C197D098E099F096536A2
:100AE00071058105910518F081E080935303809191
:100AF0005303FF90EF90DF90CF9008950F931F93D3
:100B0000CF938C01C62F0E9426046C2F6460C8010D
:100B10000E9426046C2F6B7FC8010E94260483EC80
:100B200090E00197F1F7CF911F910F9108950F93E6
:100B30001F93CF93DF938C01D62FC42F607F642B3C
:100B40000E947E0580E1D89FB00111246C2BC80162
:100B5000DF91CF911F910F910C947E05CF93DF937E
:100B6000CDB7DEB728970FB6F894DEBF0FBECDBF66
:100B700098E0EDE0F1E0DE01119601900D929A957A
:100B8000E1F790911304961710F46FEF690F262F79
:100B900030E0220F331F41E050E04C0F5D1F240F67
:100BA000351FF9016081680F606840E08BE094E0D8
:100BB00028960FB6F894DEBF0FBECDBFDF91CF9160
:100BC0000C94970540E061E08BE094E00E9497056B
:100BD0008BE39FE10197F1F780911404882321F0C2
:100BE00060E080E00C94AE05089541E00E94970516
:100BF00081E090E00895FB0101900020E9F7319732
:100C0000AF01461B570BDC01ED91FC910280F38193
:100C1000E02D09948F929F92AF92BF920F931F93F2
:100C2000CF93DF93CDB7DEB7A1970FB6F894DEBFB1
:100C30000FBECDBF19A2423008F44AE08E010F5D0D
:100C40001F4F842E912CB12CA12CA50194010E9440
:100C5000AD12E62FB901CA01EA3004F5E05DD80112
:100C6000EE938D01232B242B252B79F790E080E048
:100C7000109729F0BD018BE094E00E94FB05A1963E
:100C80000FB6F894DEBF0FBECDBFDF91CF911F919D
:100C90000F91BF90AF909F908F900895E95CDFCF48
:100CA000BC018BE094E00C94FB054F925F926F9235
:100CB0007F928F929F92AF92BF92CF92DF92EF92EC
:100CC000FF920F931F93CF936B017C01742EAC01A5
:100CD0009B010E94151565E471E0811126C0460153
:100CE0005701E894B7F82FEF3FEF4FE75FE7C501F3
:100CF000B4010E94151581110CC02FEF3FEF4FE793
:100D00005FE7C501B4010E944B1369E471E0181656
:100D100064F02FEF3FEF4FE75FE4C701B6010E9499
:100D2000A3141816ACF46DE471E08BE094E0CF915D
:100D30001F910F91FF90EF90DF90CF90BF90AF90F9
:100D40009F908F907F906F905F904F900C94FB05D9
:100D50002FEF3FEF4FE75FECC701B6010E944B1347
:100D600087FDE1CF20E030E0A901C701B6010E9474
:100D70004B1310E000E087FF0CC041E06DE28BE018
:100D800094E00E949705F7FAF094F7F8F09401E0E8
:100D900010E0C0E060E070E080E09FE37C1641F08E
:100DA00020E030E040E251E40E945013CF5FF6CFE4
:100DB000A70196010E94DF124B015C010E94C21341
:100DC0002B013C014AE00E940A06080F191FCC23A0
:100DD000C9F1C301B2010E94F1139B01AC01C5012D
:100DE000B4010E94DE124B015C0141E06EE28BE037
:100DF00094E00E9497050F5F1F4FC15018F120E04B
:100E000030E040E251E4C501B4010E94A8142B0176
:100E10003C010E94C2134B01B12CA12C4AE0C50138
:100E2000B4010E940A06080F191FC501B4010E94EF
:100E3000F1139B01AC01C301B2010E94DE124B0110
:100E40005C01DBCFC801CF911F910F91FF90EF9014
:100E5000DF90CF90BF90AF909F908F907F906F90DA
:100E60005F904F90089585ED8093BC008091BD0206
:100E70009091BE02A091BF02B091C0020796A11D41
:100E8000B11D23E0B695A795979587952A95D1F73B
:100E90002091BC0024FD03C01092060308954091E8
:100EA000BD025091BE026091BF027091C002452BFD
:100EB000462B472B69F30097A105B10541F02AE2C3
:100EC0002A95F1F700C00197A109B109E1CF8091FE
:100ED000BC020C947F031F920F920FB60F92112445
:100EE0002F933F938F939F93AF93BF9380915A0318
:100EF00090915B03A0915C03B0915D033091590325
:100F000023E0230F2D3758F50196A11DB11D209325
:100F1000590380935A0390935B03A0935C03B093AF
:100F20005D0380915E0390915F03A0916003B09197
:100F300061030196A11DB11D80935E0390935F0331
:100F4000A0936003B0936103BF91AF919F918F9184
:100F50003F912F910F900FBE0F901F90189526E88C
:100F6000230F0296A11DB11DD2CF1F920F920FB673
:100F70000F9211242F933F934F935F936F937F931F
:100F80008F939F93AF93BF93EF93FF9382E693E08A
:100F90000E94AB02FF91EF91BF91AF919F918F9112
:100FA0007F916F915F914F913F912F910F900FBE65
:100FB0000F901F9018951F920F920FB60F92112449
:100FC0002F938F939F93EF93FF93E0917203F09190
:100FD00073038081E0917803F091790382FD1BC057
:100FE000908180917B038F5F8F7320917C038217A8
:100FF00041F0E0917B03F0E0EE59FC4F958F809338
:101000007B03FF91EF919F918F912F910F900FBED6
:101010000F901F9018958081F4CF1F920F920FB6FA
:101020000F9211242F933F934F935F936F937F936E
:101030008F939F93AF93BF93EF93FF938091B900EA
:10104000887F803609F44AC0F0F5883209F4A7C0D9
:1010500018F5803109F49BC0B8F4882309F4F9C06D
:10106000883009F494C0FF91EF91BF91AF919F91A7
:101070008F917F916F915F914F913F912F910F9041
:101080000FBE0F901F901895883109F488C08032E8
:1010900051F78093050314C0803409F49DC040F4D7
:1010A0008033B9F38833F9F68093050385ECB0C03B
:1010B000803509F485C0883509F496C0883499F6DE
:1010C0000E943307D0CF883909F48CC038F58837AF
:1010D00029F050F4883611F0803729F683E08093A8
:1010E00006031092040357C0883809F47BC0803986
:1010F00019F0803809F0B7CF80910403803208F0EE
:1011000071C0E091040381E08E0F8093040380910D
:10111000BB00F0E0EC51FD4F80833DC0803B39F0D7
:10112000E0F4803A09F479C0883A09F09CCF84E071
:10113000809306031092E3021092E202E0912E03E4
:10114000F0912F0309958091E20281110FC081E097
:101150008093E2021092C20209C0803C09F4A6CF3B
:10116000883C09F4A3CF883B09F07DCFE091E302EE
:1011700081E08E0F8093E302F0E0EE53FD4F80811B
:101180008093BB009091E3028091E20229C080919C
:101190002B038093BB0085EC8093BC0064CF9091BF
:1011A0002A0380912903981758F5E0912A0381E0DA
:1011B0008E0F80932A03F0E0E75FFC4F8081E9CF38
:1011C000E0912A0381E08E0F80932A038091BB0077
:1011D000F0E0E75FFC4F808390912A038091290320
:1011E0009817C8F285E8D8CFE0912A0381E08E0FE6
:1011F00080932A038091BB00F0E0E75FFC4F80837F
:101200008091080381115CCF81E08093070384EA19
:101210008093BC001092060326CF85EC8093BC001F
:101220001092060380910403803230F4E0910403AD
:10123000F0E0EC51FD4F10826091040370E0E0910A
:101240002C03F0912D0384EE92E009951092040393
:101250000ACF1092050334CF1F920F920FB60F9250
:1012600011244F935F936F937F938F939F93AF93CB
:10127000BF93EF93FF938091760290917702A091B4
:101280007802B09179024091340350913503609116
:10129000360370913703840F951FA61FB71F8093E5
:1012A000760290937702A0937802B09379028091AE
:1012B000760290917702A0917802B09179028B2FFB
:1012C0009927AA27BB27FC01E859FF4FE4918E2FED
:1012D00090E065E070E00E941A1569317105ECF04C
:1012E0007093750260937402809174028A508093A7
:1012F000B300809174028D5D8093B400FF91EF91F3
:10130000BF91AF919F918F917F916F915F914F911D
:101310000F900FBE0F901F90189589E190E0909369
:10132000750280937402E0CFE2E6F3E0138212824A
:1013300088EE93E0A0E0B0E084839583A683B78332
:1013400029E131E03183208325EC30E035872487A3
:1013500024EC30E03787268720EC30E0318B208B7F
:1013600021EC30E0338B228B22EC30E0358B248B68
:1013700026EC30E0378B268B118E128E138E148E56
:10138000EFEFF3E01382128284839583A683B78301
:101390008BE291E091838083EBE0F4E01382128290
:1013A0008DE391E091838083118687E2848384E1D9
:1013B000828784E0838714860895789484B5826058
:1013C00084BD84B5816084BD85B5826085BD85B5E9
:1013D000816085BD80916E00816080936E00109267
:1013E00081008091810082608093810080918100E2
:1013F0008160809381008091800081608093800073
:101400008091B10084608093B1008091B0008160D0
:101410008093B00080917A00846080937A008091FC
:101420007A00826080937A0080917A008160809354
:101430007A0080917A00806880937A001092C100CF
:10144000E0917203F091730382E08083E0916E0378
:10145000F0916F031082E0917003F09171038FECB3
:10146000808310927A03E0917603F091770386E00F
:101470008083E0917403F0917503808180618083A3
:10148000E0917403F0917503808188608083E0911E
:101490007403F0917503808180688083E091740308
:1014A000F091750380818F7D808361E571E082E634
:1014B00093E00E94FB056AE571E082E693E00E94FA
:1014C000FB0561E089E00E948C0161E08AE00E94F6
:1014D0008C0161E08BE00E948C0161E083E00E945E
:1014E0008C0161E086E00E948C0161E085E00E9451
:1014F0008C0162E084E00E948C0162E087E00E943F
:101500008C0162E08DE00E948C0162E088E00E9424
:101510008C0162E08CE00E948C0160E082E00E941D
:101520008C018091B10081608093B1008091B10005
:101530008D7F8093B1008091B1008B7F8093B1004B
:101540008091B0008F7B8093B0008091B000806864
:101550008093B0008091B00080618093B000809152
:10156000B00080628093B0008091B0008160809371
:10157000B0008091B0008D7F8093B0008091B10069
:10158000877F8093B10080917000816080937000AC
:1015900080918100816080938100809181008D7FA6
:1015A00080938100809181008B7F80938100809166
:1015B00080008F7B80938000809180008068809382
:1015C0008000809180008061809380008091800005
:1015D0008062809380008091800081608093800091
:1015E000809180008D7F8093800080918100877F33
:1015F00080938100809181008F7E8093810085B5EA
:10160000816085BD85B58D7F85BD85B58B7F85BDA9
:1016100084B58F7B84BD84B5806884BD84B58061CA
:1016200084BD84B5806284BD84B5816084BD84B589
:101630008D7F84BD85B5877F85BD17BC18BC109292
:10164000B3001092B400109289001092880010929A
:101650008B0010928A00809170008E7F80937000C2
:101660001092330310923203109231031092300320
:101670000E9461038BE292E090932F0380932E03EC
:101680008CE292E090932D0380932C03109210042F
:1016900080911604823018F098E0909310048093A3
:1016A000130462E370E080E090E00E94ED0160913D
:1016B00017048BE094E00E94260468EE73E080E05B
:1016C00090E00E94ED0160E38BE094E00E947E05D3
:1016D000CBE4D6E4CE010197F1F760E38BE094E030
:1016E0000E947E052197F1F760E38BE094E00E9471
:1016F0007E0583E592E00197F1F760E28BE094E0EC
:101700000E947E0560911004606240E08BE094E0EE
:101710000E94970584E08093110440E06CE08BE028
:1017200094E00E9497050E94E20582E080931204F3
:1017300040E066E08BE094E00E94970540E062E0C4
:101740008BE094E00E9497058BE39FE10197F1F70E
:1017500088E08093170460E08BE094E00E94260408
:1017600060E080E00E94AE058DE591E00E945006A9
:1017700062E082E00E94AE0582E791E00E9450069E
:1017800060ED77E080E090E00E94ED010E94E205CC
:10179000609100017091010180910201909103011B
:1017A00020E030E040E85BE40E94A81423E938E13F
:1017B00045E752E40E9450130E94C2136093340321
:1017C00070933503809336039093370380E4282E7B
:1017D00044244A9493E0592E612C712CC0E0D0E04F
:1017E00011E025E0322E80915803823009F4AEC317
:1017F00078F4882309F4B3C0813009F4B3C1209789
:1018000091F30E949702882371F30E940000EBCFAE
:10181000843009F4DDC508F417C5853081F70E94CE
:101820001F02C0905403D0905503E0905603F090EF
:1018300057036C197D098E099F096536710581056D
:10184000910548F160E081E00E94AE058AE592E0F2
:101850000E94500662E082E00E94AE058DE692E0B2
:101860000E94500662E089E00E94AE056091090185
:1018700070910A0180910B0190910C0142E00E944D
:1018800055060E941F026093540370935503809382
:1018900056039093570388E00E943501892B61F528
:1018A00064EF71E080E090E00E94ED0188E00E942A
:1018B0003501892B09F52DEC3CEC4CEC5DE3609196
:1018C000090170910A0180910B0190910C010E9415
:1018D000DF126B017C012DEC3CEC47EC52E40E94E2
:1018E000A31418160CF400C6C0920901D0920A0184
:1018F000E0920B01F0920C018CE00E943501892BE3
:1019000009F046C564EF71E080E090E00E94ED01CF
:101910008CE00E943501892B09F03AC52DEC3CEC96
:101920004CEC5DE36091090170910A0180910B011B
:1019300090910C010E94DE126B017C0120E030E0EE
:1019400040EF51E40E944B1387FDDBC5C0920901B3
:10195000D0920A01E0920B01F0920C0119C580911E
:10196000040181508330E8F50E941F02C0905403A7
:10197000D0905503E0905603F09057036C197D0901
:101980008E099F09693C71058105910550F160E060
:1019900085E00E94AE0583E891E00E94500661E078
:1019A00080E00E94AE058EE891E00E94500662E061
:1019B00080E00E94AE0581EA91E00E94500663E05B
:1019C00080E00E94AE0582E292E00E9450060E94F2
:1019D0001F026093540370935503809356039093B2
:1019E0005703809104018430A8F10E941F02C09027
:1019F0005403D0905503E0905603F09057036C19B0
:101A00007D098E099F09693C71058105910510F1D9
:101A100060E085E00E94AE0583E891E00E945006F8
:101A200061E080E00E94AE058FEA91E00E945006DE
:101A300062E080E00E94AE058FEB91E00E945006CC
:101A40000E941F02609354037093550380935603C2
:101A50009093570388E00E943501892B59F564E67D
:101A600070E080E090E00E94ED010E941F026B0197
:101A70007C01C0924E03D0924F03E0925003F0924B
:101A8000510388E00E943501892BD9F30E941F027F
:101A90006C197D098E099F096536710581059105CF
:101AA00048F080910401815009F445C080930401FD
:101AB0000E94E2058CE00E943501892B29F50E94E5
:101AC0001F026B017C01C0924E03D0924F03E09243
:101AD0005003F09251038CE00E943501892BD9F319
:101AE0000E941F026C197D098E099F0965367105D8
:101AF0008105910548F0809104018F5F8630F0F4F4
:101B0000809304010E94E20580910401833041F139
:101B1000C0F48130E1F08230C1F00E944405813090
:101B200009F06DCE80910401809358031092530305
:101B30000E94E20564CE10930401BACF30920401F2
:101B4000E1CF843021F0853041F762E001C061E0EF
:101B500083E10E94AE058BEC91E00E945006DDCF40
:101B600063E0F6CF0E941F02C0905403D09055034B
:101B7000E0905603F09057036C197D098E099F0978
:101B8000653F71408105910508F468C060E084E01C
:101B90000E94AE058DEC91E00E94500661E081E06C
:101BA0000E94AE0581E792E00E94500661E08CE061
:101BB0000E94AE058BED91E00E94500662E081E04C
:101BC0000E94AE058EED91E00E94500662E089E031
:101BD0000E94AE0580915203811104C086EE91E00F
:101BE0000E94500680915203813021F48CEE91E0E6
:101BF0000E94500661E084E00E94AE0560913803C7
:101C00007091390380913A0390913B0342E00E9426
:101C1000550661E08EE00E94AE056091050170916D
:101C20000601809107019091080142E00E9455064B
:101C300063E081E00E94AE0580914903811147C1B4
:101C400083EF91E00E9450060E941F0260935403AC
:101C500070935503809356039093570384E00E943A
:101C60003501892B09F04EC00E941F026B017C01D7
:101C7000C0924E03D0924F03E0925003F092510372
:101C800084E00E943501892BD9F30E941F026C1950
:101C90007D098E099F09693C71058105910590F1C7
:101CA00020E030E04AE754E46091050170910601BC
:101CB00080910701909108010E94A8146B017C019A
:101CC00020E030E040E251E46091090170910A01A6
:101CD00080910B0190910C010E94A8149B01AC0112
:101CE000C701B6010E9450130E94C21360934503BE
:101CF00070934603809347039093480310934903DE
:101D00000E94E20587E00E943501892B11F50E94AF
:101D10001F026B017C01C0924E03D0924F03E092F0
:101D20005003F092510387E00E943501892BD9F3CB
:101D30000E941F026C197D098E099F09693C71057B
:101D40008105910530F010924903109344030E94DD
:101D5000E20500914903013009F072C00E941F02A0
:101D6000C0904003D0904103E0904203F0904303C1
:101D70006C197D098E099F09C0904503D0904603D8
:101D8000E0904703F0904803C616D706E806F90628
:101D900008F056C0C0903803D0903903E0903A0361
:101DA000F0903B038090090190900A01A0900B01F4
:101DB000B0900C01A5019401C701B6010E944B131C
:101DC00087FF12C02DEC3CEC4CEC5DE3C701B60183
:101DD0000E94DF12609338037093390380933A03B3
:101DE00090933B030E941105C0903803D0903903B3
:101DF000E0903A03F0903B03A7019601C501B401BE
:101E00000E944B1387FF12C02DEC3CEC4CEC5DE3C1
:101E1000C701B6010E94DE12609338037093390344
:101E200080933A0390933B030E9411050E941F0286
:101E30006093400370934103809342039093430364
:101E400080914403813009F064C0011162C00E9496
:101E50001F02C0904003D0904103E0904203F090F5
:101E600043036C197D098E099F09C0904503D090EA
:101E70004603E0904703F0904803C616D706E806ED
:101E8000F90608F046C0C0903803D0903903E090BE
:101E90003A03F0903B0320E030E0A901C701B6010E
:101EA0000E94A3141816B4F42DEC3CEC4CEC5DE34A
:101EB000C701B6010E94DE126093380370933903A4
:101EC00080933A0390933B030E94110518C088EF5A
:101ED00091E0B8CE809170008E7F8093700017BC27
:101EE00018BC109289001092880010928B001092FA
:101EF0008A001092B3001092B400109244030E9422
:101F00001F026093400370934103809342039093B8
:101F100043030E944405813009F071CC809149034C
:101F200081110BC080914403811107C010925803A6
:101F30000E94E2051092530362CC63E087E00E94A6
:101F4000AE058EEF91E00E945006F4CF0E941F0272
:101F5000C0905403D0905503E0905603F09057037F
:101F60006C197D098E099F09653F714081059105B6
:101F7000A8F160E081E00E94AE058CE092E00E9452
:101F8000500662E081E00E94AE0581E792E00E9487
:101F9000500662E08BE00E94AE0560914A037091AA
:101FA0004B0380914C0390914D0342E00E945506F3
:101FB00063E081E00E94AE0580914903811141C137
:101FC00083EF91E00E9450060E941F026093540329
:101FD00070935503809356039093570320927C008F
:101FE00080917A00806480937A0080917A0086FDE7
:101FF000FCCFA0917800B091790024E630E00E94F7
:102000002E15A30192010E948E12CA01B9010E94ED
:10201000F3136B017C01C0924A03D0924B03E09210
:102020004C03F0924D0384E00E943501892B09F0A6
:1020300048C00E941F024B015C0180924E039092A7
:102040004F03A0925003B092510384E00E943501E7
:10205000892BD9F30E941F02681979098A099B0903
:10206000693C71058105910560F11093490320E0F9
:1020700030E04AE754E460910501709106018091D7
:102080000701909108010E94A8144B015C0120E017
:1020900030E040E251E4C701B6010E94A8149B0160
:1020A000AC01C501B4010E9450130E94C213609399
:1020B00045037093460380934703909348030E941F
:1020C000E20587E00E943501892B11F50E941F026D
:1020D0004B015C0180924E0390924F03A0925003FB
:1020E000B092510387E00E943501892BD9F30E94F9
:1020F0001F02681979098A099B09693C71058105E4
:10210000910530F010924903109344030E94E205B8
:1021100000914903013009F05BC00E941F028090CA
:10212000400390904103A0904203B090430368198C
:1021300079098A099B098090450390904603A090F5
:102140004703B090480386169706A806B90608F01C
:102150003FC080903C0390903D03A0903E03B09020
:102160003F03A5019401C701B6010E94A3141816EC
:102170008CF420E030E0A901C501B4010E94DF1217
:1021800060933C0370933D0380933E0390933F0321
:102190000E94110580903C0390903D03A0903E0367
:1021A000B0903F03A5019401C701B6010E944B13F3
:1021B00087FF04C0C501B4010E9411050E941F02DF
:1021C00060934003709341038093420390934303D1
:1021D00080914403813009F09CCE01119ACE0E9477
:1021E0001F02C0904003D0904103E0904203F09062
:1021F00043036C197D098E099F09C0904503D09057
:102200004603E0904703F0904803C616D706E80659
:10221000F90608F07ECEC0903C03D0903D03E090DC
:102220003E03F0903F0320E030E040E251E4C7017C
:10223000B6010E94A31418160CF04CCEC701B601CB
:1022400043CE88EF91E0BECE0E941F02C09054039F
:10225000D0905503E0905603F09057036C197D0918
:102260008E099F09693C71058105910588F160E03F
:1022700081E00E94AE058DE192E00E94500662E08E
:1022800081E00E94AE0581E392E00E94500662E088
:1022900087E00E94AE056091050170910601809172
:1022A00007019091080142E00E94550662E08DE02E
:1022B0000E94AE0587E392E00E9450060E941F0232
:1022C0006093540370935503809356039093570380
:1022D00088E00E943501892B59F564EF71E080E0B8
:1022E00090E00E94ED0188E00E943501892B01F504
:1022F0002DEC3CEC4CEC5DE3609105017091060126
:1023000080910701909108010E94DF126B017C010E
:1023100020E030E040EA51E40E94A3141816F4F1E2
:10232000C0920501D0920601E0920701F0920801E7
:102330008CE00E943501892B59F564EF71E080E053
:1023400090E00E94ED018CE00E943501892B01F59F
:102350002DEC3CEC4CEC5DE36091050170910601C5
:1023600080910701909108010E94DE126B017C01AF
:1023700020E030E040E85FE30E944B1387FD1BC084
:10238000C0920501D0920601E0920701F092080187
:102390000E944405813009F032CAC8CD80E090E047
:1023A000A0EAB1E48093050190930601A093070190
:1023B000B0930801BDCF80E090E0A0E8BFE3809338
:1023C000050190930601A0930701B0930801E0CFA7
:1023D0000E941F02C0905403D0905503E090560312
:1023E000F09057036C197D098E099F0965367105B8
:1023F0008105910530F160E080E00E94AE0589E33F
:1024000092E00E94500662E081E00E94AE058EE4F8
:1024100092E00E94500662E08DE00E94AE0580913D
:10242000520381115BC086EE91E00E9450060E942B
:102430001F02609354037093550380935603909347
:10244000570388E00E943501892B01F50E941F0285
:102450006B017C01C0924E03D0924F03E092500377
:10246000F092510388E00E943501892BD9F30E9434
:102470001F026C197D098E099F09693C7105810550
:10248000910520F0109252030E94E2058CE00E9418
:102490003501892B09F07CCF0E941F026B017C0162
:1024A000C0924E03D0924F03E0925003F09251033A
:1024B0008CE00E943501892BD9F30E941F026C1910
:1024C0007D098E099F09693C71058105910508F414
:1024D0005FCF109352030E94E2055ACF813009F07A
:1024E000A6CF8CEE91E0A1CF8DEC9CECA7ECB2E4F2
:1024F0008093090190930A01A0930B01B0930C0102
:10250000FBC980E090E0A0EFB1E4809309019093D3
:102510000A01A0930B01B0930C013ACF052E97FB53
:102520001EF400940E94A51257FD07D00E94AD1220
:1025300007FC03D04EF40C94A512509540953095AD
:1025400021953F4F4F4F5F4F08959095809570951F
:1025500061957F4F8F4F9F4F0895A1E21A2EAA1BBE
:10256000BB1BFD010DC0AA1FBB1FEE1FFF1FA21743
:10257000B307E407F50720F0A21BB30BE40BF50B40
:10258000661F771F881F991F1A9469F760957095C9
:10259000809590959B01AC01BD01CF010895A29F4C
:1025A000B001B39FC001A39F700D811D1124911D27
:1025B000B29F700D811D1124911D08955058BB27A5
:1025C000AA270E94F6120C9469140E945B1438F03A
:1025D0000E94621420F039F49F3F19F426F40C9401
:1025E00058140EF4E095E7FB0C945214E92F0E9466
:1025F0007A1458F3BA17620773078407950720F017
:1026000079F4A6F50C949C140EF4E0950B2EBA2FD9
:10261000A02D0B01B90190010C01CA01A0011124E8
:10262000FF27591B99F0593F50F4503E68F11A1694
:10263000F040A22F232F342F4427585FF3CF469525
:1026400037952795A795F0405395C9F77EF41F1647
:10265000BA0B620B730B840BBAF09150A1F0FF0F11
:10266000BB1F661F771F881FC2F70EC0BA0F621FFD
:10267000731F841F48F4879577956795B795F795ED
:102680009E3F08F0B0CF9395880F08F09927EE0F82
:102690009795879508950E942E1408F481E0089577
:1026A0000E9464130C9469140E94621458F00E94F2
:1026B0005B1440F029F45F3F29F00C94521451113F
:1026C0000C949D140C9458140E947A1468F3992366
:1026D000B1F3552391F3951B550BBB27AA2762171E
:1026E0007307840738F09F5F5F4F220F331F441F2B
:1026F000AA1FA9F335D00E2E3AF0E0E832D091505F
:102700005040E695001CCAF72BD0FE2F29D0660F4B
:10271000771F881FBB1F261737074807AB07B0E88E
:1027200009F0BB0B802DBF01FF2793585F4F3AF094
:102730009E3F510578F00C9452140C949D145F3F09
:10274000E4F3983ED4F3869577956795B795F7951A
:102750009F5FC9F7880F911D9695879597F9089502
:10276000E1E0660F771F881FBB1F6217730784079E
:10277000BA0720F0621B730B840BBA0BEE1F88F7AD
:10278000E09508950E94821488F09F5798F0B92F21
:102790009927B751B0F0E1F0660F771F881F991F96
:1027A0001AF0BA95C9F714C0B13091F00E949C1488
:1027B000B1E008950C949C14672F782F8827B85F98
:1027C00039F0B93FCCF3869577956795B395D9F7EE
:1027D0003EF490958095709561957F4F8F4F9F4FF8
:1027E0000895E89409C097FB3EF490958095709504
:1027F00061957F4F8F4F9F4F9923A9F0F92F96E94D
:10280000BB279395F695879577956795B795F111C1
:10281000F8CFFAF4BB0F11F460FF1BC06F5F7F4F5E
:102820008F4F9F4F16C0882311F096E911C0772370
:1028300021F09EE8872F762F05C0662371F096E879
:10284000862F70E060E02AF09A95660F771F881F48
:10285000DAF7880F9695879597F90895990F0008EC
:10286000550FAA0BE0E8FEEF16161706E807F90762
:10287000C0F012161306E407F50798F0621B730BFD
:10288000840B950B39F40A2661F0232B242B252B7E
:1028900021F408950A2609F4A140A6958FEF811D21
:1028A000811D089597F99F6780E870E060E00895C2
:1028B0009FEF80EC089500240A9416161706180658
:1028C0000906089500240A94121613061406050634
:1028D0000895092E0394000C11F4882352F0BB0FC5
:1028E00040F4BF2B11F460FF04C06F5F7F4F8F4F28
:1028F0009F4F089557FD9058440F551F59F05F3F63
:1029000071F04795880F97FB991F61F09F3F79F011
:1029100087950895121613061406551FF2CF469593
:10292000F1DF08C0161617061806991FF1CF869515
:102930007105610508940895E894BB2766277727F9
:10294000CB0197F908950E942E1408F48FEF089593
:102950000E94BB140C9469140E945B1438F00E940E
:10296000621420F0952311F00C9452140C94581416
:1029700011240C949D140E947A1470F3959FC1F356
:10298000950F50E0551F629FF001729FBB27F00D1D
:10299000B11D639FAA27F00DB11DAA1F649F662772
:1029A000B00DA11D661F829F2227B00DA11D621FC1
:1029B000739FB00DA11D621F839FA00D611D221F7B
:1029C000749F3327A00D611D231F849F600D211D5F
:1029D000822F762F6A2F11249F5750409AF0F1F0E2
:1029E00088234AF0EE0FFF1FBB1F661F771F881F4B
:1029F00091505040A9F79E3F510580F00C9452141D
:102A00000C949D145F3FE4F3983ED4F3869577953C
:102A10006795B795F795E7959F5FC1F7FE2B880FF0
:102A2000911D9695879597F908950E942E14880B0D
:102A3000990B089597FB072E16F4009407D077FDA5
:102A400009D00E94351507FC05D03EF4909581957C
:102A50009F4F0895709561957F4F08950E94CF1202
:102A6000B7FF0895821B930B0895AA1BBB1B51E16E
:102A700007C0AA1FBB1FA617B70710F0A61BB70BEE
:102A8000881F991F5A95A9F780959095BC01CD0193
:102A90000895EE0FFF1F0590F491E02D0994F8942E
:022AA000FFCF66
:102AA2000000803F010000A04000004842000040BA
:102AB200001400540000000000CD022D025A021A38
:102AC200038B0269027D0200000000F703CA030EB5
:102AD20005A003C303B003A10300000000F5052D08
:102AE200020E050D056E616E00696E66006F7666F8
:102AF200004444532054657374000D0A004D6F6402
:102B0200756C65204D616368204269656E20546171
:102B12006E007468616E6868756E672E6564752EE6
:102B2200766E00536C656374204D6F646500313AB4
:102B320020446973706C617920436F6E74726F6C9C
:102B420000323A20436F6E74726F6C20565200341A
:102B52003A204D6F746F7220447269766572003547
:102B62003A205365742046726571002A00436F6EE5
:102B720074726F6C204D6F746F7200543A0044721D
:102B8200697665723A00546875616E004E676869CD
:102B920063680053746F70005374617274002D2D5A
:102BA2004F6666204D6F746F722D2D004D4F444558
:102BB20020323A2044554E4720565220004D6F6431
:102BC2006520333A2054696D65204368616E6765FC
:102BD2000054696D653A0073004D6F646520343AA4
:102BE200204D4F544F52204452495645520043689B
:102BF20069657520717561793A004D6F646520359C
:102C02003A205365742054616E20536F00536574EB
:042C120020463A001E
:00000001FF
