:100000000C9419010C9441010C9441010C94410190
:100010000C9441010C9441010C9441010C94410158
:100020000C9441010C94F60B0C9441010C94410189
:100030000C9441010C9441010C9441010C94410138
:100040000C94B8150C9441010C9421130C94531387
:100050000C9441010C9441010C9441010C94410118
:100060000C94BC100C9441010C9441010C9441017E
:100070000C9441010C9441010C9441010C944101F8
:100080000C9441010C9441010C9441010C944101E8
:100090000C9441010C9441010C9441010C944101D8
:1000A0000C9441010C9441010C9441010C944101C8
:1000B0000C9441017F8285888B8F9295989B9EA19D
:1000C000A4A7AAADB0B2B5B8BBBEC0C3C6C8CBCD9D
:1000D000D0D2D4D7D9DBDDDFE1E3E5E7E9EAECEE26
:1000E000EFF0F2F3F4F5F7F8F9F9FAFBFCFCFDFD9B
:1000F000FDFEFEFEFEFEFEFEFDFDFDFCFCFBFAF934
:10010000F9F8F7F5F4F3F2F0EFEEECEAE9E7E5E3FE
:10011000E1DFDDDBD9D7D4D2D0CDCBC8C6C3C0BEDA
:10012000BBB8B5B2B0ADAAA7A4A19E9B9895928F7B
:100130008B8885827F7C7976736F6C696663605D7E
:100140005A5754514E4C494643403E3B3836333162
:100150002E2C2A272523211F1D1B191715141210B9
:100160000F0E0C0B0A090706050504030202010124
:10017000010000000000000001010102020304056B
:10018000050607090A0B0C0E0F1012141517191B80
:100190001D1F212325272A2C2E313336383B3E4084
:1001A0004346494C4E5154575A5D606366696C6FC3
:1001B0007376797C0A0D0E0900030200000405081D
:1001C000000000000000000000000000000000012E
:1001D00002040810204080010204081020010204DB
:1001E00008102040804001020408040404040404B0
:1001F00004040202020202020303030303030202D5
:100200000305050505000000002300260029002C39
:100210000000000000250028002B002E0000000038
:1002200000240027002A002D00006A0C480F8313C9
:100230009D0F11241FBECFEFD8E0DEBFCDBF12E06F
:10024000A0E0B1E0E0E8F7E302C005900D92AC3722
:10025000B107D9F723E0ACE7B2E001C01D92A83E98
:10026000B207E1F711E0C8E1D1E004C02197FE0137
:100270000E945A1AC531D107C9F70E949D150C94E6
:10028000B31B0C9400000F931F938DE00E948817FE
:10029000892B81F564E670E080E090E00E943316DF
:1002A0008DE00E948817892B29F50E940216609321
:1002B00081027093820280938302909384028DE086
:1002C0000E948817892BD9F30E940216009181029F
:1002D000109182022091830230918402601B710B85
:1002E000820B930B653671058105910518F081E04D
:1002F00080938602809186021F910F9108950F933B
:100300001F9380910A018150833008F04DC00E94F4
:100310000216009192021091930220919402309162
:100320009502601B710B820B930B693C7105810573
:100330009105D0F140E065E081EB92E00E94E80C8D
:100340006CE171E081EB92E00E94EC1341E060E02F
:1003500081EB92E00E94E80C67E271E081EB92E0B1
:100360000E94EC1342E060E081EB92E00E94E80C16
:100370006AE371E081EB92E00E94EC1343E060E0FD
:1003800081EB92E00E94E80C6BE671E081EB92E079
:100390000E94EC130E9402166093920270939302E3
:1003A000809394029093950280910A01843008F41E
:1003B00041C00E9402160091920210919302209176
:1003C000940230919502601B710B820B930B693C78
:1003D00071058105910570F140E065E081EB92E0E7
:1003E0000E94E80C6CE171E081EB92E00E94EC135A
:1003F00041E060E081EB92E00E94E80C68E471E08B
:1004000081EB92E00E94EC1342E060E081EB92E02D
:100410000E94E80C68E571E081EB92E00E94EC1329
:100420000E9402166093920270939302809394024A
:100430009093950288E00E948817892B99F564E6CD
:1004400070E080E090E00E9433160E9402166093F4
:10045000810270938202809383029093840288E0E9
:100460000E948817892BD9F30E94021600918102FD
:10047000109182022091830230918402601B710BE3
:10048000820B930B653671058105910558F08091BB
:100490000A01815009F451C080930A0181EB92E076
:1004A0000E94180D8CE00E948817892B69F50E9424
:1004B000021660938102709382028093830290936C
:1004C00084028CE00E948817892BD9F30E940216BF
:1004D0000091810210918202209183023091840266
:1004E000601B710B820B930B6536710581059105BD
:1004F00058F080910A018F5F863008F580930A01D9
:1005000081EB92E00E94180D80910A01833061F125
:10051000C0F48130E1F08230C1F00E9443018130AB
:1005200029F580910A0180938F021092860281EB57
:1005300092E01F910F910C94180D81E0ADCF85E0F2
:10054000DDCF843021F0853041F742E001C041E049
:1005500063E181EB92E00E94E80C64E671E081EBDC
:1005600092E00E94EC13D9CF43E0F2CF1F910F919C
:100570000895CF92DF92EF92FF920E940216C090F0
:100580009202D0909302E0909402F09095026C1940
:100590007D098E099F09693C71058105910508F463
:1005A00042C040E061E081EB92E00E94E80C66E628
:1005B00071E081EB92E00E94EC1342E061E081EB9C
:1005C00092E00E94E80C6AE771E081EB92E00E9401
:1005D000EC1342E067E081EB92E00E94E80C40916E
:1005E000060150910701609108017091090122E014
:1005F00030E081EB92E00E94591542E06DE081EB22
:1006000092E00E94E80C60E871E081EB92E00E94C9
:10061000EC130E94021660939202709393028093EF
:1006200094029093950288E00E948817892B61F5C7
:1006300064EF71E080E090E00E94331688E00E9451
:100640008817892B09F52DEC3CEC4CEC5DE36091AF
:1006500006017091070180910801909109010E94A3
:10066000B3176B017C0120E030E040EA51E40E94C6
:100670007E1918160CF449C0C0920601D0920701E9
:10068000E0920801F09209018CE00E948817892B02
:1006900059F564EF71E080E090E00E9433168CE041
:1006A0000E948817892B01F52DEC3CEC4CEC5DE3A6
:1006B00060910601709107018091080190910901F4
:1006C0000E94B2176B017C0120E030E040E85FE35C
:1006D0000E941F1887FD26C0C0920601D092070114
:1006E000E0920801F09209010E944301813041F437
:1006F00010928F0281EB92E00E94180D10928602F8
:10070000FF90EF90DF90CF90089580E090E0A0EA16
:10071000B1E48093060190930701A0930801B09380
:100720000901B2CF80E090E0A0E8BFE3809306012A
:1007300090930701A0930801B0930901D5CF0F93BF
:100740001F930E9402160091920210919302209131
:10075000940230919502601B710B820B930B6536EE
:10076000710581059105B0F140E060E081EB92E018
:100770000E94E80C62E871E081EB92E00E94EC13C9
:1007800042E061E081EB92E00E94E80C67E971E0F1
:1007900081EB92E00E94EC1342E06DE081EB92E08D
:1007A0000E94E80C8091910263EA71E0882321F0B5
:1007B000813031F469EA71E081EB92E00E94EC1340
:1007C0000E940216609392027093930280939402A7
:1007D0009093950288E00E948817892B61F580919B
:1007E0009002811128C00E940216609381027093CA
:1007F0008202809383029093840288E00E9488178B
:10080000892BD9F30E940216009181021091820275
:100810002091830230918402601B710B820B930B39
:10082000693C71058105910530F01092910281EBD0
:1008300092E00E94180D8CE00E948817892B69F5C0
:1008400080919002811129C00E940216609381025A
:100850007093820280938302909384028CE00E94C2
:100860008817892BD9F30E940216009181021091FA
:1008700082022091830230918402601B710B820BF3
:10088000930B693C71058105910538F081E08093F7
:10089000910281EB92E00E94180D0E944301813089
:1008A00041F410928F0281EB92E00E94180D109299
:1008B00086021F910F910895CF92DF92EF92FF92DF
:1008C0000E940216C0909202D0909302E09094028F
:1008D000F09095026C197D098E099F0965367105A6
:1008E00081059105B0F140E061E081EB92E00E946A
:1008F000E80C60EB71E081EB92E00E94EC1342E0C7
:1009000062E081EB92E00E94E80C63EC71E081EB25
:1009100092E00E94EC1342E069E081EB92E00E94D9
:10092000E80C40910B0150910C0160910D01709108
:100930000E0122E030E081EB92E00E9459150E9406
:1009400002166093920270939302809394029093A4
:10095000950288E00E948817892B61F564EF71E0A9
:1009600080E090E00E94331688E00E948817892B6F
:1009700009F52DEC3CEC4CEC5DE360910B017091C2
:100980000C0180910D0190910E010E94B3176B0133
:100990007C012DEC3CEC47EC52E40E947E191816C9
:1009A0000CF449C0C0920B01D0920C01E0920D01F1
:1009B000F0920E018CE00E948817892B59F564EFA4
:1009C00071E080E090E00E9433168CE00E9488176E
:1009D000892B01F52DEC3CEC4CEC5DE360910B01B7
:1009E00070910C0180910D0190910E010E94B2173F
:1009F0006B017C0120E030E040EF51E40E941F18C1
:100A000087FD26C0C0920B01D0920C01E0920D012F
:100A1000F0920E010E944301813041F410928F0246
:100A200081EB92E00E94180D10928602FF90EF90E9
:100A3000DF90CF9008958DEC9CECA7ECB2E480930E
:100A40000B0190930C01A0930D01B0930E01B2CF56
:100A500080E090E0A0EFB1E480930B0190930C0153
:100A6000A0930D01B0930E01D5CFCF93DF93C0E7D4
:100A7000D0E028812E7F288360930F0170931001AE
:100A8000809311019093120160910F0170911001F8
:100A9000809111019091120120E030E040E85BE488
:100AA0000E94831923E938E145E752E40E942418A3
:100AB0000E949D186093A5027093A6028093A702DE
:100AC0009093A802888181608883DF91CF910895F7
:100AD000AF92BF92CF92DF92EF92FF920F931F934C
:100AE0000E940216C0909202D0909302E09094026D
:100AF000F09095026C197D098E099F09653F714040
:100B00008105910508F48EC040E064E081EB92E03D
:100B10000E94E80C6AEC71E081EB92E00E94EC1319
:100B200041E061E081EB92E00E94E80C67EC71E04B
:100B300081EB92E00E94EC1341E06CE081EB92E0EB
:100B40000E94E80C68ED71E081EB92E00E94EC13EA
:100B500042E061E081EB92E00E94E80C6BED71E015
:100B600081EB92E00E94EC1342E069E081EB92E0BD
:100B70000E94E80C80919102811106C063EA71E045
:100B800081EB92E00E94EC1380919102813031F46C
:100B900069EA71E081EB92E00E94EC1341E064E0CD
:100BA00081EB92E00E94E80C40918702509188020C
:100BB0006091890270918A0222E030E081EB92E03C
:100BC0000E94591541E06EE081EB92E00E94E80C32
:100BD000409106015091070160910801709109014F
:100BE00022E030E081EB92E00E94591543E061E0A1
:100BF00081EB92E00E94E80C8091850263EE71E047
:100C0000882311F068EE71E081EB92E00E94EC1312
:100C10000E94021660939202709393028093940252
:100C20009093950284E00E948817892B09F057C0A1
:100C30000E94021660938102709382028093830265
:100C40009093840284E00E948817892BD9F30E9434
:100C50000216C0908102D0908202E0908302F09050
:100C600084026C197D098E099F09693C7105810513
:100C70009105A8F120E030E04AE754E460910601D4
:100C80007091070180910801909109010E948319D8
:100C90006B017C0120E030E040E251E460910B0107
:100CA00070910C0180910D0190910E010E948319A9
:100CB0009B01AC01C701B6010E9424180E949D1837
:100CC00060938B0270938C0280938D0290938E02BE
:100CD00081E08093850281EB92E00E94180D87E00D
:100CE0000E948817892B59F50E9402166093810291
:100CF00070938202809383029093840287E00E9423
:100D00008817892BD9F30E940216C0908102D090D7
:100D10008202E0908302F09084026C197D098E09B2
:100D20009F09693C71058105910548F01092850283
:100D300081E080937C0281EB92E00E94180D80910B
:100D40008502813009F0EBC00E940216C0907D023E
:100D5000D0907E02E0907F02F09080026C197D09B5
:100D60008E099F09C0908B02D0908C02E0908D027A
:100D7000F0908E02C616D706E806F90608F0CFC036
:100D8000C0908702D0908802E0908902F0908A0299
:100D900020910B0130910C0140910D0150910E01F9
:100DA000C701B6010E941F1887FF4DC02DEC3CEC17
:100DB0004CEC5DE3C701B6010E94B3176B017C01E7
:100DC000C0928702D0928802E0928902F0928A0251
:100DD00020E030E0A9010E947E1918160CF00EC127
:100DE00020E030E048E452E4C701B6010E941F1839
:100DF00087FF04C1C701B6010E9496181F921F9277
:100E00001F9223E62F93A12CB12C6501A39411E32B
:100E1000E12EF12C00E010E020E030E0A9010E947A
:100E20005B157093AE026093AD020F900F900F9020
:100E30000F90609187027091880280918902909151
:100E40008A020E943505C0908702D0908802E09007
:100E50008902F0908A0220910B0130910C0140919F
:100E60000D0150910E01C701B6010E947E1918169E
:100E70000CF04BC02DEC3CEC4CEC5DE3C701B60133
:100E80000E94B2176B017C01C0928702D092880247
:100E9000E0928902F0928A0220E030E0A9010E94EB
:100EA0007E1918160CF0B1C020E030E048E452E49E
:100EB000C701B6010E941F1887FFA7C0C701B6016E
:100EC0000E9496181F921F921F921F92A12CB12C64
:100ED000650111E3E12EF12C00E010E020E030E0AC
:100EE000A9010E945B157093AE026093AD020F9052
:100EF0000F900F900F9060918702709188028091FF
:100F0000890290918A020E9435050E940216609320
:100F10007D0270937E0280937F0290938002809185
:100F20007C02813009F04DC080918502811149C059
:100F30000E940216C0907D02D0907E02E0907F0257
:100F4000F09080026C197D098E099F09C0908B0278
:100F5000D0908C02E0908D02F0908E02C616D706DB
:100F6000E806F90670F5C0908702D0908802E090FC
:100F70008902F0908A0220E030E0A901C701B601A1
:100F80000E947E1918160CF047C02DEC3CEC4CEC7E
:100F90005DE3C701B6010E94B217609387027093A8
:100FA00088028093890290938A020E9435050E94EC
:100FB000021660937D0270937E0280937F0290936D
:100FC00080020E944301813081F480918502811169
:100FD00039C080917C02811135C010928F0281EB63
:100FE00092E00E94180D109286021F910F91FF90BF
:100FF000EF90DF90CF90BF90AF90089581E090E0A8
:101000009093AE028093AD0214CF81E090E0909374
:10101000AE028093AD026FCF809170008E7F80937F
:10102000700017BC18BC10928900109288001092B2
:101030008B0010928A001092B3001092B4001092AC
:101040007C02B5CF43E067E081EB92E00E94E80CC0
:101050006EEE71E081EB92E00E94EC13C4CF4F92F0
:101060005F926F927F92AF92BF92CF92DF92EF9298
:10107000FF920F931F930E940216C0909202D0908D
:101080009302E0909402F09095026C197D098E090C
:101090009F09653F71408105910508F448C040E013
:1010A00061E081EB92E00E94E80C6CEF71E081EB73
:1010B00092E00E94EC1342E061E081EB92E00E943A
:1010C000E80C67EC71E081EB92E00E94EC1342E0E7
:1010D0006BE081EB92E00E94E80C40919A02509103
:1010E0009B0260919C0270919D0222E030E081EBB6
:1010F00092E00E94591543E061E081EB92E00E948A
:10110000E80C8091850263EE71E0882311F068EEAF
:1011100071E081EB92E00E94EC130E940216609352
:1011200092027093930280939402909395028EE0C2
:101130000E94B3162C01990F66087708C301B2010B
:101140000E94CE1860939E0270939F028093A0022B
:101150009093A1021F921F921F9284E68F93A12C5D
:10116000B12C6501EE24EA9413E0F12E00E010E0CA
:1011700020E030E0A901C301B2010E945B150E948A
:10118000CE1860939A0270939B0280939C02909376
:101190009D0284E00E9488170F900F900F900F908F
:1011A000892B09F057C00E94021660938102709348
:1011B0008202809383029093840284E00E948817C5
:1011C000892BD9F30E940216C0908102D09082022E
:1011D000E0908302F09084026C197D098E099F09CA
:1011E000693C710581059105A8F181E08093850234
:1011F00020E030E04AE754E4609106017091070175
:1012000080910801909109010E9483196B017C0172
:1012100020E030E040E251E460919A0270919B023C
:1012200080919C0290919D020E9483199B01AC01C8
:10123000C701B6010E9424180E949D1860938B027A
:1012400070938C0280938D0290938E0281EB92E0DA
:101250000E94180D87E00E948817892B59F50E947B
:1012600002166093810270938202809383029093AE
:10127000840287E00E948817892BD9F30E94021606
:10128000C0908102D0908202E0908302F0908402AC
:101290006C197D098E099F09693C710581059105CD
:1012A00048F01092850281E080937C0281EB92E00D
:1012B0000E94180D80918502813009F0D7C00E94EC
:1012C0000216C0907D02D0907E02E0907F02F090E6
:1012D00080026C197D098E099F09C0908B02D09005
:1012E0008C02E0908D02F0908E02C616D706E806BA
:1012F000F90608F0BBC0C0909602D0909702E0902B
:101300009802F090990220919A0230919B024091AC
:101310009C0250919D02C701B6010E941F1887FFD1
:101320004AC020E030E0A901C701B6010E94B3170E
:101330006B017C01C0929602D0929702E0929802D3
:10134000F092990220E030E0A9010E947E1918165F
:101350000CF0F1C020E030E048E452E4C701B601EF
:101360000E941F1887FFE7C0C701B6010E949618A8
:101370001F921F921F921F92A12CB12C650111E3A5
:10138000E12EF12C00E010E020E030E0A9010E9405
:101390005B157093AE026093AD020F900F900F90AB
:1013A0000F906091960270919702809198029091AF
:1013B00099020E943505C0909602D0909702E09065
:1013C0009802F090990220919A0230919B024091EC
:1013D0009C0250919D02C701B6010E947E19181609
:1013E000DCF520E030E0A901C701B6010E947E19BA
:1013F00018160CF0A7C020E030E048E452E4C70122
:10140000B6010E941F1887FF9DC0C701B6010E9448
:1014100096181F921F921F921F92A12CB12C65014A
:1014200011E3E12EF12C00E010E020E030E0A90112
:101430000E945B157093AE026093AD020F900F9007
:101440000F900F9060919602709197028091980290
:10145000909199020E9435050E94021660937D02C8
:1014600070937E0280937F029093800280917C0231
:10147000813009F03FC08091850281113BC00E94FC
:101480000216C0907D02D0907E02E0907F02F09024
:1014900080026C197D098E099F09C0908B02D09043
:1014A0008C02E0908D02F0908E02C616D706E806F8
:1014B000F90600F5C0909602D0909702E09098024D
:1014C000F090990220E030E040E251E4C701B6011B
:1014D0000E947E191816ECF5C701B6010E94350569
:1014E0000E94021660937D0270937E0280937F02B9
:1014F000909380020E944301813081F480918502A3
:1015000081113DC080917C02811139C010928F02FF
:1015100081EB92E00E94180D109286021F910F91AC
:10152000FF90EF90DF90CF90BF90AF907F906F9043
:101530005F904F90089581E090E09093AE02809389
:10154000AD022FCF81E090E09093AE028093AD0288
:1015500079CF809170008E7F8093700017BC18BC8B
:10156000109289001092880010928B0010928A00CD
:101570001092B3001092B40010927C02B1CF43E0FD
:1015800067E081EB92E00E94E80C6EEE71E081EB87
:1015900092E00E94EC13C0CF80918F02823081F0E4
:1015A00028F4882349F0813049F00895843061F0AF
:1015B00048F0853059F008950C947F010C9468052B
:1015C0000C942F080C94B9020C949F030C945C04A7
:1015D000A1EBB0E08C9181608C938C918D7F8C938A
:1015E0008C918B7F8C93E0EBF0E080818F7B80830C
:1015F0008081806880838081806180838081806237
:10160000808380818160808380818D7F80838C91C5
:10161000877F8C93E0E7F0E080818160808308958C
:10162000A1E8B0E08C9181608C938C918D7F8C933C
:101630008C918B7F8C93E0E8F0E080818F7B8083BE
:1016400080818068808380818061808380818062E6
:10165000808380818160808380818D7F80838C9175
:10166000877F8C938C918F7E8C93089585B5816054
:1016700085BD85B58D7F85BD85B58B7F85BD84B5E1
:101680008F7B84BD84B5806884BD84B5806184BD52
:1016900084B5806284BD84B5816084BD84B58D7F4E
:1016A00084BD85B5877F85BD089526E040E855E275
:1016B00060E070E08EE393E00E94CF126DE072E094
:1016C0008EE393E00E94FF1361E089E00E941E1701
:1016D00061E08AE00E941E1761E08BE00E941E1705
:1016E00061E083E00E941E1761E086E00E941E1701
:1016F00061E085E00E941E1762E084E00E941E17F0
:1017000062E087E00E941E1762E08DE00E941E17D3
:1017100062E088E00E941E1762E08CE00E941E17C3
:1017200060E082E00E941E170E94E80A0E94100BEF
:101730000E94360B17BC18BC1092B3001092B40074
:10174000109289001092880010928B0010928A00EB
:10175000E0E7F0E080818E7F808381EB92E00E9461
:10176000A10D81EB92E00E949B0C40E060E081EBD8
:1017700092E00E94E80C66E172E081EB92E00E9448
:10178000EC1342E062E081EB92E00E94E80C6BE235
:1017900072E081EB92E00E94EC1360ED77E080E074
:1017A00090E00E94331681EB92E00E94180D609148
:1017B0000F0170911001809111019091120120E0B0
:1017C00030E040E85BE40E94831923E938E145E713
:1017D00052E40E9424180E949D186093A502709301
:1017E000A6028093A7029093A80208951F920F92D9
:1017F0000FB60F9211242F934F935F936F937F93A4
:101800008F939F93AF93BF93EF93FF938091A90220
:101810009091AA02A091AB02B091AC024091A502B6
:101820005091A6026091A7027091A802840F951FA3
:10183000A61FB71F8093A9029093AA02A093AB02A0
:10184000B093AC028091A9029091AA02A091AB0240
:10185000B091AC028B2F9927AA27BB278093A402B3
:1018600025E5280F2093A3022AEA280F2093A2023D
:10187000FC01EC54FF4FE4918E2F90E065E070E0A6
:101880000E94051A69317105F4F07093B0026093FB
:10189000AF028091AF028A508093B3008091AF0273
:1018A0008D5D8093B400FF91EF91BF91AF919F91B7
:1018B0008F917F916F915F914F912F910F900FBEFC
:1018C0000F901F90189589E190E09093B00280935B
:1018D000AF02DFCF24E044E167E281EB92E00C94B9
:1018E000750C90E080E008950895FC011382128247
:1018F00080E492E09183808311866483428723870A
:10190000148608950F931F93CF938C01C62FFC016B
:1019100064818EEB92E00E94EF0EF80164856C2BDF
:101920008EEB92E00E94A30D8EEB92E0CF911F917F
:101930000F910C940B0F28E0FC01248760E00C94BD
:10194000820C0F931F93CF938C01C62F64600E946B
:10195000820C81E090E00E946C166C2F6B7FC801B6
:101960000E94820C82E390E0CF911F910F910C9422
:101970006C161F93CF93DF93EC01162F0E94820CFD
:10198000612FCE01DF91CF911F910C94A10C0F9389
:101990001F93CF93DF938C01D62FC42F607F642BCE
:1019A0000E94B90C80E1D89FB00111246C2BC801B2
:1019B000DF91CF911F910F910C94B90C40E00C94E2
:1019C000C70C62E00E94DE0C80ED97E00C946C1670
:1019D000CF93DF93CDB7DEB728970FB6F894DEBF6D
:1019E0000FBECDBF28E0E4E1F1E0DE0111960190E9
:1019F0000D922A95E1F7FC012085241710F44FEF92
:101A0000420F50E0440F551F21E030E02C0F3D1FE6
:101A1000420F531FFA012081620F606828960FB6AB
:101A2000F894DEBF0FBECDBFDF91CF910C94DE0CDA
:101A3000CF93DF93EC0161E00E94DE0C80ED97E034
:101A40000E946C168985882339F040E060E0CE0161
:101A5000DF91CF910C94E80CDF91CF910895FC01B8
:101A60006681262F246026836C600C94DE0C41E096
:101A70000E94C70C81E090E00895CF93DF93EC01C2
:101A8000423018F08D8188608D834887222329F0A9
:101A9000413019F48D8184608D8362E370E080E0D1
:101AA00090E00E9433166C85CE010E94820C68EE95
:101AB00073E080E090E00E94331660E3CE010E9464
:101AC000B90C84E991E10E946C1660E3CE010E949A
:101AD000B90C84E991E10E946C1660E3CE010E948A
:101AE000B90C86E990E00E946C1660E2CE010E947B
:101AF000B90C6D816062CE010E94DE0C84E08E83A1
:101B0000CE010E942F0DCE010E94180D82E08F831E
:101B100066E0CE010E94DE0CCE01DF91CF910C94E5
:101B2000E10CCF93DF93EC018EEB92E00E94E60E86
:101B30001D8220E04B856A85CE01DF91CF910C9408
:101B40003D0D0C94910DCF93DF931F92CDB7DEB76F
:101B5000FC01698387898823F9F026898485958526
:101B60002817190654F081E090E09383828390E077
:101B700080E00F90DF91CF9108958981A589238915
:101B80003489A20FB32FB11D8C9385898F5F858B0C
:101B9000868B81E090E0EDCF00A4F1A5E02D61E01F
:101BA000CE0101960995F5CFFC0181899089891BA9
:101BB000990B0895FC01908981892FEF3FEF9817C9
:101BC00040F4A685B785A90FB11D2C9130E09F5F29
:101BD000908BC9010895DC015096EC915097519675
:101BE0008C915197E81748F41E968D919C91E80FBF
:101BF000F92FF11D808190E008958FEF9FEF0895F8
:101C00000895CF92DF92EF92FF920F931F93CF939D
:101C1000DF938C01CB017A01D80157962C9157970D
:101C2000222389F0EB016B01C40ED51ECC15DD0516
:101C300079F06991D801ED91FC910190F081E02D4E
:101C4000C8010995F3CF9896ED91FC91642F099501
:101C5000C701DF91CF911F910F91FF90EF90DF901F
:101C6000CF9008952F923F924F925F926F927F9202
:101C70008F929F92AF92BF92CF92DF92EF92FF929C
:101C80000F931F93CF93DF93CDB7DEB760970FB657
:101C9000F894DEBF0FBECDBF3C012B015A834983B0
:101CA0003C832B838DA19EA19E838D83EFA1F8A5FC
:101CB000F887EF8389A59AA59A878987EBA5FCA564
:101CC000FC87EB872DA43EA48FA598A99E878D87BE
:101CD000E9A9FAA9F88BEF87F3011382128288EE43
:101CE00093E0A0E0B0E084839583A683B7838CE47F
:101CF00092E09183808375876487CB010E94B2153F
:101D0000F30197878687108A118A128AC2010E947E
:101D1000B215F301948B838B158A168A178A8981F1
:101D20009A81958F848F8B819C81978F868F11A349
:101D300000A3F3A2E2A2D5A2C4A2B7A2A6A291A632
:101D400080A68D819E8193A782A78F81988595A774
:101D500084A789859A8597A786A7C101EB85FC850D
:101D600009958F859889ED85FE8560960FB6F89464
:101D7000DEBF0FBECDBFDF91CF911F910F91FF90BE
:101D8000EF90DF90CF90BF90AF909F908F907F901B
:101D90006F905F904F903F902F900994CF93DF9377
:101DA000EC018CE492E0998388838E859F8500976F
:101DB00011F00E94B6158B899C89009721F0DF9164
:101DC000CF910C94B615DF91CF910895FC01108A44
:101DD000118A158A168A048CF58DE02D0994FC0170
:101DE00081E0878B628B158A168A08950F93CF93B3
:101DF000DF93EC018B899C89EEA1FFA1062F21E0E6
:101E00004E89BC018A8909951D8A1E8A1F8ADF9125
:101E1000CF910F91089561E00C94F60EFC01CA0178
:101E2000228D338D232BD9F0308921893217B8F0D8
:101E300020E0422F50E0481759075CF4DB01A40F63
:101E4000B51F3C91A685B785A40FB51F3C932F5FA6
:101E5000F0CF108A818B028CF38DE02D09940895C8
:101E6000AB01BC018EEB92E00C940E0FDC01589696
:101E7000ED91FC915997309731F055961C925597FA
:101E800056961C92099408958EEB92E00C94360FAE
:101E90008F929F92AF92BF92CF92DF92EF92FF927A
:101EA0000F931F9384E49FE09F938F938FE990E1BA
:101EB0009F938F9380E39FE09F938F938AE990E1B4
:101EC0009F938F9386EB90E19F938F938CEA90E1A1
:101ED0009F938F9384EA90E19F938F9383E7882E5B
:101EE00080E1982E93E2A92E90E1B92E23EEC22E26
:101EF0002FE0D22E30EDE32E3FE0F32E0CEC1FE06E
:101F00002FEB3FE041EA5FE060E270E08EEB92E0B1
:101F10000E94320E8DB79EB70E960FB6F8949EBFF4
:101F20000FBE8DBF1F910F91FF90EF90DF90CF906C
:101F3000BF90AF909F908F9008958EEB92E00C949D
:101F4000CE0E10923D0381E080933B0310923A0342
:101F500061E082E10E945A1761E083E10E945A1712
:101F6000E9EBF0E080818E7F808380818D7F8083AC
:101F700080E28093B80085E48093BC000895ECEB88
:101F8000F0E080818A7B808360E082E10E945A17C2
:101F900060E083E10C945A17880F8093BA0008958B
:101FA0009B01AC0160E072E18AE790E00E94191A9F
:101FB0002051310941095109569547953795279583
:101FC0002093B80008954132E0F590913D039111BE
:101FD000FCCF91E090933D0320933B032FEF2093A0
:101FE000EE02709335036093340310923303240F91
:101FF0002093320390933C0390913C03880F892BEC
:1020000080933C0380913A038130C9F410923A03E3
:1020100080913C038093BB008091BC0083FDF8CF8E
:1020200085EC8093BC0080913D038130E1F3809189
:102030003303841710F440913303842F089585EE01
:10204000F0CF40E0FACF0F93413208F044C09091B6
:102050003D039111FCCF92E090933D0300933B032D
:102060009FEF9093EE0270933503609334031092C8
:1020700033034093320310923C0390913C03880F4A
:10208000892B80933C0380913A03813011F51092A3
:102090003A0380913C038093BB008091BC0083FD98
:1020A000F8CF85EC8093BC00222321F080913D0382
:1020B0008230D1F38091EE028F3F79F08091EE0271
:1020C000803269F08091EE02803359F084E00F9104
:1020D000089585EEE7CF81E0FACF80E0F8CF82E087
:1020E000F6CF83E0F4CF20911003260F3327331F60
:1020F00021323105ECF420913D03FC0190E080E0B9
:10210000243069F082E00895A09110032191AC0180
:102110004E5E5C4FA40FB52FB11D2C930196861710
:1021200098F380911003680F6093100380E0089586
:1021300081E0089590933703809336030895909338
:102140003903809338030895882321F085EC809328
:10215000BC00089585E8FBCF85ED8093BC0080919D
:10216000BC0084FDFCCF10923D03089585EC809364
:10217000BC0010923D0308951F920F920FB60F926C
:1021800011242F933F934F935F936F937F938F937C
:102190009F93AF93BF93EF93FF938091B900887F94
:1021A000803609F44CC008F03FC0883209F4A8C05A
:1021B00018F5803109F49CC0B8F4882309F405C1EE
:1021C000883009F495C0FF91EF91BF91AF919F9135
:1021D0008F917F916F915F914F913F912F910F90D0
:1021E0000FBE0F901F901895883109F489C0803276
:1021F00051F78093EE0215C0803409F4A6C048F46C
:102200008033B9F38833F9F68093EE020E94B6105A
:10221000DACF803509F489C0883509F49EC0883446
:1022200091F60E94AC10CFCF883909F494C038F5EC
:10223000883729F050F4883611F0803721F683E092
:1022400080933D031092EF0257C0883809F483C091
:10225000803919F0803809F0B6CF8091EF028032D2
:1022600008F079C0E091EF0281E08E0F8093EF02D9
:102270008091BB00F0E0E051FD4F80833DC0803B8A
:1022800039F0E0F4803A09F485C0883A09F09BCF30
:1022900084E080933D031092110310921003E091AB
:1022A0003803F091390309958091100381110FC013
:1022B00081E0809310031092120309C0803C09F45E
:1022C00082C0883C09F47FC0883B09F07CCFE09154
:1022D000110381E08E0F80931103F0E0EE5EFC4F5E
:1022E00080818093BB00909111038091100331C0D5
:1022F00080913C038093BB0085EC8093BC0063CF4E
:1023000090913303809132039817B8F5809134038C
:1023100090913503E091330321E02E0F2093330396
:10232000E80FF92FF11D8081E5CF20913403309122
:102330003503E091330381E08E0F80933303809166
:10234000BB00E20FF32FF11D808390913303809146
:102350003203981788F285E8D0CF2091340330916A
:102360003503E091330381E08E0F80933303809136
:10237000BB00E20FF32FF11D808380913B0381119D
:1023800050CF81E080933A0384EA8093BC0010929E
:102390003D0319CF0E94B6108091EF02803230F4D5
:1023A000E091EF02F0E0E051FD4F10826091EF020A
:1023B00070E0E0913603F091370380EF92E00995E9
:1023C0001092EF0200CF85ECE0CF1092EE0229CF01
:1023D000FC01918D228D892F90E0805C9F4F821BA4
:1023E00091098F7399270895FC01918D828D98171B
:1023F00031F0828DE80FF11D858D90E008958FEF0B
:102400009FEF0895FC01918D828D981761F0A28D48
:10241000AE0FBF2FB11D5D968C91928D9F5F9F7304
:10242000928F90E008958FEF9FEF0895FC01538DF8
:10243000448D252F30E0842F90E0821B930B54179E
:1024400010F0CF9608950197089589E793E1892BBD
:1024500049F080E090E0892B29F00E9479138111E6
:102460000E94000080E090E0892B49F080E090E03D
:10247000892B29F00E94000081110C94000008951E
:10248000FC01A48DA80FB92FB11DA35ABF4F2C91E9
:10249000848D90E001968F739927848FA689B789E0
:1024A0002C93A089B1898C91837080648C93938DD7
:1024B000848D981306C00288F389E02D80818F7D7A
:1024C00080830895CF93DF93EC01888D8823B9F042
:1024D000AA89BB89E889F9898C9185FD03C080812F
:1024E00086FD0DC00FB607FCF7CF8C9185FFF2CFAC
:1024F000808185FFEDCFCE010E944012E9CFDF91B0
:10250000CF910895EF92FF920F931F93CF93DF9394
:10251000EC0181E0888F9B8D8C8D98131AC0E8891F
:10252000F989808185FF15C09FB7F894EE89FF89EE
:102530006083E889F98980818370806480839FBF8C
:1025400081E090E0DF91CF911F910F91FF90EF908C
:102550000895F62E0B8D10E00F5F1F4F0F7311279C
:10256000E02E8C8D8E110CC00FB607FCFACFE889D7
:10257000F989808185FFF5CFCE010E944012F1CF0D
:10258000EB8DEC0FFD2FF11DE35AFF4FF0829FB74B
:10259000F8940B8FEA89FB8980818062CFCFCF923C
:1025A000DF92EF92FF921F93CF93DF93EC016A01CA
:1025B0007B01122F60E874E88EE190E0A70196019C
:1025C0000E94191A21503109410951095695479520
:1025D00037952795E889F98982E08083211580E184
:1025E000380798F0E889F989108260E472E48FE096
:1025F00090E0A70196010E94191A21503109410962
:1026000051095695479537952795EC85FD8530837B
:10261000EE85FF852083188EEC89FD891083EA8979
:10262000FB89808188698083EA89FB8980818F7D2D
:102630008083DF91CF911F91FF90EF90DF90CF903B
:1026400008951F920F920FB60F9211242F938F931C
:102650009F93EF93FF93E0914E03F0914F0380819E
:10266000E0915403F091550382FD1BC0908180914D
:1026700057038F5F8F7320915803821741F0E091C9
:102680005703F0E0E25CFC4F958F80935703FF9176
:10269000EF919F918F912F910F900FBE0F901F90F0
:1026A00018958081F4CF1F920F920FB60F921124CC
:1026B0002F933F934F935F936F937F938F939F934A
:1026C000AF93BF93EF93FF938EE393E00E9440128A
:1026D000FF91EF91BF91AF919F918F917F916F91FA
:1026E0005F914F913F912F910F900FBE0F901F90D0
:1026F00018958EE393E00E94E81121E0892B09F4FC
:1027000020E0822F0895EEE3F3E01382128288EE38
:1027100093E0A0E0B0E084839583A683B7838EE541
:1027200092E09183808385EC90E09587848784ECA8
:1027300090E09787868780EC90E0918B808B81EC8E
:1027400090E0938B828B82EC90E0958B848B86EC6F
:1027500090E0978B868B118E128E138E148E0895B7
:10276000AF92BF92CF92DF92EF92FF920F931F939F
:10277000CF93DF936C017B018B01040F151FEB01DD
:102780005E01AE18BF08C017D10759F06991D60194
:10279000ED91FC910190F081E02DC6010995892B06
:1027A00079F7C501DF91CF911F910F91FF90EF90C5
:1027B000DF90CF90BF90AF900895FB010190002073
:1027C000E9F73197AF01461B570BDC01ED91FC9106
:1027D0000280F381E02D09946115710511F00C94CC
:1027E000DD1390E080E00895DC01ED91FC91019013
:1027F000F081E02D09946CE672E00C94DD130F93E8
:102800001F93CF93DF938C01D0E0C0E06115710579
:1028100019F00E94DD13EC01C8010E94FB138C0F1C
:102820009D1FDF91CF911F910F9108958F929F92DD
:10283000AF92BF92EF92FF920F931F93CF93DF93CC
:10284000CDB7DEB7A1970FB6F894DEBF0FBECDBFF0
:102850007C01FA01CB0119A2223008F42AE08E0192
:102860000F5D1F4F822E912CB12CA12CBF01A50111
:1028700094010E94191AF901CA016A300CF5605DD1
:10288000D8016E938D01232B242B252B79F790E013
:1028900080E0109721F0BD01C7010E94DD13A196D1
:1028A0000FB6F894DEBF0FBECDBFDF91CF911F9161
:1028B0000F91FF90EF90BF90AF909F908F900895F1
:1028C000695CDECF2115310541F4DC01ED91FC910D
:1028D0000190F081E02D642F09940C9416149A0154
:1028E000AB0170E060E00C9462142F923F924F9223
:1028F0005F926F927F928F929F92AF92BF92CF9290
:10290000DF92EF92FF921F93CF93DF93EC016A0166
:102910007B01722EAB019601CB01B6010E94F0192A
:102920006FE672E0811126C046015701E894B7F8BE
:102930002FEF3FEF4FE75FE7C501B4010E94F019A9
:1029400081110CC02FEF3FEF4FE75FE7C501B401E6
:102950000E941F1863E772E0181664F02FEF3FEF34
:102960004FE75FE4C701B6010E947E191816B4F460
:1029700067E772E0CE01DF91CF911F91FF90EF905A
:10298000DF90CF90BF90AF909F908F907F906F908F
:102990005F904F903F902F900C94DD132FEF3FEFFF
:1029A0004FE75FECC701B6010E941F1887FDE0CF1B
:1029B00020E030E0A901C701B6010E941F18312CA8
:1029C000212C87FF09C06DE2CE010E94F4131C0187
:1029D000F7FAF094F7F8F09410E060E070E080E02F
:1029E0009FE3711641F020E030E040E251E40E94A4
:1029F00024181F5FF6CFA70196010E94B3172B0181
:102A00003C010E949D184B015C012AE0BC01A4011D
:102A1000CE010E9416147C01E20CF31C1123B1F1CB
:102A2000C501B4010E94CC189B01AC01C301B201E5
:102A30000E94B2174B015C016EE2CE010E94F413BA
:102A4000E80EF91E115010F120E030E040E251E4B0
:102A5000C501B4010E9483192B013C010E949D18FD
:102A60004B014AE050E0CE010E946F14E80EF91EBF
:102A7000B40190E080E00E94CC189B01AC01C3013E
:102A8000B2010E94B2174B015C01DCCFC701DF919C
:102A9000CF911F91FF90EF90DF90CF90BF90AF90BC
:102AA0009F908F907F906F905F904F903F902F906E
:102AB00008950C9475144F925F926F927F92AF922B
:102AC000BF92CF92DF92EF92FF920F931F93CF931B
:102AD000DF93CDB7DEB729013A019B01AC01241980
:102AE00035094609570989899A89AB89BC89BC018E
:102AF000CD016A197B098C099D090E94F519A8016D
:102B0000970124193509460957090E943B1ACA0141
:102B1000B9016A0D7B1D8C1D9D1DDF91CF911F9109
:102B20000F91FF90EF90DF90CF90BF90AF907F908C
:102B30006F905F904F90089508950E9477160E94BD
:102B40009C150E94550BC5E2D2E10E94CC0A209749
:102B5000E1F30E942512F9CF009711F481E090E093
:102B60000C948E1A0C94AC150C942A1B0C94B4156E
:102B70001F920F920FB60F9211242F933F938F93B2
:102B80009F93AF93BF938091E0039091E103A09155
:102B9000E203B091E3033091DF0326E0230F2D37EA
:102BA00068F129E8230F0396A11DB11D2093DF03CF
:102BB0008093E0039093E103A093E203B093E303D7
:102BC0008091DB039091DC03A091DD03B091DE03E3
:102BD0000196A11DB11D8093DB039093DC03A093AC
:102BE000DD03B093DE03BF91AF919F918F913F9131
:102BF0002F910F900FBE0F901F9018950296A11D58
:102C0000B11DD4CF2FB7F8946091E0037091E10328
:102C10008091E2039091E3032FBF08953FB7F894AA
:102C20008091DB039091DC03A091DD03B091DE0382
:102C300026B5A89B05C02F3F19F00196A11DB11D17
:102C40003FBFBA2FA92F982F8827BC01CD01620F53
:102C5000711D811D911D43E0660F771F881F991F0D
:102C60004A95D1F708958F929F92AF92BF92CF92DB
:102C7000DF92EF92FF926B017C010E940E164B01D6
:102C80005C01C114D104E104F104E9F00E94B11720
:102C90000E940E16681979098A099B09683E7340DB
:102CA0008105910570F321E0C21AD108E108F1080D
:102CB00088EE880E83E0981EA11CB11CC114D104BB
:102CC000E104F10429F7FF90EF90DF90CF90BF90DF
:102CD000AF909F908F900895000000008330910581
:102CE00028F0880F991F05970197F1F708957894B8
:102CF00084B5836084BD85B5836085BDEEE6F0E074
:102D0000808181608083E1E8F0E082E080838081DF
:102D100081608083E0E8F0E0808181608083E1EB86
:102D2000F0E0808184608083E0EBF0E0808181606E
:102D30008083E1E9F0E0808183608083E0E9F0E076
:102D4000808181608083E1EAF0E08081836080831C
:102D5000E0EAF0E080818160808386E880937A00F9
:102D60001092C1000895883038F092EF980F9B3090
:102D7000D8F08931D8F083512091130190E4299F34
:102D8000900111248770822B80937C0080917A00BF
:102D9000806480937A0080917A0086FDFCCF8091D8
:102DA0007800909179000895892FE6CF8FEFE4CFD6
:102DB00082508D3008F03EC0E82FF0E0EE51F94E21
:102DC0000C945A1A17171B17EF16F5161A171A171D
:102DD000F916FF16031709171A170D171317809105
:102DE00080008F77809380000895809180008F7D90
:102DF000F9CF8091B0008F778093B00008958091D3
:102E0000B0008F7DF9CF809190008F7780939000F4
:102E10000895809190008F7DF9CF8091A0008F77E9
:102E20008093A00008958091A0008F7DF9CF84B594
:102E30008F7784BD089584B58F7DFBCFCF93DF93CB
:102E400090E0FC01E153FE4F249186519E4FFC011E
:102E500084918823C9F090E0880F991FFC01E35EFC
:102E6000FD4FA591B491FC01EF5EFD4FC591D4914A
:102E700061110DC09FB7F8948C91209582238C939B
:102E80008881282328839FBFDF91CF9108956230E6
:102E900051F49FB7F8943C91822F809583238C93B3
:102EA000E8812E2BEFCF8FB7F894EC912E2B2C933B
:102EB0008FBFEACF1F93CF93DF93282F30E0F90124
:102EC000EC54FE4F8491F901E153FE4FD491F90186
:102ED000E651FE4FC491CC23A9F0162F81110E9418
:102EE000D816EC2FF0E0EE0FFF1FEF5EFD4FA5911F
:102EF000B4918FB7F894EC91111108C0D095DE23EE
:102F0000DC938FBFDF91CF911F910895DE2BF8CF17
:102F1000CF93DF93282F30E0F901EC54FE4F8491DA
:102F2000F901E153FE4FD491F901E651FE4FC491EE
:102F3000CC23A1F081110E94D816EC2FF0E0EE0F07
:102F4000FF1FEB5FFD4FA591B491EC91ED2381E064
:102F500090E009F480E0DF91CF91089580E090E067
:102F6000FACF08955058BB27AA270E94CA170C947D
:102F700044190E94361938F00E943D1920F039F4A6
:102F80009F3F19F426F40C9433190EF4E095E7FBF7
:102F90000C942D19E92F0E94551958F3BA1762079E
:102FA00073078407950720F079F4A6F50C94771938
:102FB0000EF4E0950B2EBA2FA02D0B01B901900154
:102FC0000C01CA01A0011124FF27591B99F0593F98
:102FD00050F4503E68F11A16F040A22F232F342FE0
:102FE0004427585FF3CF469537952795A795F0402E
:102FF0005395C9F77EF41F16BA0B620B730B840B43
:10300000BAF09150A1F0FF0FBB1F661F771F881FFA
:10301000C2F70EC0BA0F621F731F841F48F4879552
:1030200077956795B795F7959E3F08F0B0CF939544
:10303000880F08F09927EE0F9795879508950E94BD
:10304000091908F481E008950E9438180C94441975
:103050000E943D1958F00E94361940F029F45F3F54
:1030600029F00C942D1951110C9478190C943319E2
:103070000E94551968F39923B1F3552391F3951BD9
:10308000550BBB27AA2762177307840738F09F5F89
:103090005F4F220F331F441FAA1FA9F335D00E2EF6
:1030A0003AF0E0E832D091505040E695001CCAF763
:1030B0002BD0FE2F29D0660F771F881FBB1F261726
:1030C00037074807AB07B0E809F0BB0B802DBF01FD
:1030D000FF2793585F4F3AF09E3F510578F00C94CC
:1030E0002D190C9478195F3FE4F3983ED4F386953C
:1030F00077956795B795F7959F5FC9F7880F911DED
:103100009695879597F90895E1E0660F771F881FD8
:10311000BB1F621773078407BA0720F0621B730B8B
:10312000840BBA0BEE1F88F7E09508950E949D1856
:103130006894B1110C94781908950E945D1988F073
:103140009F5798F0B92F9927B751B0F0E1F0660F6B
:10315000771F881F991F1AF0BA95C9F714C0B130AC
:1031600091F00E947719B1E008950C947719672FB8
:10317000782F8827B85F39F0B93FCCF386957795DB
:103180006795B395D9F73EF49095809570956195C4
:103190007F4F8F4F9F4F0895E89409C097FB3EF4EF
:1031A00090958095709561957F4F8F4F9F4F992394
:1031B000A9F0F92F96E9BB279395F6958795779512
:1031C0006795B795F111F8CFFAF4BB0F11F460FFD2
:1031D0001BC06F5F7F4F8F4F9F4F16C0882311F02A
:1031E00096E911C0772321F09EE8872F762F05C03E
:1031F000662371F096E8862F70E060E02AF09A95D9
:10320000660F771F881FDAF7880F9695879597F9CD
:103210000895990F0008550FAA0BE0E8FEEF161667
:103220001706E807F907C0F012161306E407F507BA
:1032300098F0621B730B840B950B39F40A2661F02E
:10324000232B242B252B21F408950A2609F4A140D1
:10325000A6958FEF811D811D089597F99F6780E8DE
:1032600070E060E008959FEF80EC089500240A94D8
:103270001616170618060906089500240A94121651
:103280001306140605060895092E0394000C11F484
:10329000882352F0BB0F40F4BF2B11F460FF04C031
:1032A0006F5F7F4F8F4F9F4F089557FD9058440F8A
:1032B000551F59F05F3F71F04795880F97FB991F95
:1032C00061F09F3F79F08795089512161306140652
:1032D000551FF2CF4695F1DF08C0161617061806DF
:1032E000991FF1CF86957105610508940895E894BA
:1032F000BB2766277727CB0197F908950E94091904
:1033000008F48FEF08950E9496190C9444190E94B6
:10331000361938F00E943D1920F0952311F00C94D5
:103320002D190C94331911240C9478190E945519F5
:1033300070F3959FC1F3950F50E0551F629FF00108
:10334000729FBB27F00DB11D639FAA27F00DB11D21
:10335000AA1F649F6627B00DA11D661F829F2227AA
:10336000B00DA11D621F739FB00DA11D621F839F31
:10337000A00D611D221F749F3327A00D611D231F07
:10338000849F600D211D822F762F6A2F11249F5755
:1033900050409AF0F1F088234AF0EE0FFF1FBB1F58
:1033A000661F771F881F91505040A9F79E3F510517
:1033B00080F00C942D190C9478195F3FE4F3983E3B
:1033C000D4F3869577956795B795F795E7959F5FC1
:1033D000C1F7FE2B880F911D9695879597F9089553
:1033E0000E940919880B990B0895DB018F939F9315
:1033F0000E94601ABF91AF91A29F800D911DA39F63
:10340000900DB29F900D1124089597FB072E16F48E
:10341000009407D077FD09D00E946B1A07FC05D0F5
:103420003EF4909581959F4F0895709561957F4FDB
:103430000895A1E21A2EAA1BBB1BFD010DC0AA1FF5
:10344000BB1FEE1FFF1FA217B307E407F50720F00D
:10345000A21BB30BE40BF50B661F771F881F991F88
:103460001A9469F760957095809590959B01AC01D1
:10347000BD01CF010895052E97FB1EF400940E9414
:10348000521A57FD07D00E94191A07FC03D04EF4B8
:103490000C94521A50954095309521953F4F4F4FBF
:1034A0005F4F089590958095709561957F4F8F4FF0
:1034B0009F4F0895EE0FFF1F0590F491E02D0994A2
:1034C0000E947F1AA59F900DB49F900DA49F800D20
:1034D000911D11240895AA1BBB1B51E107C0AA1F0F
:1034E000BB1FA617B70710F0A61BB70B881F991FA5
:1034F0005A95A9F780959095BC01CD010895A29F9A
:10350000B001B39FC001A39F700D811D1124911DB7
:10351000B29F700D811D1124911D08950F931F936B
:10352000CF93DF938230910510F482E090E0E09138
:10353000E603F091E70330E020E0B0E0A0E0309750
:1035400099F42115310509F44AC0281B390B2430A0
:103550003105D8F58A819B816115710589F1FB01DF
:1035600093838283FE0111C04081518102811381C6
:1035700048175907E0F04817590799F4109761F078
:1035800012960C93129713961C933296CF01DF91EB
:10359000CF911F910F9108950093E6031093E703D5
:1035A000F4CF2115310551F04217530738F0A90126
:1035B000DB019A01BD01DF01F801C1CFEF01F9CFB5
:1035C0009093E7038093E603CDCFFE01E20FF31F54
:1035D000819391932250310939832883D7CF209149
:1035E000E4033091E503232B41F420910201309153
:1035F00003013093E5032093E4032091000130910F
:1036000001012115310541F42DB73EB74091040168
:1036100050910501241B350BE091E403F091E50383
:10362000E217F307A0F42E1B3F0B2817390778F099
:10363000AC014E5F5F4F2417350748F04E0F5F1FF8
:103640005093E5034093E403819391939FCFF0E07F
:10365000E0E09CCFCF93DF930097E9F0FC01329735
:1036600013821282A091E603B091E703ED0130E0EE
:1036700020E01097A1F420813181820F931F2091C7
:10368000E4033091E5032817390709F061C0F0938E
:10369000E503E093E403DF91CF910895EA01CE17AB
:1036A000DF07E8F54A815B819E0141155105B1F7BD
:1036B000E901FB83EA8349915991C40FD51FEC17A7
:1036C000FD0761F4808191810296840F951FE901C5
:1036D00099838883828193819B838A83F0E0E0E0F1
:1036E00012968D919C9113970097B9F52D913C916D
:1036F0001197CD010296820F931F2091E403309120
:10370000E5032817390739F6309751F51092E7038A
:103710001092E603B093E503A093E403BCCFD383F8
:10372000C28340815181840F951FC817D90761F466
:103730004E5F5F4F88819981480F591F51834083A5
:103740008A819B81938382832115310509F0B0CF53
:10375000F093E703E093E6039ECFFD01DC01C0CFC9
:1037600013821282D7CF11E0C8E1D1E004C0FE017C
:103770000E945A1A2196C931D107C9F7F894FFCF90
:103780000000E80380000000A04001000048420063
:1037900000803F010000400014005400536C65633A
:1037A00074204D6F646500313A20446973706C6118
:1037B0007920436F6E74726F6C00323A20436F6EE3
:1037C00074726F6C20565200343A204D6F746F72D1
:1037D0002044726976657200353A2053657420463C
:1037E000726571002A004D6F646520333A20546978
:1037F0006D65204368616E67650054696D653A00C8
:1038000073004D6F646520343A204D4F544F522061
:103810004452495645520043686965752071756187
:10382000793A00546875616E004E67686963680094
:103830004D6F646520353A205365742054616E20C5
:10384000536F0053657420463A00436F6E74726F75
:103850006C204D6F746F7200543A00447269766543
:10386000723A0053746F70005374617274002D2D9E
:103870004F6666204D6F746F722D2D004D4F44457D
:1038800020323A2044554E4720565220004444539B
:103890002054657374004D6F64756C65204D6163D1
:1038A00068204269656E2054616E007468616E68BC
:1038B00068756E672E6564752E766E0000000000D8
:1038C000370DB013710C740C00000000A30D010E35
:1038D000710C000ED40DDA0DEB0D00000000821209
:1038E000B01316126212E8110212F4110D0A006EE2
:0C38F000616E00696E66006F7666000075
:00000001FF
